:1000000062C0000087C0000085C0000083C00000FF
:1000100081C000007FC000007DC000007BC00000E8
:1000200079C0000077C0000075C0000073C00000F8
:1000300071C000006FC000006DC000006BC0000008
:100040000C94290867C000001FC600004FC60000BE
:1000500061C000005FC000005DC000005BC0000028
:1000600059C0000057C00000000000080002010055
:100070000003040700000000000000000102040863
:100080001020408001020408102001020408102002
:10009000040404040404040402020202020203032E
:1000A00003030303000000002300260029000000D2
:1000B0000000250028002B0000000000240027007D
:1000C0002A00FA04A40611241FBECFEFD8E0DEBF39
:1000D000CDBF14E0A0E0B1E0EAEFF8E102C0059086
:1000E0000D92A837B107D9F725E0A8E7B4E001C021
:1000F0001D92AF37B207E1F710E0C6ECD0E004C0C4
:100100002297FE010E94500BC23CD107C9F797D736
:100110000C947B0C75CFBC0185ED94E0B0C6242F08
:10012000462F682F81E894E00C94810A26E040E88D
:1001300055E260E070E085ED94E046D560E088E04F
:100140000E941F0960E089E00E941F0960E08AE0C8
:100150000E941F0981E894E00E945B0A61E081E847
:1001600094E00E94F50960917D0470917E0441E065
:1001700050E080917F0490918004D1DF60917904F8
:1001800070917A0441E050E080917B0490917C046E
:10019000C6CF1F93CF93DF93D82F162FC0E0212F08
:1001A0004C2F6D2F81E894E00E94810A64E170E099
:1001B00080E090E0BBD7CF5FC83089F7DF91CF9167
:1001C0001F9108951F93CF93DF93D82F162FC0E070
:1001D000212F4D2F6C2F81E894E00E94810A64E169
:1001E00070E080E090E0A2D7CF5FC83089F7DF9160
:1001F000CF911F910895AF92BF92CF92DF92EF926D
:10020000FF920F931F93CF93DF937C016B01EA0161
:10021000890193E0A92EB12C41E050E0B601C7015D
:100220007EDF41E050E0B801CE0179DF62E370E0AB
:1002300080E090E07BD740E050E0B601C7016FDF7F
:1002400040E050E0B801CE016ADF62E370E080E098
:1002500090E06CD781E0A81AB108F1F641E050E0D7
:10026000B601C7015CDF41E050E0B801CE0157DFC5
:1002700062E370E080E090E0DF91CF911F910F91F9
:10028000FF90EF90DF90CF90BF90AF904FC7EF926D
:10029000FF920F931F93CF93DF93EC018B0123E029
:1002A000E22EF12C41E050E0B801CE0138DF62E3EC
:1002B00070E080E090E03AD740E050E0B801CE0135
:1002C0002EDF62E370E080E090E030D781E0E81A52
:1002D000F10841F741E050E0B801CE0120DF62E3D0
:1002E00070E080E090E0DF91CF911F910F91FF903F
:1002F000EF901CC7CF92DF92EF92FF920F931F9364
:10030000CF93DF938C01EB017A016901FC018081BD
:100310009181688179818417950719F462177307B1
:1003200019F040E050E0FBDEF801808191810196F8
:10033000883091051CF49183808308C0F8011182F4
:100340001082888199810196998388838881998117
:10035000089714F01982188264E670E080E090E05B
:10036000E5D6F80180819181688179818E159F059C
:1003700019F46C157D0559F041E050E0DF91CF9103
:100380001F910F91FF90EF90DF90CF90C8CEDF913B
:10039000CF911F910F91FF90EF90DF90CF90089534
:1003A000CF93DF93EC0160E070E088819981F1DE0A
:1003B000888199818830910514F4019602C080E00B
:1003C00090E09983888361E070E0DF91CF91E1CE86
:1003D000CF93DF93EC0160E070E088819981F2DED9
:1003E000888199818830910514F4019602C080E0DB
:1003F00090E09983888361E070E0DF91CF91E2CE55
:10040000CF92DF92EF92FF920F931F93CF93DF93E0
:100410000AE011E0D12C38E0C32EC0E0D0E0780132
:10042000EC0EFD1EF70120814D2D6C2D81E894E02E
:100430000E94810A80917804882341F0F70160814D
:1004400071814AE050E085ED94E0D7D52296C394BF
:10045000F0E1CF12E4CF80917804882329F06FE691
:1004600072E085ED94E00BD5005F1F4FD39488E0D8
:10047000D812D1CFDF91CF911F910F91FF90EF90C4
:10048000DF90CF90089580917804882309F438C0D4
:100490006EE572E085ED94E0D8D460917F047091B0
:1004A00080044AE050E085ED94E0A7D560E772E073
:1004B00085ED94E0CAD460917D0470917E044AE099
:1004C00050E085ED94E099D560E772E085ED94E029
:1004D000BCD460917B0470917C044AE050E085EDCF
:1004E00094E08BD560E772E085ED94E0AED4609146
:1004F000790470917A044AE050E085ED94E084C577
:100500000895CF92DF92EF92FF920F931F93CF93B4
:10051000DF9340917F0450918004E0917B04F0913F
:100520007C042091790430917A0480917D0490912B
:100530007E044E175F0709F07CC0C0900801D09080
:100540000901F601EE0FFF1FE05BFD4FA081B181B5
:10055000821793072CF0BC012817390724F001C03B
:10056000B901FC0101C0F9016E1B7F0B6F5F7F4F6A
:10057000A617B70719F062E772E0D4C0BC012817CC
:1005800039070CF4B901DB011197FA013197ED013C
:1005900013E0CC0FDD1F1A95E1F7EC0FFD1FEE0FF6
:1005A000FF1FE65FFE4FEC01821793070CF4E90191
:1005B0007E011FEFE11AF10AEA16FB06ACF0C081DA
:1005C000D181219761F0C281D381219741F070964A
:1005D000EF012C970990D881C02D219719F46DE86F
:1005E00072E0A0C01196DFCFCB01E3E0880F991F26
:1005F000EA95E1F7840F951F880F991F865F9E4F3C
:1006000020E030E041E050E0C617D70754F0FC018D
:10061000E20FF31F518340836F5F7F4F205F3F4F97
:10062000F3CF86010F5F1F4F10930901009308015C
:1006300084C08217930709F073C0A0910801B0919C
:100640000901BF01E417F5070CF4BA019F014E1729
:100650005F070CF49A01FD01EE0FFF1FE05BFD4FF9
:10066000AB01421B530B4F5F5F4F0190F081E02DB8
:10067000E417F50709F07FCFA90141505109FC01AA
:100680003197EA0113E0CC0FDD1F1A95E1F7EC0F6B
:10069000FD1FEE0FFF1FE65FFE4F7B01CFEFEC1A51
:1006A000FC0AE416F506D4F0008111810130110531
:1006B00009F495CF028113810130110509F48FCF20
:1006C00070968F010C501109E801088119810130E1
:1006D000110509F484CF4F5F5F4FE3CF43E0880FEC
:1006E000991F4A95E1F7820F931F880F991F865F24
:1006F0009E4F40E050E0E1E0F0E06217730754F0F5
:10070000EC01C40FD51FF983E8832F5F3F4F4E5F85
:100710005F4FF3CF1196B0930901A09308010DC06C
:1007200068EB72E085ED94E0DF91CF911F910F911E
:10073000FF90EF90DF90CF90A2C3DF91CF911F91F8
:100740000F91FF90EF90DF90CF90089589E0E5D56D
:10075000019749F088E0E1D5019729F08AE0DDD5DD
:10076000019709F03BC089E0D8D5019771F4209139
:10077000790430917A0440917B0450917C046DE7B8
:1007800074E08FE794E0B6DD7EDE88E0C6D50197A1
:1007900071F420917D0430917E0440917F0450914A
:1007A000800469E774E08BE794E0A4DD6CDE8AE006
:1007B000B4D5019799F42091790430917A0440914D
:1007C0007B0450917C0460917D0470917E04809143
:1007D0007F04909180040FDD94DE12CE0895809105
:1007E00008019091090101969093090180930801F5
:1007F0000895AF92BF92CF92DF92EF92FF920F9344
:100800001F93CF93DF93AAE0EA2EA1E0FA2EC0E077
:10081000D0E0A12CB12C00E010E07FE6C72E72E002
:10082000D72E6CE285ED94E011D380917F049091F6
:100830008004C817D90711F580917D0490917E043A
:1008400008171907D9F4F701EA0DFB1D8081918182
:1008500011821082019771F4809106019091070135
:1008600001979093070180930601F2EDCF2EF2E0FD
:10087000DF2E04C0EAECCE2EE2E0DE2E0F5F1F4F2B
:1008800080E1A80EB11C0830110559F6B60185EDBE
:1008900094E0F5D2219682E0E80EF11CC830D10533
:1008A00009F0B7CF85ED94E0D8D26DE285ED94E004
:1008B000F6D285ED94E0D1D260E777E180E090E078
:1008C00035D4DF91CF911F910F91FF90EF90DF9082
:1008D000CF90BF90AF900895CF93DF9300D000D01A
:1008E00000D0CDB7DEB789E018D5019741F088E098
:1008F00014D5019721F08AE010D5019721F589E000
:100900000CD5019721F48FE794E04ADDBCDD88E047
:1009100004D5019721F48DE794E05ADDB4DD8AE037
:10092000FCD4019781F460917D0470917E048091E4
:100930007F0490918004ABDCCE0101965ADFCE019A
:10094000019678D35DDD26960FB6F894DEBF0FBE14
:10095000CDBFDF91CF910895809108019091090159
:10096000079709F43CDFB8CF809108019091090105
:1009700087309105ACF4FC01EE0FFF1FE657FE4FE8
:1009800080819181C8DB89E0C8D4892B81F588E01A
:10099000C4D4892B61F58AE0C0D4892B41F5F3CF0B
:1009A0000A9739F18091060190910701892B31F462
:1009B0008AE090E09093090180930801E09108019A
:1009C000F0910901EE0FFF1FE657FE4F80819181E4
:1009D000A2DB16DD89E0A1D4892B51F488E09DD4F7
:1009E000892B31F48AE099D4892B11F4F3CFAECE60
:1009F000B3CF08950F9302E026E045E064E081E87C
:100A000094E0B4D40F910895FC01818D228D90E083
:100A1000805C9F4F821B91098F7399270895FC0179
:100A2000918D828D981731F0828DE80FF11D858DA3
:100A300090E008958FEF9FEF0895FC01918D828DD6
:100A4000981761F0828DDF01A80FB11D5D968C9122
:100A5000928D9F5F9F73928F90E008958FEF9FEF2D
:100A600008958BE996E0892B41F080E090E0892B96
:100A700021F061D181110C9400000895FC01848D56
:100A8000DF01A80FB11DA35ABF4F2C91848D90E0B8
:100A900001968F739927848FA689B7892C93A08993
:100AA000B1898C9180648C93938D848D981306C04A
:100AB0000288F389E02D80818F7D80830895CF9314
:100AC000DF93EC01888D8823C1F0EA89FB8980815E
:100AD00085FD05C0A889B9898C9186FD0EC00FB629
:100AE00007FCF5CF808185FFF2CFA889B9898C9169
:100AF00085FFEDCFCE01C2DFE8CFDF91CF91089522
:100B0000CF92DF92FF920F931F93CF93DF931F92A9
:100B1000CDB7DEB76C01DC015B969C915B975C9670
:100B20008C915C97981307C05096ED91FC9151976A
:100B3000808185FD31C0F601038D10E00F5F1F4FEE
:100B40000F731127F02EF601848DF81210C00FB626
:100B500007FCF9CFD6015096ED91FC915197808119
:100B600085FFF1CFC601698389DF6981ECCF838D71
:100B7000E80FF11DE35AFF4F6083D6015B960C939B
:100B80005B975296ED91FC915397808180628083B0
:100B900081E058968C930DC0D6015696ED91FC914C
:100BA000579760835096ED91FC91519780818064B6
:100BB000808381E090E00F90DF91CF911F910F91A2
:100BC000FF90DF90CF900895BF92CF92DF92EF9287
:100BD000FF92CF93DF93EC016A017B01B22EE8898B
:100BE000F98982E08083411581EE5807610571051E
:100BF00099F060E079E08DE390E0A70196012CD5B3
:100C00002150310941095109569547953795279546
:100C1000211580E1380790F0E889F989108260E8B1
:100C200074E88EE190E0A701960116D521503109B4
:100C3000410951095695479537952795EC85FD85CE
:100C40003083EE85FF852083188EEC89FD89B08284
:100C5000EA89FB89808180618083EA89FB898081C0
:100C600088608083EA89FB89808180688083EA8943
:100C7000FB8980818F7D8083DF91CF91FF90EF9002
:100C8000DF90CF90BF9008951F920F920FB60F92F2
:100C900011242F938F939F93EF93FF93E091E5049B
:100CA000F091E6048081E091EB04F091EC0482FD88
:100CB00012C090818091EE048F5F8F732091EF04BA
:100CC000821751F0E091EE04F0E0EB52FB4F958F6C
:100CD0008093EE0401C08081FF91EF919F918F91ED
:100CE0002F910F900FBE0F901F9018951F920F928B
:100CF0000FB60F9211242F933F934F935F936F93EF
:100D00007F938F939F93AF93BF93EF93FF9385ED63
:100D100094E0B4DEFF91EF91BF91AF919F918F91DD
:100D20007F916F915F914F913F912F910F900FBEE7
:100D30000F901F90189585ED94E066DE21E0892BD9
:100D400009F420E0822F08951092D8041092D7045D
:100D500088EE93E0A0E0B0E08093D9049093DA04A9
:100D6000A093DB04B093DC048BE694E09093D6046C
:100D70008093D50485EC90E09093E2048093E104A5
:100D800084EC90E09093E4048093E30480EC90E0A2
:100D90009093E6048093E50481EC90E09093E8045E
:100DA0008093E70482EC90E09093EA048093E90456
:100DB00086EC90E09093EC048093EB041092EE04A8
:100DC0001092EF041092F0041092F1040895CF9263
:100DD000DF92EF92FF920F931F93CF93DF936C01FB
:100DE0007A01EB01E60EF71E00E010E0CE15DF05FC
:100DF00061F06991D601ED91FC910190F081E02DB7
:100E0000C6010995080F191FF1CFC801DF91CF91D5
:100E10001F910F91FF90EF90DF90CF900895611593
:100E2000710581F0DB010D900020E9F7AD01415023
:100E30005109461B570BDC01ED91FC910280F381B7
:100E4000E02D099480E090E00895E9CFDC01ED9178
:100E5000FC910190F081E02D09940F931F93CF93A3
:100E6000DF93EC016DE0F2DF8C016AE0CE01EEDF92
:100E7000800F911FDF91CF911F910F9108950F93D4
:100E80001F93CF93DF93EC01CADF8C01CE01E5DF26
:100E9000800F911FDF91CF911F910F9108950F93B4
:100EA0001F93CF93DF93EC01D1DF8C01CE01D5DF0F
:100EB000800F911FDF91CF911F910F9108958F9215
:100EC0009F92AF92BF92CF92DF92EF92FF920F93D9
:100ED0001F93CF93DF93CDB7DEB7A1970FB6F894EA
:100EE000DEBF0FBECDBF7C01C42EE52FCB01D22EBD
:100EF00019A221E02D1510F02AE0D22E8E010F5DEF
:100F00001F4F8D2C912CA12CB12C6C2D7E2FA50167
:100F10009401A2D38C2DD29E801911240150110965
:100F20008A3014F4805D01C0895CF801808321154A
:100F300031054105510521F0C22EE32FCA01E5CF4D
:100F4000B801C7016CDFA1960FB6F894DEBF0FBEE3
:100F5000CDBFDF91CF911F910F91FF90EF90DF9068
:100F6000CF90BF90AF909F908F900895CF92DF92D7
:100F7000EF92FF920F931F93CF93DF93EC016A01DF
:100F80007B012115310579F4E881F9810190F08127
:100F9000E02D642FDF91CF911F910F91FF90EF9083
:100FA000DF90CF9009942A303105D9F477FF18C02B
:100FB0006DE24CDF8C0144275527BA014C195D09BD
:100FC0006E097F092AE0CE017ADF800F911FDF9141
:100FD000CF911F910F91FF90EF90DF90CF900895E8
:100FE0002AE0B701A601CE01DF91CF911F910F91A9
:100FF000FF90EF90DF90CF9062CF9A01AB01662710
:1010000057FD6095762FB2CF0F931F93CF93DF9349
:10101000EC019A01AB01662757FD6095762FA6DF9C
:101020008C01CE011ADF800F911FDF91CF911F91AC
:101030000F910895FC0180819181CEC308959BD0CA
:10104000FDDF74D8C1E3D5E08FDC2097E9F309DD3B
:10105000FBCF1F920F920FB60F9211242F933F9345
:101060008F939F93AF93BF93809173059091740575
:10107000A0917505B09176053091720523E0230F9C
:101080002D3720F40196A11DB11D05C026E8230FC0
:101090000296A11DB11D2093720580937305909354
:1010A0007405A0937505B0937605809177059091AE
:1010B0007805A0917905B0917A050196A11DB11D21
:1010C0008093770590937805A0937905B0937A057E
:1010D000BF91AF919F918F913F912F910F900FBE34
:1010E0000F901F9018953FB7F894809177059091D5
:1010F0007805A0917905B0917A0526B5A89B05C021
:101100002F3F19F00196A11DB11D3FBF6627782F13
:10111000892F9A2F620F711D811D911D42E0660F6C
:10112000771F881F991F4A95D1F70895CF92DF92B4
:10113000EF92FF92CF93DF936B017C01D4DFEB0141
:10114000C114D104E104F10479F00FD1CCDF6C1BA0
:101150007D0B683E7340A0F381E0C81AD108E10816
:10116000F108C851DC4FECCFDF91CF91FF90EF90A9
:10117000DF90CF900895789484B5826084BD84B563
:10118000816084BD85B5826085BD85B5816085BD82
:10119000EEE6F0E0808181608083E1E8F0E010829B
:1011A000808182608083808181608083E0E8F0E0DC
:1011B000808181608083E1EBF0E0808184608083C6
:1011C000E0EBF0E0808181608083EAE7F0E08081FD
:1011D000846080838081826080838081816080835D
:1011E0008081806880831092C1000895833081F0EF
:1011F00028F4813099F08230A1F008958730A9F069
:101200008830B9F08430D1F4809180008F7D03C0A4
:10121000809180008F7780938000089584B58F77C8
:1012200002C084B58F7D84BD08958091B0008F7712
:1012300003C08091B0008F7D8093B0000895CF935C
:10124000DF9390E0FC01E458FF4F2491FC01E0574C
:10125000FF4F8491882349F190E0880F991FFC018A
:10126000E854FF4FA591B49182559F4FFC01C59161
:10127000D4919FB7611108C0F8948C912095822376
:101280008C93888182230AC0623051F4F8948C9147
:10129000322F309583238C938881822B888304C0DE
:1012A000F8948C91822B8C939FBFDF91CF910895FE
:1012B0000F931F93CF93DF931F92CDB7DEB7282FE5
:1012C00030E0F901E859FF4F8491F901E458FF4FEC
:1012D0001491F901E057FF4F04910023C1F08823D6
:1012E00019F0698383DF6981E02FF0E0EE0FFF1FC3
:1012F000E255FF4FA591B4919FB7F8948C9161117D
:1013000003C01095812301C0812B8C939FBF0F9048
:10131000DF91CF911F910F910895CF93DF93282FE5
:1013200030E0F901E859FF4F8491F901E458FF4F8B
:10133000D491F901E057FF4FC491CC2389F081117A
:1013400055DFEC2FF0E0EE0FFF1FEC55FF4FA5919E
:10135000B4912C912D2381E090E021F480E002C033
:1013600080E090E0DF91CF91089508950F93FC0104
:10137000608341832283038380E090E0DF01A80F34
:10138000B91F14961C92019680359105B9F70F91FB
:101390000895EF92FF920F931F93CF93DF93EC0189
:1013A000F62EE42E60E0898183DF00E010E08B817F
:1013B00090E0081719076CF42F2D41E06A818881AD
:1013C0000FD12E2D41E06A8188810AD10F5F1F4F16
:1013D000EECF60E089816CDF61E08981DF91CF91A0
:1013E0001F910F91FF90EF9063CF462F6AE0D1CF0E
:1013F0008F929F92AF92BF92CF92DF92EF92FF9225
:101400000F931F93CF93DF93EC01B62E942E60E0E1
:1014100089814EDFCB2CD12CE12CF12C00E010E0A7
:10142000882483948B0C5E01AC18BD08EC0CFD1C69
:101430008B8190E0081719078CF4282D41E06A8110
:101440008881CED0292D41E06A818881C9D0F501FB
:10145000EE0DFF1D94820F5F1F4FE8CF60E0898182
:1014600027DF61E08981DF91CF911F910F91FF907C
:10147000EF90DF90CF90BF90AF909F908F9018CF5C
:101480001F93CF93DF93EC0110E040E0612FCE017A
:10149000AFDF1F5F1830C9F720E030E0FE01E20F38
:1014A000F31F14822F5F3F4F20353105B9F7DF91CD
:1014B000CF911F910895CF93DF93EC0161E0888174
:1014C000BEDE61E08A81BBDE61E08981B8DE61E079
:1014D0008A81EEDE47E06BE0CE015BDF40E069E051
:1014E000CE0157DF41E06CE0CE0153DF40E06FE01A
:1014F000CE014FDFCE01C4DF6FE0CE01DF91CF918F
:1015000074CFBF92CF92DF92EF92FF920F931F930F
:10151000CF93DF93EC01E62EF12C222389F001E03A
:1015200010E020E030E004C0000F111F221F331F25
:101530004A95D2F7FC01EE0DFF1D8481802B11C06E
:1015400001E010E020E030E004C0000F111F221F76
:10155000331F4A95D2F70095FC01EE0DFF1D8481E3
:1015600080238483C62EC694C694C694D12C6770FB
:10157000B62E60E089819CDE00E010E0B394EC0EB2
:10158000FD1E84E0E80EF11C8B8190E0081719071E
:10159000C4F40C151D0541F42B2D41E06A818881AE
:1015A0001FD0F701208106C020E041E06A818881D8
:1015B00017D020E041E06A81888112D00F5F1F4F71
:1015C000E3CF60E0898174DE61E08981DF91CF91B2
:1015D0001F910F91FF90EF90DF90CF90BF9068CE5A
:1015E000BF92CF92DF92EF92FF920F931F93CF9310
:1015F000DF93C82ED62EB42EC7E0D0E0022F10E025
:1016000087E0E82EF12CB1100AC0F701EC1BFD0BAE
:10161000B80102C075956795EA95E2F707C0B80171
:101620000C2E02C0759567950A94E2F761707727D2
:101630008C2D3EDE61E08D2D3BDE60E08D2D38DEB1
:10164000219708F7DF91CF911F910F91FF90EF90B5
:10165000DF90CF90BF900895A1E21A2EAA1BBB1B6A
:10166000FD010DC0AA1FBB1FEE1FFF1FA217B3076E
:10167000E407F50720F0A21BB30BE40BF50B661F84
:10168000771F881F991F1A9469F760957095809548
:1016900090959B01AC01BD01CF010895EE0FFF1F96
:1016A0000590F491E02D0994CF93DF93823091055A
:1016B00010F482E090E0E0917D05F0917E0520E05D
:1016C00030E0A0E0B0E0309739F140815181481717
:1016D0005907B8F04817590771F482819381109720
:1016E00029F013969C938E9312972CC090937E05AD
:1016F00080937D0527C02115310531F0421753072E
:1017000018F0A901DB0101C0EF019A01BD01DF0161
:101710000280F381E02DD7CF21153105F9F0281B88
:10172000390B2430310580F48A819B816115710564
:1017300021F0FB019383828304C090937E05809304
:101740007D05FE01329644C0FE01E20FF31F819336
:10175000919322503109398328833AC020917B0527
:1017600030917C05232B41F420910201309103013B
:1017700030937C0520937B0520910001309101017D
:101780002115310541F42DB73EB740910401509128
:101790000501241B350BE0917B05F0917C05E217D8
:1017A000F307A0F42E1B3F0B2817390778F0AC0184
:1017B0004E5F5F4F2417350748F04E0F5F1F509361
:1017C0007C0540937B058193919302C0E0E0F0E0BB
:1017D000CF01DF91CF910895CF93DF93009709F464
:1017E00087C0FC01329713821282C0917D05D0918F
:1017F0007E05209781F420813181280F391F809147
:101800007B0590917C058217930779F5F0937C0511
:10181000E0937B056DC0DE0120E030E0AE17BF072E
:1018200050F412964D915C9113979D01411551050D
:1018300009F1DA01F3CFB383A28340815181840F90
:10184000951F8A179B0771F48D919C911197840FB6
:10185000951F02969183808312968D919C91139788
:10186000938382832115310529F4F0937E05E0935B
:101870007D053EC0D9011396FC93EE9312974D91CE
:101880005D91A40FB51FEA17FB0779F48081918160
:10189000840F951F0296D90111969C938E93828195
:1018A000938113969C938E931297E0E0F0E08A81E7
:1018B0009B81009719F0FE01EC01F9CFCE01029651
:1018C00028813981820F931F20917B0530917C05FF
:1018D0002817390769F4309729F410927E05109281
:1018E0007D0502C013821282D0937C05C0937B05D4
:0A18F000DF91CF910895F894FFCF27
:1018FA0000007F05800001000700010000000100D0
:10190A0000000100000001000000000000000000CB
:10191A0000000100000001000000010000000000BA
:10192A0000000000000000000000010000000000AC
:10193A00000000000000000000000100000000009C
:10194A000100010001000100000000000000000089
:10195A00000000000000000000000000000000007D
:10196A00000000000000000000000100010001006A
:10197A0001000100000000000000DD02080333033B
:10198A005D038703B003DB0306041F043F044C0412
:10199A00000000000000000000000000000000003D
:1019AA00000000000000000000000000000000002D
:1019BA00000000000000000000000000000000001D
:1019CA00000000000000000000000000000000000D
:1019DA0000000000000000000000000000000000FD
:1019EA0000000000000000000000000000000000ED
:1019FA0000000000000000000000000000000000DD
:101A0A0000000000000000000000000000000000CC
:101A1A0000000000000000000000000000000000BC
:101A2A0000000000000000000000000000000000AC
:101A3A00000000000000000000000000000000009C
:101A4A0001000100020002000300040005002878DA
:101A5A00312C7931292C2878322C7932293A2000F4
:101A6A002C0054616D616E686F20646F206E617620
:101A7A00696F20696E76616C69646F2E00506F73AE
:101A8A006963616F206D7569746F2070726F786910
:101A9A006D612061206F7574726120656D6261727B
:101AAA006361C3A7616F2E00506F736963616F2012
:101ABA00696E76616C6964612E00203D204167750C
:101ACA006100203D2041636572746F750044696747
:101ADA0069746520617320636F6F7264656E6461F7
:101AEA0064617320646F20486964726F617669610A
:101AFA006F203120283129004469676974652061A3
:101B0A007320636F6F7264656E64616461732064CD
:101B1A006F20486964726F617669616F203220288C
:101B2A0031290044696769746520617320636F6FA6
:101B3A007264656E646164617320646F20537562B8
:101B4A006D6172696E6F20312028322900446967FD
:101B5A0069746520617320636F6F7264656E646176
:101B6A0064617320646F205375626D6172696E6F70
:101B7A00203220283229004469676974652061731C
:101B8A0020636F6F7264656E646164617320646F51
:101B9A00204372757A61646F726573202833290055
:101BAA0044696769746520617320636F6F72646545
:101BBA006E646164617320646F20456E636F757231
:101BCA00616361646F73202834290044696769740A
:101BDA006520617320636F6F7264656E646164610E
:101BEA007320646F20506F7274612D6176696F651E
:101BFA00732028352900416775617264616E646FCC
:101C0A00204164766572736172696F2E2E2E0041CF
:101C1A006775617264616E646F204A6F676164619F
:101C2A0020646F206164766572736172696F004522
:101C3A006E766965206F207469726F0046696D203F
:101C4A006465204A6F676F2120566F63652050656F
:101C5A0072646575212100000000008005E7060412
:081C6A00051D050F055F0500D3
:00000001FF
