:1000000062C0000087C0000085C0000083C00000FF
:1000100081C000007FC000007DC000007BC00000E8
:1000200079C0000077C0000075C0000073C00000F8
:1000300071C000006FC000006DC000006BC0000008
:10004000D5C5000067C0000000C4000030C4000037
:1000500061C000005FC000005DC000005BC0000028
:1000600059C0000057C00000000000080002010055
:100070000003040700000000000000000102040863
:100080001020408001020408102001020408102002
:10009000040404040404040402020202020203032E
:1000A00003030303000000002300260029000000D2
:1000B0000000250028002B0000000000240027007D
:1000C0002A00DB02850411241FBECFEFD8E0DEBF7B
:1000D000CDBF12E0A0E0B1E0E6E4F2E102C005909D
:1000E0000D92A234B107D9F723E0A2E4B2E001C037
:1000F0001D92A43CB207E1F710E0C6ECD0E004C0CA
:100100002297FE010E941D09C23CD107C9F764D5A0
:100110000C94210975CFBC018EE193E091C4462F68
:1001200021E0682F8AEC92E0B9C726E040E855E26A
:1001300060E070E08EE193E028D360E088E04CD688
:1001400060E089E049D660E08AE046D68AEC92E039
:100150007FD761E08AEC92E015D7609144027091FC
:1001600045028091460290914702D9DF6091420298
:10017000709143028091000190910101D0CF462FF0
:1001800020E0682F8AEC92E089C7AF92BF92CF92AD
:10019000DF92EF92FF920F931F93CF93DF938C0127
:1001A0007B016A01E90183E0A82EB12CB701C801E7
:1001B000B6DFBE01C601B3DF62E370E080E090E02D
:1001C00082D5B701C801DBDFBE01C601D8DF62E31B
:1001D00070E080E090E077D581E0A81AB10831F7AF
:1001E000B701C8019CDFBE01C60199DF62E370E080
:1001F00080E090E0DF91CF911F910F91FF90EF9001
:10020000DF90CF90BF90AF905EC5AF92BF92DF926C
:10021000EF92FF920F931F93CF93DF931F92CDB76F
:10022000DEB72AE4A22E22E0B22ED12C38E000E084
:1002300010E07501E00EF11EF70120814D2D632FB6
:100240008AEC92E039832AD7F701608171814AE014
:1002500050E08EE193E0A2D40E5F1F4F39813F5FE3
:10026000303139F761E271E08EE193E0E9D3F0E1FA
:10027000AF0EB11CD39488E0D812D8CF0F90DF9185
:10028000CF911F910F91FF90EF90DF90BF90AF90B3
:100290000895CF93DF9389E00DD6019749F088E068
:1002A00009D6019729F08AE005D6019709F070C1B7
:1002B00089E000D6019709F052C0809146029091E2
:1002C0004702209100013091010160914402709138
:1002D00045028217930739F420914202309143027C
:1002E0006217730709F04BDF809146029091470235
:1002F0000196883091052CF4909347028093460232
:100300000DC01092470210924602809144029091D3
:1003100045020196909345028093440280914402E5
:1003200090914502089724F01092450210924402E1
:100330008091460290914702209100013091010185
:1003400060914402709145028217930739F420911D
:100350004202309143026217730709F0E0DE88E041
:10036000A9D5019709F052C0809100019091010137
:1003700020914602309147026091420270914302FF
:100380002817390739F42091440230914502261785
:10039000370709F0F4DE8091000190910101019688
:1003A000883091052CF490930101809300010DC0D9
:1003B000109201011092000180914202909143023B
:1003C0000196909343028093420280914202909161
:1003D0004302089724F01092430210924202809147
:1003E00000019091010120914602309147026091F5
:1003F0004202709143022817390739F420914402D0
:10040000309145022617370709F089DE60E171E077
:100410008EE193E0FBD260914602709147024AE080
:1004200050E08EE193E0BAD362E271E08EE193E0B6
:10043000EDD260914402709145024AE050E08EE1B5
:1004400093E0ACD362E271E08EE193E0DFD26091A1
:100450000001709101014AE050E08EE193E09ED3EB
:1004600062E271E08EE193E0D1D26091420270913C
:1004700043024AE050E08EE193E097D38AE01AD538
:10048000019709F07EC0809148029091490201963F
:100490009093490280934802209142023091430296
:1004A0004091000150910101609144027091450218
:1004B000809146029091470268DE40914602509139
:1004C0004702609100017091010180914402909176
:1004D0004502E0914202F09143024617570739F571
:1004E000BC01E817F9070CF4BF019B01A3E0220F40
:1004F000331FAA95E1F7240F351F220F331F265B08
:100500003D4F40E050E0C1E0D0E0DC018E179F0796
:100510000CF4DF01A617B7076CF0D901A40FB51FC3
:10052000CD93DC936F5F7F4F405F5F4FEECF8E17B1
:100530009F0711F06ADE25C09B01461757070CF490
:100540009A01E3E0880F991FEA95E1F7820F931F64
:10055000880F991F865B9D4FE0E0F0E0C1E0D0E09E
:10056000DB01641775070CF4DA01A217B30714F363
:10057000DC01AE0FBF1FCD93DC932F5F3F4F329650
:10058000EFCF64E670E080E090E0DF91CF919BC315
:10059000DF91CF910895E0914802F0914902E73050
:1005A000F10544F4EE0FFF1FEE5FFE4F8081918155
:1005B000B2DD6FCE08950F9302E026E045E064E0DF
:1005C0008AEC92E0A0D40F910895FC01818D228DD8
:1005D00090E0805C9F4F821B91098F73992708954B
:1005E000FC01918D828D981731F0828DE80FF11DFD
:1005F000858D90E008958FEF9FEF0895FC01918D18
:10060000828D981761F0828DDF01A80FB11D5D9674
:100610008C91928D9F5F9F73928F90E008958FEFE2
:100620009FEF08958CE794E0892B41F080E090E003
:10063000892B21F061D181110C9400000895FC01F7
:10064000848DDF01A80FB11DA35ABF4F2C91848D5B
:1006500090E001968F739927848FA689B7892C9390
:10066000A089B1898C9180648C93938D848D98132B
:1006700006C00288F389E02D80818F7D80830895F4
:10068000CF93DF93EC01888D8823C1F0EA89FB8941
:10069000808185FD05C0A889B9898C9186FD0EC031
:1006A0000FB607FCF5CF808185FFF2CFA889B98905
:1006B0008C9185FFEDCFCE01C2DFE8CFDF91CF91E6
:1006C0000895CF92DF92FF920F931F93CF93DF9302
:1006D0001F92CDB7DEB76C01DC015B969C915B97F6
:1006E0005C968C915C97981307C05096ED91FC91A5
:1006F0005197808185FD31C0F601038D10E00F5FB9
:100700001F4F0F731127F02EF601848DF81210C0C1
:100710000FB607FCF9CFD6015096ED91FC91519799
:10072000808185FFF1CFC601698389DF6981ECCFC4
:10073000838DE80FF11DE35AFF4F6083D6015B966E
:100740000C935B975296ED91FC9153978081806258
:10075000808381E058968C930DC0D6015696ED911A
:10076000FC91579760835096ED91FC915197808151
:100770008064808381E090E00F90DF91CF911F91A2
:100780000F91FF90DF90CF900895BF92CF92DF92AC
:10079000EF92FF92CF93DF93EC016A017B01B22EBF
:1007A000E889F98982E08083411581EE5807610567
:1007B000710599F060E079E08DE390E0A701960182
:1007C00018D521503109410951095695479537955A
:1007D0002795211580E1380790F0E889F989108282
:1007E00060E874E88EE190E0A701960102D52150FF
:1007F0003109410951095695479537952795EC855B
:10080000FD853083EE85FF852083188EEC89FD8978
:10081000B082EA89FB89808180618083EA89FB89D3
:10082000808188608083EA89FB89808180688083F9
:10083000EA89FB8980818F7D8083DF91CF91FF9052
:10084000EF90DF90CF90BF9008951F920F920FB658
:100850000F9211242F938F939F93EF93FF93E09127
:100860002E03F0912F038081E0913403F091350342
:1008700082FD12C09081809137038F5F8F7320912A
:100880003803821751F0E0913703F0E0E25EFC4F4D
:10089000958F8093370301C08081FF91EF919F91E5
:1008A0008F912F910F900FBE0F901F9018951F9250
:1008B0000F920FB60F9211242F933F934F935F9394
:1008C0006F937F938F939F93AF93BF93EF93FF9318
:1008D0008EE193E0B4DEFF91EF91BF91AF919F91D4
:1008E0008F917F916F915F914F913F912F910F90D9
:1008F0000FBE0F901F9018958EE193E066DE21E009
:10090000892B09F420E0822F089510922103109280
:10091000200388EE93E0A0E0B0E080932203909360
:100920002303A0932403B093250385E392E09093DF
:100930001F0380931E0385EC90E090932B0380931C
:100940002A0384EC90E090932D0380932C0380EC99
:1009500090E090932F0380932E0381EC90E090938E
:1009600031038093300382EC90E0909333038093C3
:10097000320386EC90E09093350380933403109219
:100980003703109238031092390310923A030895F6
:10099000CF92DF92EF92FF920F931F93CF93DF934B
:1009A0006C017A01EB01E60EF71E00E010E0CE15B7
:1009B000DF0561F06991D601ED91FC910190F08124
:1009C000E02DC6010995080F191FF1CFC801DF916D
:1009D000CF911F910F91FF90EF90DF90CF900895EE
:1009E0006115710581F0DB010D900020E9F7AD0183
:1009F00041505109461B570BDC01ED91FC910280DF
:100A0000F381E02D099480E090E00895E9CFDC01C6
:100A1000ED91FC910190F081E02D09940F931F93CB
:100A2000CF93DF93EC016DE0F2DF8C016AE0CE0141
:100A3000EEDF800F911FDF91CF911F910F910895ED
:100A40000F931F93CF93DF93EC01CADF8C01CE018C
:100A5000E5DF800F911FDF91CF911F910F910895D6
:100A60008F929F92AF92BF92CF92DF92EF92FF92BE
:100A70000F931F93CF93DF93CDB7DEB7A1970FB638
:100A8000F894DEBF0FBECDBF7C01C42EE52FCB0195
:100A9000D22E19A221E02D1510F02AE0D22E8E01BF
:100AA0000F5D1F4F8D2C912CA12CB12C6C2D7E2F06
:100AB000A50194019ED38C2DD29E80191124015042
:100AC00011098A3014F4805D01C0895CF8018083CB
:100AD000211531054105510521F0C22EE32FCA0130
:100AE000E5CFB801C7017CDFA1960FB6F894DEBF51
:100AF0000FBECDBFDF91CF911F910F91FF90EF906F
:100B0000DF90CF90BF90AF909F908F900895CF923D
:100B1000DF92EF92FF920F931F93CF93DF93EC013D
:100B20006A017B012115310579F4E881F981019091
:100B3000F081E02D642FDF91CF911F910F91FF90F5
:100B4000EF90DF90CF9009942A303105D9F477FFE8
:100B500018C06DE25CDF8C0144275527BA014C199F
:100B60005D096E097F092AE0CE017ADF800F911FAF
:100B7000DF91CF911F910F91FF90EF90DF90CF9079
:100B800008952AE0B701A601CE01DF91CF911F9110
:100B90000F91FF90EF90DF90CF9062CF9A01AB0161
:100BA000662757FD6095762FB2CF0F931F93CF9393
:100BB000DF93EC019A01AB01662757FD6095762F14
:100BC000A6DF8C01CE012ADF800F911FDF91CF912C
:100BD0001F910F91089508959BD0FDDFA6DAC2E121
:100BE000D3E0D9DC2097E9F31DDDFBCF1F920F92F4
:100BF0000FB60F9211242F933F938F939F93AF9330
:100C0000BF938091BC039091BD03A091BE03B091AE
:100C1000BF033091BB0323E0230F2D3720F401964F
:100C2000A11DB11D05C026E8230F0296A11DB11D0F
:100C30002093BB038093BC039093BD03A093BE039A
:100C4000B093BF038091C0039091C103A091C203F0
:100C5000B091C3030196A11DB11D8093C003909371
:100C6000C103A093C203B093C303BF91AF919F91FF
:100C70008F913F912F910F900FBE0F901F9018955D
:100C80003FB7F8948091C0039091C103A091C20333
:100C9000B091C30326B5A89B05C02F3F19F001965C
:100CA000A11DB11D3FBF6627782F892F9A2F620F94
:100CB000711D811D911D42E0660F771F881F991FCE
:100CC0004A95D1F70895CF92DF92EF92FF92CF939A
:100CD000DF936B017C01D4DFEB01C114D104E1048B
:100CE000F10479F00FD1CCDF6C1B7D0B683E7340B3
:100CF000A0F381E0C81AD108E108F108C851DC4F1F
:100D0000ECCFDF91CF91FF90EF90DF90CF900895DF
:100D1000789484B5826084BD84B5816084BD85B5D6
:100D2000826085BD85B5816085BDEEE6F0E080819D
:100D300081608083E1E8F0E01082808182608083BE
:100D4000808181608083E0E8F0E080818160808341
:100D5000E1EBF0E0808184608083E0EBF0E0808173
:100D600081608083EAE7F0E0808184608083808115
:100D700082608083808181608083808180688083BD
:100D80001092C1000895833081F028F4813099F0E9
:100D90008230A1F008958730A9F08830B9F084300E
:100DA000D1F4809180008F7D03C0809180008F7787
:100DB00080938000089584B58F7702C084B58F7DBD
:100DC00084BD08958091B0008F7703C08091B000FA
:100DD0008F7D8093B0000895CF93DF9390E0FC0166
:100DE000E458FF4F2491FC01E057FF4F8491882382
:100DF00049F190E0880F991FFC01E854FF4FA5913D
:100E0000B49182559F4FFC01C591D4919FB7611158
:100E100008C0F8948C91209582238C93888182233A
:100E20000AC0623051F4F8948C91322F30958323AC
:100E30008C938881822B888304C0F8948C91822BB8
:100E40008C939FBFDF91CF9108950F931F93CF9302
:100E5000DF931F92CDB7DEB7282F30E0F901E859B4
:100E6000FF4F8491F901E458FF4F1491F901E057C5
:100E7000FF4F04910023C1F0882319F0698383DFB9
:100E80006981E02FF0E0EE0FFF1FE255FF4FA591C3
:100E9000B4919FB7F8948C91611103C01095812390
:100EA00001C0812B8C939FBF0F90DF91CF911F9139
:100EB0000F910895CF93DF93282F30E0F901E8597F
:100EC000FF4F8491F901E458FF4FD491F901E057A5
:100ED000FF4FC491CC2389F0811155DFEC2FF0E056
:100EE000EE0FFF1FEC55FF4FA591B4912C912D23D0
:100EF00081E090E021F480E002C080E090E0DF91AA
:100F0000CF91089508950F93FC016083418322835C
:100F1000038380E090E0DF01A80FB91F14961C92B4
:100F2000019680359105B9F70F910895EF92FF92E0
:100F30000F931F93CF93DF93EC01F62EE42E60E026
:100F4000898183DF00E010E08B8190E008171907AA
:100F50006CF42F2D41E06A8188810FD12E2D41E064
:100F60006A8188810AD10F5F1F4FEECF60E08981CF
:100F70006CDF61E08981DF91CF911F910F91FF902C
:100F8000EF9063CF462F6AE0D1CF8F929F92AF92BE
:100F9000BF92CF92DF92EF92FF920F931F93CF9366
:100FA000DF93EC01B62E942E60E089814EDFCB2CCE
:100FB000D12CE12CF12C00E010E0882483948B0CE0
:100FC0005E01AC18BD08EC0CFD1C8B8190E008178D
:100FD00019078CF4282D41E06A818881CED0292D13
:100FE00041E06A818881C9D0F501EE0DFF1D948230
:100FF0000F5F1F4FE8CF60E0898127DF61E08981C3
:10100000DF91CF911F910F91FF90EF90DF90CF90E4
:10101000BF90AF909F908F9018CF1F93CF93DF9387
:10102000EC0110E040E0612FCE01AFDF1F5F183010
:10103000C9F720E030E0FE01E20FF31F14822F5FBA
:101040003F4F20353105B9F7DF91CF911F910895BA
:10105000CF93DF93EC0161E08881BEDE61E08A819D
:10106000BBDE61E08981B8DE61E08A81EEDE47E0C7
:101070006BE0CE015BDF40E069E0CE0157DF41E08D
:101080006CE0CE0153DF40E06FE0CE014FDFCE01D8
:10109000C4DF6FE0CE01DF91CF9174CFBF92CF92CA
:1010A000DF92EF92FF920F931F93CF93DF93EC01A8
:1010B000E62EF12C222389F001E010E020E030E060
:1010C00004C0000F111F221F331F4A95D2F7FC01E5
:1010D000EE0DFF1D8481802B11C001E010E020E0A7
:1010E00030E004C0000F111F221F331F4A95D2F7B2
:1010F0000095FC01EE0DFF1D848180238483C62EA4
:10110000C694C694C694D12C6770B62E60E08981CF
:101110009CDE00E010E0B394EC0EFD1E84E0E80ECF
:10112000F11C8B8190E008171907C4F40C151D05FC
:1011300041F42B2D41E06A8188811FD0F701208185
:1011400006C020E041E06A81888117D020E041E0BC
:101150006A81888112D00F5F1F4FE3CF60E08981E1
:1011600074DE61E08981DF91CF911F910F91FF9033
:10117000EF90DF90CF90BF9068CEBF92CF92DF927A
:10118000EF92FF920F931F93CF93DF93C82ED62E2B
:10119000B42EC7E0D0E0022F10E087E0E82EF12C5B
:1011A000B1100AC0F701EC1BFD0BB80102C0759528
:1011B0006795EA95E2F707C0B8010C2E02C0759555
:1011C00067950A94E2F7617077278C2D3EDE61E027
:1011D0008D2D3BDE60E08D2D38DE219708F7DF9105
:1011E000CF911F910F91FF90EF90DF90CF90BF9024
:1011F0000895A1E21A2EAA1BBB1BFD010DC0AA1F58
:10120000BB1FEE1FFF1FA217B307E407F50720F06F
:10121000A21BB30BE40BF50B661F771F881F991FEA
:101220001A9469F760957095809590959B01AC0133
:10123000BD01CF010895EE0FFF1F0590F491E02D41
:061240000994F894FFCFB1
:10124600020024014B0172019801BE01E3010A026A
:101256002878312C7931292C2878322C7932293A80
:1012660020002C0044696769746520617320636FF0
:101276006F7264656E646164617320646F2048698F
:1012860064726F617669616F2031004469676974C1
:101296006520617320636F6F7264656E646164615B
:1012A6007320646F20486964726F617669616F208C
:1012B600320044696769746520617320636F6F72D9
:1012C60064656E646164617320646F205375626D3A
:1012D6006172696E6F2031004469676974652061C7
:1012E6007320636F6F7264656E64616461732064FA
:1012F6006F205375626D6172696E6F2032004469AA
:101306006769746520617320636F6F7264656E64CC
:101316006164617320646F204372757A61646F72D1
:1013260065730044696769746520617320636F6F34
:101336007264656E646164617320646F20456E63D8
:101346006F7572616361646F730044696769746580
:1013560020617320636F6F7264656E64616461738C
:1013660020646F20506F7274612D6176696F6573AA
:1013760000000000006103C804E502FE02F002401E
:02138600030062
:00000001FF
