:1000000063C0000089C0000087C0000085C00000F8
:1000100083C0000081C000007FC000007DC00000E0
:100020007BC0000079C0000077C0000075C00000F0
:1000300073C0000071C000006FC000006DC0000000
:100040000C94210B69C00000F8C700000C944F0805
:1000500063C0000061C000005FC000005DC0000020
:100060005BC0000059C00000000000080002010051
:100070000003040700000000000000000102040863
:100080001020408001020408102001020408102002
:10009000040404040404040402020202020203032E
:1000A00003030303000000002300260029000000D2
:1000B0000000250028002B0000000000240027007D
:1000C0002A00CC067D08DA0611241FBECFEFD8E047
:1000D000DEBFCDBF15E0A0E0B1E0ECE8F1E202C088
:1000E00005900D92A238B107D9F726E0A2E8B5E055
:1000F00001C01D92A738B207E1F710E0C6ECD0E0CE
:1001000004C02297FE010E94480EC23CD107C9F7E5
:100110000E94160B0C94BA1073CFBC018DED95E0C4
:100120000C943609242F462F682F89E895E00C940B
:10013000790D26E040E855E260E070E08DED95E055
:100140001CD760E088E00E94170C60E089E00E9404
:10015000170C60E08AE00E94170C61E083E00E94C7
:10016000170C61E082E00E94170C60E08BE00E94B7
:10017000170C89E895E00E94530D61E089E895E04D
:100180000E94ED0C60910C0170910D0141E050E076
:1001900080910E0190910F01C5DF6091080170916F
:1001A000090141E050E080910A0190910B01BACF22
:1001B000EF92FF920F931F93CF93DF93F82E8B0153
:1001C000E42EC0E0D0E0C017D10739F02E2D4C2F1F
:1001D0006F2D89E895E00E94790D64E170E080E080
:1001E00090E00E948E0B2196C830D10561F7DF9117
:1001F000CF911F910F91FF90EF900895EF92FF9292
:100200000F931F93CF93DF93F82E8B01E42EC0E062
:10021000D0E0C017D10739F02E2D4F2D6C2F89E873
:1002200095E00E94790D64E170E080E090E00E942A
:100230008E0B2196C830D10561F7DF91CF911F91C8
:100240000F91FF90EF900895AF92BF92CF92DF92FF
:10025000EF92FF920F931F93CF93DF937C016B017B
:10026000EA01890193E0A92EB12C41E050E0B601EA
:10027000C70158DF41E050E0B801CE0153DF62E32F
:1002800070E080E090E00E948E0B40E050E0B6010C
:10029000C70148DF40E050E0B801CE0143DF62E330
:1002A00070E080E090E00E948E0B81E0A81AB10817
:1002B000E1F641E050E0B601C70134DF41E050E033
:1002C000B801CE012FDF62E370E080E090E0DF91C3
:1002D000CF911F910F91FF90EF90DF90CF90BF9043
:1002E000AF900C948E0BEF92FF920F931F93CF93CE
:1002F000DF93EC018B0123E0E22EF12C41E050E092
:10030000B801CE010FDF62E370E080E090E00E9470
:100310008E0B40E050E0B801CE0104DF62E370E0F4
:1003200080E090E00E948E0B81E0E81AF10831F73E
:1003300041E050E0B801CE01F5DE62E370E080E01C
:1003400090E0DF91CF911F910F91FF90EF900C946F
:100350008E0BCF92DF92EF92FF920F931F93CF936A
:10036000DF938C01EB017A016901FC0180819181AD
:10037000688179818417950719F46217730719F05A
:1003800040E050E0CFDEF801808191810196883015
:1003900091051CF49183808308C0F80111821082BA
:1003A00088819981019699838883888199810897AA
:1003B00014F01982188264E670E080E090E00E94F8
:1003C0008E0BF80180819181688179818E159F055E
:1003D00019F46C157D0559F041E050E0DF91CF91A3
:1003E0001F910F91FF90EF90DF90CF909BCEDF9108
:1003F000CF911F910F91FF90EF90DF90CF900895D4
:100400000F931F93CF93DF93EC018B0140E050E0FB
:1004100088819981CDDE8881998101968830910506
:100420001CF49983888302C01982188241E050E04D
:10043000B80188819981DF91CF911F910F91B8CE3A
:100440000F931F93CF93DF93EC018B0140E050E0BB
:1004500088819981D3DE88819981019688309105C0
:100460001CF49983888302C01982188241E050E00D
:10047000B80188819981DF91CF911F910F91BECEF4
:10048000AF92BF92CF92DF92EF92FF920F931F93A2
:10049000CF93DF9300EA11E040E2E42E41E0F42E36
:1004A000B12C38E0A32EC0E0D0E06801CC0EDD1EF8
:1004B000F60120814B2D6A2D89E895E00E94790D87
:1004C00080918205882381F0F601608171814AE084
:1004D00050E08DED95E078D7F701EC0FFD1F6081BE
:1004E00071818DED95E098D62296A394F0E1AF123C
:1004F000DCCF80918205882329F067E073E08DEDE1
:1005000095E0B4D6005F1F4FB39480E1E80EF11C74
:10051000E8E0BE12C6CFDF91CF911F910F91FF90FF
:10052000EF90DF90CF90BF90AF90089580918205BB
:10053000882309F438C066EF72E08DED95E06CD643
:1005400060910E0170910F014AE050E08DED95E051
:100550003BD768E073E08DED95E05ED660910C01CD
:1005600070910D014AE050E08DED95E02DD768E0E7
:1005700073E08DED95E050D660910A0170910B010A
:100580004AE050E08DED95E01FD768E073E08DED17
:1005900095E042D660910801709109014AE050E06F
:1005A0008DED95E018C708958F929F92AF92BF92FC
:1005B000CF92DF92EF92FF920F931F93CF93DF932F
:1005C000E0910E01F0910F0160910A0170910B0111
:1005D000209108013091090180910C0190910D0149
:1005E000E617F70709F07AC0A0902002B090210228
:1005F0007501EE0CFF1CD701A851BD4F0D90BC91A9
:10060000A02D821793072CF0AC012817390724F08E
:1006100001C0A901BC0101C0B901461B570B4F5FC6
:100620005F4FA417B50719F06AE073E0CAC0AC01C8
:10063000281739070CF4A901DA011197BA0113E060
:10064000660F771F1A95E1F76E0F7F1F660F771FF2
:10065000FB01E056FE4F4F01C0E0D0E0FC018217E5
:1006600093070CF4F9016F011FEFC11AD10ACA16E2
:10067000DB067CF06096F401EC0FFD1FB097019053
:10068000F081E02D319719F465E273E09AC011967C
:10069000E5CF605E7E4F80E090E021E030E0D70162
:1006A000AE5EBE4FE417F5078CF0E401C80FD91F0A
:1006B00039832883EB01C80FD91FED90FC90119767
:1006C000F982E8824F5F5F4F4096ECCF8FEFA81A18
:1006D000B80AB0922102A092200282C0821793072A
:1006E00009F06DC0A0912002B0912102AB016E17FC
:1006F0007F070CF4AF019B01E617F7070CF49F018D
:100700008D01000F111FF801E851FD4FBA01621B66
:10071000730B6F5F7F4F0190F081E02DE617F707B5
:1007200009F082CFB90161507109F3E0880F991F78
:10073000FA95E1F7820F931F880F991FFC01E0568D
:10074000FE4F7F01E0E0F0E06A01CFEFCC1ADC0A57
:10075000C616D70674F03296E701CE0FDF1F249736
:100760000990D881C02D219709F48ECF6F5F7F4FFC
:10077000EFCF805E9E4F60E070E0AA24A394B12C7E
:10078000E801CE5EDE4F421753079CF08701060F4B
:10079000171FF801B182A0828C01060F171FC880B5
:1007A000D980F801D182C0822F5F3F4F6E5F7F4FAB
:1007B000EACF1196B0932102A093200211C060E508
:1007C00073E08DED95E0DF91CF911F910F91FF9038
:1007D000EF90DF90CF90BF90AF909F908F9046C5E5
:1007E000DF91CF911F910F91FF90EF90DF90CF900D
:1007F000BF90AF909F908F90089589E00E94850CE4
:10080000019759F088E00E94850C019731F08AE049
:100810000E94850C019709F03EC089E00E94850C7A
:10082000019771F4209108013091090140910A016A
:1008300050910B016CE071E08EE091E08ADD76DE94
:1008400088E00E94850C019771F420910C01309191
:100850000D0140910E0150910F0168E071E08AE0B6
:1008600091E077DD63DE8AE00E94850C019799F4C0
:10087000209108013091090140910A0150910B012A
:1008800060910C0170910D0180910E0190910F010A
:10089000DBDC8ADEF5CD089561E082E00E94500C39
:1008A00060ED77E080E090E039D760E082E0F8C763
:1008B00061E082E0F5D764EF71E080E090E02ED750
:1008C00060E082E0EDD764EF71E080E090E026D751
:1008D00061E082E0E5D768EE73E080E090E01ED74B
:1008E00060E082E0DDD764EF71E080E090E016C761
:1008F00061E083E0D5D768EC70E080E090E00ED74F
:1009000060E083E0CDD768EC70E080E090E006D74F
:1009100061E083E0C5D768EC70E080E090E0FED64F
:1009200060E083E0BDD768EC70E080E090E0F6D650
:1009300062E673E08DED95E06FD463E875E08DEDD0
:1009400095E084C46F927F928F929F92AF92BF92F4
:10095000CF92DF92EF92FF920F931F93CF93DF938B
:10096000CDB7DEB7A4970FB6F894DEBF0FBECDBFEC
:1009700067E073E0CE014F96ABD567E073E083E8A4
:1009800095E0D8D560910C0170910D014AE0CE013F
:100990000196E6D568E073E0CE01079699D560919F
:1009A0000E0170910F014AE0CE014396D9D562EB5A
:1009B00073E0CE010D968CD5BE016D5E7F4FCE01EA
:1009C0000D9622D6BE01695F7F4F1ED6BE016F5FB6
:1009D0007F4F1AD6BC018DED95E038D4CE010D962F
:1009E00010D5CE0143960DD5CE0107960AD5CE017E
:1009F000019607D550E2A52E51E0B52E60EA862E6D
:100A000061E0962EC12CD12CE12CF12C00E010E0FD
:100A100080910E0190910F01C816D90609F0DAC035
:100A200080910C0190910D010817190709F0D2C0AF
:100A3000F401EE0DFF1D80819181118210820197DA
:100A400009F08AC080910601909107010197909367
:100A500007018093060135016E0C7F1CF301808134
:100A60009181F3E0833C9F0791F023E0853C92075E
:100A700089F0E3E0873C9E0781F0F3E0893C9F0723
:100A800079F08B5C934079F466EA73E00EC061E81C
:100A900073E00BC067E773E008C06CE873E005C063
:100AA00065E973E002C061EA73E0CE01499610D5B2
:100AB0006DEC73E0CE0101960BD5BE01675E7F4FF2
:100AC000CE010196A1D5BC01CE014F9616D5CE011F
:100AD000019697D4F30160817181CE010196F8D41B
:100AE00060910C0170910D014AE0CE010D9638D550
:100AF00060910E0170910F014AE0CE01439630D50E
:100B0000BE016D5E7F4FCE0107960CD5BE01635FBF
:100B10007F4FCE01079678D5BE016F5F7F4F74D5AA
:100B2000BC0183E895E0E9D4CE0107966AD4CE01F2
:100B3000439667D4CE010D9664D4CE01019661D45C
:100B4000B7DED6DEBE01615E7F4F8DED95E07ED3D0
:100B5000CE01499656D43EC09FDE6091100170913F
:100B60001101CE010196B4D460910C0170910D0178
:100B70004AE0CE010D96F4D460910E0170910F0100
:100B80004AE0CE014396ECD4BE016D5E7F4FCE01AC
:100B90000796C8D4BE01635F7F4FCE01079634D558
:100BA000BE016F5F7F4F30D5BC0183E895E0A5D4CF
:100BB000CE01079626D4CE01439623D4CE010D96BE
:100BC00020D4CE0101961DD493DE66ED73E08DED49
:100BD00095E04CD30F5F1F4FF0E1EF0EF11C083092
:100BE000110509F015CF2FEFC21AD20A82E0A80E24
:100BF000B11CE2E08E0E911CF8E0CF16D10409F092
:100C000003CFCE014F96FDD3A4960FB6F894DEBF66
:100C10000FBECDBFDF91CF911F910F91FF90EF904D
:100C2000DF90CF90BF90AF909F908F907F906F900C
:100C3000089589E06AD6019741F088E066D6019769
:100C400021F08AE062D6019739F589E05ED60197F6
:100C500041F460910C0170910D018EE091E0D0DBC8
:100C600065DC88E052D6019741F460910E017091E5
:100C70000F018CE091E0E4DB59DC8AE046D6019775
:100C800059F460910C0170910D0180910E019091C9
:100C90000F0129DB57DEF4CB0895CF93DF938091CA
:100CA00020029091210287309105FCF4FC01EE0FA7
:100CB000FF1FEE5DFD4F808191812FDA8091200230
:100CC0009091210207970CF064C089E01ED6892B11
:100CD00009F05BC088E019D6892B09F056C08AE07C
:100CE00014D6892B09F051C0F0CF8730910509F057
:100CF0003CC080913002909131020FDACAE0D0E01E
:100D00008091200290912102079709F042C06091E2
:100D10000C0170910D0141E050E080910E01909125
:100D20000F0146DA60910E0170910F0141E050E031
:100D300080910C0190910D0161DA809106019091F2
:100D40000701892B21F4D0932102C093200298DB64
:100D500089E0DBD5892BD9F488E0D7D5892BB9F484
:100D60008AE0D3D5892B99F4F3CF0A9739F480918F
:100D7000360290913702DF91CF91CFC96CED73E0CD
:100D80008DED95E0DF91CF9171C237DD97CF51DFC7
:100D9000B7CFDF91CF9108950F9302E026E045E0B1
:100DA00064E089E895E0DAD567E073E083E895E0F0
:100DB0000F918EC383E895E024C3FC01818D228DC1
:100DC00090E0805C9F4F821B91098F739927089553
:100DD000FC01918D828D981731F0828DE80FF11D05
:100DE000858D90E008958FEF9FEF0895FC01918D20
:100DF000828D981761F0828DDF01A80FB11D5D967D
:100E00008C91928D9F5F9F73928F90E008958FEFEA
:100E10009FEF089584E798E0892B41F080E090E00F
:100E2000892B21F061D181110C9400000895FC01FF
:100E3000848DDF01A80FB11DA35ABF4F2C91848D63
:100E400090E001968F739927848FA689B7892C9398
:100E5000A089B1898C9180648C93938D848D981333
:100E600006C00288F389E02D80818F7D80830895FC
:100E7000CF93DF93EC01888D8823C1F0EA89FB8949
:100E8000808185FD05C0A889B9898C9186FD0EC039
:100E90000FB607FCF5CF808185FFF2CFA889B9890D
:100EA0008C9185FFEDCFCE01C2DFE8CFDF91CF91EE
:100EB0000895CF92DF92FF920F931F93CF93DF930A
:100EC0001F92CDB7DEB76C01DC015B969C915B97FE
:100ED0005C968C915C97981307C05096ED91FC91AD
:100EE0005197808185FD31C0F601038D10E00F5FC1
:100EF0001F4F0F731127F02EF601848DF81210C0CA
:100F00000FB607FCF9CFD6015096ED91FC915197A1
:100F1000808185FFF1CFC601698389DF6981ECCFCC
:100F2000838DE80FF11DE35AFF4F6083D6015B9676
:100F30000C935B975296ED91FC9153978081806260
:100F4000808381E058968C930DC0D6015696ED9122
:100F5000FC91579760835096ED91FC915197808159
:100F60008064808381E090E00F90DF91CF911F91AA
:100F70000F91FF90DF90CF900895BF92CF92DF92B4
:100F8000EF92FF92CF93DF93EC016A017B01B22EC7
:100F9000E889F98982E08083411581EE580761056F
:100FA000710599F060E079E08DE390E0A70196018A
:100FB0004BD621503109410951095695479537952E
:100FC0002795211580E1380790F0E889F98910828A
:100FD00060E874E88EE190E0A701960135D62150D3
:100FE0003109410951095695479537952795EC8563
:100FF000FD853083EE85FF852083188EEC89FD8981
:10100000B082EA89FB89808180618083EA89FB89DB
:10101000808188608083EA89FB8980818068808301
:10102000EA89FB8980818F7D8083DF91CF91FF905A
:10103000EF90DF90CF90BF9008951F920F920FB660
:101040000F9211242F938F939F93EF93FF93E0912F
:10105000ED05F091EE058081E091F305F091F40546
:1010600082FD12C090818091F6058F5F8F73209171
:10107000F705821751F0E091F605F0E0E352FA4FE0
:10108000958F8093F60501C08081FF91EF919F912C
:101090008F912F910F900FBE0F901F9018951F9258
:1010A0000F920FB60F9211242F933F934F935F939C
:1010B0006F937F938F939F93AF93BF93EF93FF9320
:1010C0008DED95E0B4DEFF91EF91BF91AF919F91CF
:1010D0008F917F916F915F914F913F912F910F90E1
:1010E0000FBE0F901F9018958DED95E066DE21E004
:1010F000892B09F420E0822F08951092E0051092C8
:10110000DF0588EE93E0A0E0B0E08093E1059093E6
:10111000E205A093E305B093E40585E795E090939D
:10112000DE058093DD0585EC90E09093EA058093E1
:10113000E90584EC90E09093EC058093EB0580EC5E
:1011400090E09093EE058093ED0581EC90E0909314
:10115000F0058093EF0582EC90E09093F205809388
:10116000F10586EC90E09093F4058093F3051092DE
:10117000F6051092F7051092F8051092F9050895FA
:10118000CF92DF92EF92FF920F931F93CF93DF9353
:101190006C017A01EB01E60EF71E00E010E0CE15BF
:1011A000DF0561F06991D601ED91FC910190F0812C
:1011B000E02DC6010995080F191FF1CFC801DF9175
:1011C000CF911F910F91FF90EF90DF90CF900895F6
:1011D0006115710581F0DB010D900020E9F7AD018B
:1011E00041505109461B570BDC01ED91FC910280E7
:1011F000F381E02D099480E090E00895DC01ED9109
:10120000FC91DB0114964D915C9115976D917C9149
:101210000280F381E02D0994DBCFDC01ED91FC919C
:101220000190F081E02D09940F931F93CF93DF93EA
:10123000EC016DE0F2DF8C016AE0CE01EEDF800FA1
:10124000911FDF91CF911F910F9108950F931F93DD
:10125000CF93DF93EC01D2DF8C01CE01E5DF800F6D
:10126000911FDF91CF911F910F9108950F931F93BD
:10127000CF93DF93EC01ACDF8C01CE01D5DF800F83
:10128000911FDF91CF911F910F9108958F929F929F
:10129000AF92BF92CF92DF92EF92FF920F931F9384
:1012A000CF93DF93CDB7DEB7A1970FB6F894DEBF2B
:1012B0000FBECDBF7C01C42EE52FCB01D22E19A2CB
:1012C00021E02D1510F02AE0D22E8E010F5D1F4F68
:1012D0008D2C912CA12CB12C6C2D7E2FA50194016D
:1012E000B3D48C2DD29E80191124015011098A305B
:1012F00014F4805D01C0895CF801808321153105FB
:101300004105510521F0C22EE32FCA01E5CFB801F6
:10131000C7015EDFA1960FB6F894DEBF0FBECDBF4A
:10132000DF91CF911F910F91FF90EF90DF90CF90C1
:10133000BF90AF909F908F900895CF92DF92EF92E1
:10134000FF920F931F93CF93DF93EC016A017B0110
:101350002115310579F4E881F9810190F081E02DC2
:10136000642FDF91CF911F910F91FF90EF90DF904D
:10137000CF9009942A303105D9F477FF18C06DE277
:101380004CDF8C0144275527BA014C195D096E09C1
:101390007F092AE0CE017ADF800F911FDF91CF9184
:1013A0001F910F91FF90EF90DF90CF9008952AE06A
:1013B000B701A601CE01DF91CF911F910F91FF9050
:1013C000EF90DF90CF9062CF9A01AB01662757FD77
:1013D0006095762FB2CF0F931F93CF93DF93EC01DD
:1013E0009A01AB01662757FD6095762FA6DF8C0129
:1013F000CE011ADF800F911FDF91CF911F910F91C6
:101400000895FC0180819181DFC4CF93DF93EC01CB
:1014100088819981009709F0D7D4198218821D829A
:101420001C821B821A82DF91CF9108950F931F9324
:10143000CF93DF93EC018B016F5F7F4F88819981A0
:1014400052D5009731F0998388831B830A8381E00A
:1014500001C080E0DF91CF911F910F910895CF934C
:10146000DF93EC0188819981892B29F08A819B8106
:101470008617970758F4CE01D9DF882341F08C8175
:101480009D81892B19F4E881F981108281E0DF9137
:10149000CF910895EF92FF920F931F93CF93DF9315
:1014A000EC017B018A01BA01DADF811103C0CE01B0
:1014B000ACDF06C01D830C83B70188819981DFD51D
:1014C000CE01DF91CF911F910F91FF90EF90089582
:1014D000FC0111821082138212821582148261151E
:1014E000710551F0FB0101900020E9F7AF01415077
:1014F0005109461B570BCECF0895CF93DF93EC01D4
:10150000FB018617970751F06081718161157105A4
:1015100021F044815581BEDF01C077DFCE01DF912C
:10152000CF910895FC0111821082138212821582DC
:101530001482E3CFCF93DF93EC016115710559F06D
:10154000FB0101900020E9F7AF0141505109461B12
:10155000570BA0DF01C059DFCE01DF91CF91089575
:101560000F931F93CF93DF93CDB7DEB762970FB67C
:10157000F894DEBF0FBECDBF8C01CB01F801118204
:101580001082138212821582148250E0BE016F5FB6
:101590007F4F7CD5BE016F5F7F4FC801CBDF629666
:1015A0000FB6F894DEBF0FBECDBFDF91CF911F9174
:1015B0000F910895EF92FF920F931F93CF93DF93B4
:1015C000EC017B010C811D816115710511F480E036
:1015D00014C04115510581F0040F151FB8013FDFFC
:1015E0008823A9F3288139818C819D81B701820FDD
:1015F000931F45D51D830C8381E0DF91CF911F910F
:101600000F91FF90EF900895CF93DF93EC01FB01D2
:101610004481558160817181CDDF811102C0CE018D
:10162000F4DECE01DF91CF91089508959CD0FDDFC7
:101630000E949900CAE0D7E030DB2097E9F3EADBAB
:10164000FBCF1F920F920FB60F9211242F933F934F
:101650008F939F93AF93BF9380917B0690917C066D
:10166000A0917D06B0917E0630917A0623E0230F8B
:101670002D3720F40196A11DB11D05C026E8230FCA
:101680000296A11DB11D20937A0680937B0690934C
:101690007C06A0937D06B0937E0680917F06909194
:1016A0008006A0918106B09182060196A11DB11D10
:1016B00080937F0690938006A0938106B093820664
:1016C000BF91AF919F918F913F912F910F900FBE3E
:1016D0000F901F9018953FB7F89480917F069091D6
:1016E0008006A0918106B091820626B5A89B05C010
:1016F0002F3F19F00196A11DB11D3FBF6627782F1E
:10170000892F9A2F620F711D811D911D42E0660F76
:10171000771F881F991F4A95D1F70895CF92DF92BE
:10172000EF92FF92CF93DF936B017C01D4DFEB014B
:10173000C114D104E104F10479F00FD1CCDF6C1BAA
:101740007D0B683E7340A0F381E0C81AD108E10820
:10175000F108C851DC4FECCFDF91CF91FF90EF90B3
:10176000DF90CF900895789484B5826084BD84B56D
:10177000816084BD85B5826085BD85B5816085BD8C
:10178000EEE6F0E0808181608083E1E8F0E01082A5
:10179000808182608083808181608083E0E8F0E0E6
:1017A000808181608083E1EBF0E0808184608083D0
:1017B000E0EBF0E0808181608083EAE7F0E0808107
:1017C0008460808380818260808380818160808367
:1017D0008081806880831092C1000895833081F0F9
:1017E00028F4813099F08230A1F008958730A9F073
:1017F0008830B9F08430D1F4809180008F7D03C0AF
:10180000809180008F7780938000089584B58F77D2
:1018100002C084B58F7D84BD08958091B0008F771C
:1018200003C08091B0008F7D8093B0000895CF9366
:10183000DF9390E0FC01E458FF4F2491FC01E05756
:10184000FF4F8491882349F190E0880F991FFC0194
:10185000E854FF4FA591B49182559F4FFC01C5916B
:10186000D4919FB7611108C0F8948C912095822380
:101870008C93888182230AC0623051F4F8948C9151
:10188000322F309583238C938881822B888304C0E8
:10189000F8948C91822B8C939FBFDF91CF91089508
:1018A0000F931F93CF93DF931F92CDB7DEB7282FEF
:1018B00030E0F901E859FF4F8491F901E458FF4FF6
:1018C0001491F901E057FF4F04910023C1F08823E0
:1018D00019F0698383DF6981E02FF0E0EE0FFF1FCD
:1018E000E255FF4FA591B4919FB7F8948C91611187
:1018F00003C01095812301C0812B8C939FBF0F9053
:10190000DF91CF911F910F910895CF93DF93282FEF
:1019100030E0F901E859FF4F8491F901E458FF4F95
:10192000D491F901E057FF4FC491CC2389F0811184
:1019300055DFEC2FF0E0EE0FFF1FEC55FF4FA591A8
:10194000B4912C912D2381E090E021F480E002C03D
:1019500080E090E0DF91CF91089508950F93FC010E
:10196000608341832283038380E090E0DF01A80F3E
:10197000B91F14961C92019680359105B9F70F9105
:101980000895EF92FF920F931F93CF93DF93EC0193
:10199000F62EE42E60E0898183DF00E010E08B8189
:1019A00090E0081719076CF42F2D41E06A818881B7
:1019B0000FD12E2D41E06A8188810AD10F5F1F4F20
:1019C000EECF60E089816CDF61E08981DF91CF91AA
:1019D0001F910F91FF90EF9063CF462F6AE0D1CF18
:1019E0008F929F92AF92BF92CF92DF92EF92FF922F
:1019F0000F931F93CF93DF93EC01B62E942E60E0EC
:101A000089814EDFCB2CD12CE12CF12C00E010E0B1
:101A1000882483948B0C5E01AC18BD08EC0CFD1C73
:101A20008B8190E0081719078CF4282D41E06A811A
:101A30008881CED0292D41E06A818881C9D0F50105
:101A4000EE0DFF1D94820F5F1F4FE8CF60E089818C
:101A500027DF61E08981DF91CF911F910F91FF9086
:101A6000EF90DF90CF90BF90AF909F908F9018CF66
:101A70001F93CF93DF93EC0110E040E0612FCE0184
:101A8000AFDF1F5F1830C9F720E030E0FE01E20F42
:101A9000F31F14822F5F3F4F20353105B9F7DF91D7
:101AA000CF911F910895CF93DF93EC0161E088817E
:101AB000BEDE61E08A81BBDE61E08981B8DE61E083
:101AC0008A81EEDE47E06BE0CE015BDF40E069E05B
:101AD000CE0157DF41E06CE0CE0153DF40E06FE024
:101AE000CE014FDFCE01C4DF6FE0CE01DF91CF9199
:101AF00074CFBF92CF92DF92EF92FF920F931F931A
:101B0000CF93DF93EC01E62EF12C222389F001E044
:101B100010E020E030E004C0000F111F221F331F2F
:101B20004A95D2F7FC01EE0DFF1D8481802B11C078
:101B300001E010E020E030E004C0000F111F221F80
:101B4000331F4A95D2F70095FC01EE0DFF1D8481ED
:101B500080238483C62EC694C694C694D12C677005
:101B6000B62E60E089819CDE00E010E0B394EC0EBC
:101B7000FD1E84E0E80EF11C8B8190E00817190728
:101B8000C4F40C151D0541F42B2D41E06A818881B8
:101B90001FD0F701208106C020E041E06A818881E2
:101BA00017D020E041E06A81888112D00F5F1F4F7B
:101BB000E3CF60E0898174DE61E08981DF91CF91BC
:101BC0001F910F91FF90EF90DF90CF90BF9068CE64
:101BD000BF92CF92DF92EF92FF920F931F93CF931A
:101BE000DF93C82ED62EB42EC7E0D0E0022F10E02F
:101BF00087E0E82EF12CB1100AC0F701EC1BFD0BB9
:101C0000B80102C075956795EA95E2F707C0B8017B
:101C10000C2E02C0759567950A94E2F761707727DC
:101C20008C2D3EDE61E08D2D3BDE60E08D2D38DEBB
:101C3000219708F7DF91CF911F910F91FF90EF90BF
:101C4000DF90CF90BF900895A1E21A2EAA1BBB1B74
:101C5000FD010DC0AA1FBB1FEE1FFF1FA217B30778
:101C6000E407F50720F0A21BB30BE40BF50B661F8E
:101C7000771F881F991F1A9469F760957095809552
:101C800090959B01AC01BD01CF010895EE0FFF1FA0
:101C90000590F491E02D0994CF93DF938230910564
:101CA00010F482E090E0E0918506F091860620E055
:101CB00030E0A0E0B0E0309739F140815181481721
:101CC0005907B8F04817590771F48281938110972A
:101CD00029F013969C938E9312972CC090938606AE
:101CE0008093850627C02115310531F0421753072F
:101CF00018F0A901DB0101C0EF019A01BD01DF016C
:101D00000280F381E02DD7CF21153105F9F0281B92
:101D1000390B2430310580F48A819B81611571056E
:101D200021F0FB019383828304C090938606809305
:101D30008506FE01329644C0FE01E20FF31F819337
:101D4000919322503109398328833AC02091830628
:101D500030918406232B41F420910201309103013C
:101D60003093840620938306209100013091010175
:101D70002115310541F42DB73EB740910401509132
:101D80000501241B350BE0918306F0918406E217D0
:101D9000F307A0F42E1B3F0B2817390778F0AC018E
:101DA0004E5F5F4F2417350748F04E0F5F1F50936B
:101DB0008406409383068193919302C0E0E0F0E0B3
:101DC000CF01DF91CF910895CF93DF93009709F46E
:101DD00087C0FC01329713821282C0918506D09190
:101DE0008606209781F420813181280F391F809148
:101DF0008306909184068217930779F5F093840601
:101E0000E09383066DC0DE0120E030E0AE17BF072F
:101E100050F412964D915C9113979D014115510517
:101E200009F1DA01F3CFB383A28340815181840F9A
:101E3000951F8A179B0771F48D919C911197840FC0
:101E4000951F02969183808312968D919C91139792
:101E5000938382832115310529F4F0938606E0935C
:101E600085063EC0D9011396FC93EE9312974D91CF
:101E70005D91A40FB51FEA17FB0779F4808191816A
:101E8000840F951F0296D90111969C938E9382819F
:101E9000938113969C938E931297E0E0F0E08A81F1
:101EA0009B81009719F0FE01EC01F9CFCE0102965B
:101EB00028813981820F931F2091830630918406F7
:101EC0002817390769F4309729F410928606109282
:101ED000850602C013821282D0938406C0938306C3
:101EE000DF91CF910895A0E0B0E0E8E7FFE00FC1F7
:101EF000EC01CB01209711F4CFDEB4C0FE01E60F58
:101F0000F71F9E0122503109E217F30708F4A8C019
:101F1000D9010D911C91119706171707B0F00530E4
:101F2000110508F49BC0A8014450510946175707F2
:101F300008F494C002501109061B170B019311936A
:101F40006D937C93CF0140DF89C05B01A01AB10A79
:101F50004E01800E911EA0918506B0918606612CDF
:101F6000712C60E070E0109709F449C0A815B9051C
:101F7000C9F5ED90FC901197670142E0C40ED11CA9
:101F8000CA14DB0478F147018A189B08640142E017
:101F9000C40ED11C1296BC9012971396AC91B5E06A
:101FA000CB16D10440F0B282A38391828082D90102
:101FB0008D939C9309C00E5F1F4F0E0D1F1DF901DD
:101FC00011830083EB2DFA2F6115710531F0DB01D0
:101FD0001396FC93EE93129741C0F0938606E0931C
:101FE00085063CC06D917C9111976616770608F4C2
:101FF0003B01BD0112960D90BC91A02DB4CF609114
:1020000083067091840668157905E9F468167906E7
:10201000D0F440910001509101014115510541F466
:102020004DB75EB76091040170910501461B570BD7
:10203000E417F507A8F4F0938406E0938306F9010A
:10204000918380830BC028DE7C01009749F0A801B2
:10205000BE010CD0CE01B8DEC70104C0CE0102C063
:1020600080E090E0CDB7DEB7EEE06DC0FB01DC01B3
:1020700002C001900D9241505040D8F70895FB01E5
:10208000DC0101900D920020E1F7089545325105E1
:1020900018F4423008F004C0FB011082CB0108950F
:1020A000BB274A3031F4992322F4BDE29095819503
:1020B0009F4F01C0BB27FB015527AA27880F991FF7
:1020C000AA1FA41710F0A41B83955051B9F7A05D67
:1020D000AA3308F0A95DA193009779F7B111B193E4
:1020E0001192CB0100C0DC01FC01672F71917723B5
:1020F000E1F7329704C07C916D9370836291AE17C3
:10210000BF07C8F308952F923F924F925F926F924C
:102110007F928F929F92AF92BF92CF92DF92EF9277
:10212000FF920F931F93CF93DF93CDB7DEB7CA1BF8
:10213000DB0B0FB6F894DEBF0FBECDBF09942A8823
:10214000398848885F846E847D848C849B84AA84CB
:10215000B984C884DF80EE80FD800C811B81AA8158
:10216000B981CE0FD11D0FB6F894DEBF0FBECDBF23
:10217000ED01089510E0C6ECD0E003C0FE0188DD5B
:0C2180002296C83CD107D1F7F894FFCF9D
:10218C000000870680001200020005000200050016
:10219C00E903C303C303C503C503C703C903CB03C7
:1021AC00C303E903C303E903C503E903C503E90357
:1021BC00E903E903E903E903C503E903C503E903FB
:1021CC00C703E903E903E903E903E903E903E903C5
:1021DC00C703E903E903E903E903E903E903E903B5
:1021EC00C703E903E903C903C903C903C903E90325
:1021FC00E903E903E903E903E903E903E903E90373
:10220C00E903E903E903E903E903E903E903E90362
:10221C00CB03CB03CB03CB03CB03E903E903E903E8
:10222C00010000000100000001000000010000009E
:10223C000000000000000000010000000100000090
:10224C000100000000000000000000000000000081
:10225C000100000000000000000000000000000071
:10226C00010000000000010001000100010000005D
:10227C000000000000000000000000000000000052
:10228C000000000000000000000000000000000042
:10229C00010001000100010001000000000000002D
:1022AC000700EB03160441046B049504BC04E6041C
:1022BC001005290549055605000000000000000026
:1022CC000000000000000000000000000000000002
:1022DC0000000000000000000000000000000000F2
:1022EC0000000000000000000000000000000000E2
:1022FC0000000000000000000000000000000000D2
:10230C0000000000000000000000000000000000C1
:10231C0000000000000000000000000000000000B1
:10232C0000000000000000000000000000000000A1
:10233C000000000000000000000000000000000091
:10234C000000000000000000000000000000000081
:10235C000000000000000000000000000000000071
:10236C00000000000000000001000100020002005B
:10237C000300040005002878312C7931292C2878A9
:10238C00322C7932293A20002C0054616D616E6830
:10239C006F20646F206E6176696F20696E76616C58
:1023AC0069646F2E00506F736963616F206D75697E
:1023BC00746F2070726F78696D612061206F757415
:1023CC00726120656D6261726361C3A7616F2E00DB
:1023DC00506F736963616F20696E76616C696461BB
:1023EC002E00456E7669616E646F2070726F746F2B
:1023FC00636F6C6F3A20005375626D6172696E6F1A
:10240C0000486964726F617669616F004372757A16
:10241C0061646F7200456E636F7572616361646FA6
:10242C00004167756100506F7274612D617669614E
:10243C006F005265636562696461206F2054697234
:10244C006F20004100420043004400450041636599
:10245C0072746F75200041677561200046696D20AC
:10246C006465204A6F676F21004600446967697490
:10247C006520617320636F6F7264656E6461646163
:10248C007320646F20486964726F617669616F2094
:10249C0031202831290044696769746520617320F3
:1024AC00636F6F7264656E646164617320646F2026
:1024BC00486964726F617669616F20322028312916
:1024CC000044696769746520617320636F6F72647F
:1024DC00656E646164617320646F205375626D6115
:1024EC0072696E6F20312028322900446967697443
:1024FC006520617320636F6F7264656E64616461E3
:10250C007320646F205375626D6172696E6F203237
:10251C00202832290044696769746520617320633F
:10252C006F6F7264656E646164617320646F2043C5
:10253C0072757A61646F7220283329004469676967
:10254C00746520617320636F6F7264656E6461647F
:10255C00617320646F20456E636F75726163616493
:10256C006F202834290044696769746520617320E1
:10257C00636F6F7264656E646164617320646F2055
:10258C00506F7274612D617669616F202835290056
:10259C00416775617264616E646F20416476657227
:1025AC00736172696F2E2E2E0041677561726461C2
:1025BC006E646F204A6F6761646120646F20616490
:1025CC00766572736172696F00456E766965206F0E
:1025DC00207469726F0046696D206465204A6F67CC
:1025EC006F2120566F6365205065726465752121DB
:1025FC0000000000005907C008DD06F606E80638A2
:02260C000700C5
:00000001FF
