:1000000063C0000089C0000087C0000085C00000F8
:1000100083C0000081C000007FC000000C947C11F0
:100020007BC0000079C0000077C0000075C00000F0
:1000300073C0000071C000006FC000006DC0000000
:100040000C94130E69C000000C94A10A0C94D30AFE
:1000500063C0000061C000005FC000005DC0000020
:100060005BC0000059C00000000000080002010051
:100070000003040700000000000000000102040863
:100080001020408001020408102001020408102002
:10009000040404040404040402020202020203032E
:1000A00003030303000000002300260029000000D2
:1000B0000000250028002B0000000000240027007D
:1000C0002A004809010B5C0911241FBECFEFD8E0BC
:1000D000DEBFCDBF15E0A0E0B1E0E6E4F6E302C08C
:1000E00005900D92AE36B107D9F727E0AEE6B5E040
:1000F00001C01D92A032B207E1F710E0C6ECD0E0DB
:1001000004C02297FE010E948216C23CD107C9F7A3
:100110000E94080E0C94171B73CFBC0188ED95E06C
:100120000C94BA0B242F462F682F85E795E00C948A
:10013000751026E040E855E260E070E088ED95E05B
:100140000E943F0A87ED95E00E94661160E088E01A
:100150000E94130F60E089E00E94130F60E08AE0C4
:100160000E94130F61E083E00E94130F61E082E0C0
:100170000E94130F85E795E00E944F1061E085E72C
:1001800095E00E94E90F60910C0170910D0141E032
:1001900050E080910E0190910F01C4DF6091080141
:1001A0007091090141E050E080910A0190910B01AA
:1001B000B9CFEF92FF920F931F93CF93DF93F82E57
:1001C0008B01E42EC0E0D0E0C017D10739F02E2D0E
:1001D0004C2F6F2D85E795E00E94751064E170E06B
:1001E00080E090E00E94800E2196C830D10561F732
:1001F000DF91CF911F910F91FF90EF900895EF92B3
:10020000FF920F931F93CF93DF93F82E8B01E42E71
:10021000C0E0D0E0C017D10739F02E2D4F2D6C2F44
:1002200085E795E00E94751064E170E080E090E061
:100230000E94800E2196C830D10561F7DF91CF91E1
:100240001F910F91FF90EF900895AF92BF92CF92C0
:10025000DF92EF92FF920F931F93CF93DF937C0176
:100260006B01EA01890193E0A92EB12C41E050E035
:10027000B601C70157DF41E050E0B801CE0152DFBF
:1002800062E370E080E090E00E94800E40E050E089
:10029000B601C70147DF40E050E0B801CE0142DFC0
:1002A00062E370E080E090E00E94800E81E0A81A96
:1002B000B108E1F641E050E0B601C70133DF41E0AB
:1002C00050E0B801CE012EDF62E370E080E090E004
:1002D000DF91CF911F910F91FF90EF90DF90CF9022
:1002E000BF90AF900C94800EEF92FF920F931F93EC
:1002F000CF93DF93EC018B0123E0E22EF12C41E060
:1003000050E0B801CE010EDF62E370E080E090E0E3
:100310000E94800E40E050E0B801CE0103DF62E3AE
:1003200070E080E090E00E94800E81E0E81AF10821
:1003300031F741E050E0B801CE01F4DE62E370E055
:1003400080E090E0DF91CF911F910F91FF90EF90AF
:100350000C94800ECF92DF92EF92FF920F931F9337
:10036000CF93DF938C01EB017A016901FC0180815D
:100370009181688179818417950719F46217730751
:1003800019F040E050E0CEDEF801808191810196C5
:10039000883091051CF49183808308C0F801118294
:1003A00010828881998101969983888388819981B7
:1003B000089714F01982188264E670E080E090E0FB
:1003C0000E94800EF80180819181688179818E156B
:1003D0009F0519F46C157D0559F041E050E0DF915F
:1003E000CF911F910F91FF90EF90DF90CF909ACE19
:1003F000DF91CF911F910F91FF90EF90DF90CF9001
:1004000008950F931F93CF93DF93EC018B0140E08E
:1004100050E088819981CDDE88819981019688306C
:1004200091051CF49983888302C01982188241E0E7
:1004300050E0B80188819981DF91CF911F910F9190
:10044000B8CE0F931F93CF93DF93EC018B0140E065
:1004500050E088819981D3DE888199810196883026
:1004600091051CF49983888302C01982188241E0A7
:1004700050E0B80188819981DF91CF911F910F9150
:10048000BECECF93DF93D0E0C0E020E04D2F6C2FA5
:1004900085E795E00E947510CF5FC830B1F7DF5F48
:1004A000D83091F7DF91CF910895CF93DF93D0E0CB
:1004B000C8E020E04D2F6C2F85E795E00E94751075
:1004C000CF5FC031B1F7DF5FD83091F7DF91CF91C7
:1004D0000895AF92BF92CF92DF92EF92FF920F9367
:1004E0001F93CF93DF9300EA11E040E2E42E41E056
:1004F000F42EB12C38E0A32EC0E0D0E06801CC0E81
:10050000DD1EF60120814B2D6A2D85E795E00E94C6
:10051000751080916E05882391F0F60160817181DC
:100520004AE050E088ED95E00E94690CF701EC0F7D
:10053000FD1F6081718188ED95E00E94900B2296ED
:10054000A394F0E1AF12DACF80916E05882331F0E9
:1005500067E073E088ED95E00E94BA0B005F1F4FE3
:10056000B39480E1E80EF11CE8E0BE12C3CFDF9146
:10057000CF911F910F91FF90EF90DF90CF90BF90A0
:10058000AF90089580916E05882309F440C066EF0E
:1005900072E088ED95E00E94900B60910E017091E1
:1005A0000F014AE050E088ED95E00E94690C68E098
:1005B00073E088ED95E00E94900B60910C017091C2
:1005C0000D014AE050E088ED95E00E94690C68E07A
:1005D00073E088ED95E00E94900B60910A017091A4
:1005E0000B014AE050E088ED95E00E94690C68E05C
:1005F00073E088ED95E00E94900B60910801709186
:1006000009014AE050E088ED95E00C94700C0895E3
:100610008F929F92AF92BF92CF92DF92EF92FF9212
:100620000F931F93CF93DF93A0910E01B0910F0111
:1006300080910A0190910B014091080150910901AC
:1006400020910C0130910D01A817B90709F08DC058
:10065000A0902002B09021028501000F111FF80127
:10066000E851FD4F0190F081E02D241735072CF063
:10067000C9014217530724F001C0CA01B90101C0E2
:10068000BA01861B970B0196E817F90719F06AE083
:1006900073E00CC1C901421753070CF4CA017C0175
:1006A00061E0E61AF108FD013197B701C3E0660F7A
:1006B000771FCA95E1F7E60FF71FEE0FFF1FE05611
:1006C000FE4FB901241735070CF4BA016B01CFEFC7
:1006D000CC1ADC0ACE14DF04DCF060817181613059
:1006E000710579F0628173816130710551F0709606
:1006F000BF016C507109EB0168817981613071052E
:1007000019F465E273E0D2C0DFEFED1AFD0AD9CF2C
:100710009C0143E0220F331F4A95E1F72A0F3B1F4C
:10072000220F331FF901E056FE4F205E3E4F40E09E
:1007300050E0A1E0B0E00E5E1E4F681779079CF014
:100740007F01E40EF51EE701B983A8837901E40E69
:10075000F51EE801C880D980E701D982C8820196D8
:10076000405F5F4FEACFE5018DC02417350709F0E0
:100770009BC08090200290902102BC018A179B07A9
:100780000CF4BD01A817B9070CF4CD018401000FCA
:10079000111FF801E851FD4FAB01481B590B4F5F8A
:1007A0005F4F0190F081E02DE417F50709F06FCF5E
:1007B000AC0141505109F90131977A01D3E0EE0CB7
:1007C000FF1CDA95E1F7EE0DFF1DEE0FFF1FE0565F
:1007D000FE4F7B01DFEFED1AFD0AE416F506DCF0B3
:1007E000C080D180CA94CD2809F48BCFC280D38039
:1007F000CA94CD2809F485CF70966F01CCE0CC1A4D
:10080000D108E601C880D980CA94CD2809F479CFEF
:100810004F5F5F4FE2CF53E0220F331F5A95E1F74E
:10082000280F391F220F331F20563E4FAC01F3E033
:10083000440F551FFA95E1F74A0F5B1F440F551FF0
:10084000405E5E4FE0E0F0E0A0E0B0E0AA24A394B8
:10085000B12C0E5E1E4F681779079CF07901EA0EE5
:10086000FB1EE701B982A8827A01EE0EFF1EE801A5
:10087000C880D980E701D982C88201961296709605
:10088000EACFE4012196D0932102C0932002DF91A8
:10089000CF911F910F91FF90EF90DF90CF90BF907D
:1008A000AF909F908F90089560E573E088ED95E09C
:1008B000DF91CF911F910F91FF90EF90DF90CF903C
:1008C000BF90AF909F908F9055C789E00E94810F95
:1008D000019759F088E00E94810F019731F08AE07A
:1008E0000E94810F019709F03EC089E00E94810FAC
:1008F000019771F4209108013091090140910A019A
:1009000050910B016CE071E08EE091E023DD3ADE66
:1009100088E00E94810F019771F420910C013091C1
:100920000D0140910E0150910F0168E071E08AE0E5
:1009300091E010DD27DE8AE00E94810F019799F493
:10094000209108013091090140910A0150910B0159
:1009500060910C0170910D0180910E0190910F0139
:1009600074DC56DEB6CD0895FF920F931F93CF939C
:10097000DF93CDB7DEB7AB970FB6F894DEBF0FBEEF
:10098000CDBF6AEC75E087ED95E00E94BB15892B21
:1009900009F42DC14091CC055091CD056091CE0553
:1009A0007091CF0520E130E088ED95E0BBD78091D4
:1009B000CC059091CD05A091CE05B091CF058031A9
:1009C0009940A105B10509F00EC141E050E065E094
:1009D00070E087E090E0EDDB41E050E067E070E040
:1009E00085E090E00CDC62E370E080E090E00E9443
:1009F000800E65E070E087E090E076DC8091CC05C9
:100A00009091CD05A091CE05B091CF050F97A1058E
:100A1000B10579F468E973E088ED95E0ABD687E03D
:100A200090E0909321028093200281E08093C90599
:100A3000D9C067E073E0CE018596EFD74091CC0531
:100A40005091CD056091CE057091CF052AE0CE0181
:100A500001960E94800D6DE973E0CE0101960E941F
:100A6000E80D81115CC04091CC055091CD0560919D
:100A7000CE057091CF052AE0CE0149960E94800DE7
:100A80006FE973E0CE0149960E94E80D81114EC0D6
:100A90004091CC055091CD056091CE057091CF0568
:100AA0002AE0CE0143960E94800D61EA73E0CE01F8
:100AB00043960E94E80D811140C04091CC055091B1
:100AC000CD056091CE057091CF052AE0CE010D963F
:100AD0000E94800D63EA73E0CE010D960E94E80D3E
:100AE000811132C04091CC055091CD056091CE0569
:100AF0007091CF052AE0CE0107960E94800D65EA2D
:100B000073E0CE0107960E94E80D21E0FF24F394E4
:100B100001E011E0882301F16CE873E01FC020E0E0
:100B2000F12C00E010E06CE673E018C020E0F12C3E
:100B300000E011E062E673E011C020E0F12C01E07A
:100B400011E067E773E00AC020E0FF24F39401E0BE
:100B500011E060E873E002C067E073E0CE014F96F9
:100B60002BA75BD72BA5222319F0CE010796EAD637
:100B7000FF2019F0CE010D96E5D6002319F0CE0125
:100B80004396E0D6112319F0CE014996DBD6CE016B
:100B90000196D8D667EA73E0CE0101963ED7BE0132
:100BA000615E7F4FCE0101960E94D70DBC01CE0140
:100BB000859648D7CE010196C5D6BE016B5D7F4FA5
:100BC00088ED95E0C7D588E090E09093210280936E
:100BD000200281E08093C905CE014F96B3D6CE01A5
:100BE0008596B0D64EDC87ED95E00E941A12AB9642
:100BF0000FB6F894DEBF0FBECDBFDF91CF911F912E
:100C00000F91FF90089561E082E00E944C0F68EE22
:100C100073E080E090E00E94800E60E082E00C943F
:100C20004C0F61E082E00E944C0F6CE271E080E0CA
:100C300090E00E94800E60E082E00E944C0F6CE227
:100C400071E080E090E00E94800E61E082E00E940E
:100C50004C0F6CE271E080E090E00E94800E60E05A
:100C600082E00C944C0F60EB73E088ED95E058D572
:100C70006FE675E088ED95E06DC5CF93DF93CDB756
:100C8000DEB762970FB6F894DEBF0FBECDBF89E026
:100C90000E94810F019759F088E00E94810F01970F
:100CA00031F08AE00E94810F019709F05BC089E072
:100CB0000E94810F019741F460910C0170910D0128
:100CC0008EE091E09EDB5EDC88E00E94810F019760
:100CD00041F460910E0170910F018CE091E0B1DB65
:100CE00051DC8AE00E94810F019709F03BC06091BE
:100CF0000C0170910D0180910E0190910F01F4DAB9
:100D000060910C0170910D014AE0CE010796CDD69D
:100D100060910E0170910F014AE0CE010D96C5D68B
:100D2000BE01635F7F4FCE010196A1D6BE01695F10
:100D30007F4FCE0101963BD7BC018FE695E082D66E
:100D4000CE010196FFD5CE010D96FCD5CE010796BA
:100D5000F9D51092C9058091C905811103C083DFBF
:100D600003DEF9CF62960FB6F894DEBF0FBECDBF9B
:100D7000DF91CF9108952F923F924F925F926F92A1
:100D80007F928F929F92AF92BF92CF92DF92EF921B
:100D9000FF920F931F93CF93DF93CDB7DEB7A49746
:100DA0000FB6F894DEBF0FBECDBF67E073E0CE0193
:100DB0004F9633D667E073E08FE695E060D660919A
:100DC0000C0170910D014AE0CE0101966ED668E0EB
:100DD00073E0CE01079621D660910E0170910F014C
:100DE0004AE0CE01439661D665EC73E0CE010D96E4
:100DF00014D6BE016D5E7F4FCE010D96D8D6BE01D2
:100E0000695F7F4FD4D6BE016F5F7F4FD0D6BC01E4
:100E100088ED95E09FD4CE010D9694D5CE014396F2
:100E200091D5CE0107968ED5CE0101968BD590E255
:100E3000A92E91E0B92E20EA822E21E0922EC12C1B
:100E4000D12C38E0232E312C47E0442E512CE12CBC
:100E5000F12C00E010E080910E0190910F01C81676
:100E6000D90609F0E2C080910C0190910D0108179C
:100E7000190709F0DAC0F401EE0DFF1D80819181A0
:100E8000019709F090C01182108280910601909123
:100E900007010197909307018093060135016E0CBD
:100EA0007F1CF30180819181F3E08D399F0791F0E0
:100EB00023E08F39920789F0E3E0813A9E0781F0C1
:100EC000F3E0833A9F0779F0855A934079F46CE810
:100ED00073E00EC06CE673E00BC062E673E008C01E
:100EE00067E773E005C060E873E002C067E073E0A5
:100EF000CE01499692D567EA73E0CE0101968DD571
:100F0000BE01675E7F4FCE01019651D6BC01CE0176
:100F10004F9698D5CE01019615D5F3016081718168
:100F2000CE0101967AD560910C0170910D014AE0D5
:100F3000CE010D96BAD560910E0170910F014AE075
:100F4000CE014396B2D5BE016D5E7F4FCE010796AE
:100F50008ED5BE01635F7F4FCE01079628D6BE01B6
:100F60006F5F7F4F24D6BC018FE695E06BD5CE0135
:100F70000796E8D4CE014396E5D4CE010D96E2D48F
:100F8000CE010196DFD44DDE6EDEBE01615E7F4F85
:100F900088ED95E0DFD35092210240922002CE01ED
:100FA0004996D0D442C02FDE60911001709111019A
:100FB000CE01019632D560910C0170910D014AE08D
:100FC000CE010D9672D560910E0170910F014AE02D
:100FD000CE0143966AD5BE016D5E7F4FCE01079666
:100FE00046D5BE01635F7F4FCE010796E0D5BE01B7
:100FF0006F5F7F4FDCD5BC018FE695E023D5CE0136
:101000000796A0D4CE0143969DD4CE010D969AD4D6
:10101000CE01019697D427DE66ED73E088ED95E06A
:10102000A9D330922102209220020F5F1F4FF0E1DE
:10103000EF0EF11C0830110509F00DCF2FEFC21A89
:10104000D20A82E0A80EB11CE2E08E0E911CF8E0FC
:10105000CF16D10409F0FBCECE014F9673D4A496DF
:101060000FB6F894DEBF0FBECDBFDF91CF911F91B9
:101070000F91FF90EF90DF90CF90BF90AF909F9037
:101080008F907F906F905F904F903F902F9008953A
:10109000CF93DF93EC01AC01662757FD6095762F67
:1010A0002CE030E086ED95E00E9419116CED73E0C4
:1010B00088ED95E035D340E150E0BE0188ED95E044
:1010C000DF91CF910DC41092CC051092CD051092F6
:1010D000CE051092CF056AEC75E087ED95E00E9491
:1010E000BB15892B21F087ED95E00E941A128091A3
:1010F000CC059091CD05A091CE05B091CF05892B5F
:101100008A2B8B2B41F360EF73E088ED95E032D3AF
:101110004091CC055091CD056091CE057091CF05E1
:1011200020E130E088ED95E0FDC3CDDF8091CC0576
:101130009091CD05A091CE05B091CF05892B8A2B3A
:101140008B2B49F481E090E0A3DF87E090E090935F
:101150002102809320028091CC059091CD05A09131
:10116000CE05B091CF0580319940A105B10559F563
:1011700060910C0170910D0141E050E080910E01F1
:1011800090910F0116D860910E0170910F0141E00E
:1011900050E080910C0190910D0131D862E370E034
:1011A00080E090E0ADD560910C0170910D018091CF
:1011B0000E0190910F0198D8DEDD8BD962D987EDB1
:1011C00095E00C941A1208951092CC051092CD055A
:1011D0001092CE051092CF0580E090E059DF68EEC6
:1011E00073E080E090E08CD56EDF8091CC0590912B
:1011F000CD05A091CE05B091CF050197A105B10510
:1012000059F788E090E0909321028093200208959E
:10121000809120029091210287309105B4F4FC0165
:10122000EE0FFF1FEE5DFD4F808191810E948D00CA
:1012300089E067D6892B51F588E063D6892B31F593
:101240008AE05FD6892B11F5F3CF87309105A1F4A1
:1012500080913002909131020E948D003AD911D9CB
:101260008AE04FD6019731F4AFDF60ED77E080E0A0
:1012700090E046D55ADFFECF089749F480913202BC
:10128000909133020E948D00F8DC0FC91ECB0895A7
:101290000F936BE070E087ED95E00E94611102E032
:1012A00026E045E064E085E795E054D667E073E02A
:1012B0008FE695E00F91B1C38FE695E043C3FC0143
:1012C000818D228D90E0805C9F4F821B91098F73EE
:1012D00099270895FC01918D828D981731F0828DA8
:1012E000E80FF11D858D90E008958FEF9FEF089531
:1012F000FC01918D828D981761F0828DDF01A80F1E
:10130000B11D5D968C91928D9F5F9F73928F90E03F
:1013100008958FEF9FEF089588EF9AE0892B41F0B1
:1013200080E090E0892B21F063D181110C940000C2
:101330000895FC01848DDF01A80FB11DA35ABF4F92
:101340002C91848D90E001968F739927848FA689C4
:10135000B7892C93A089B1898C9180648C93938DEB
:10136000848D981306C00288F389E02D80818F7DDB
:1013700080830895CF93DF93EC01888D8823C1F09B
:10138000EA89FB89808185FD05C0A889B9898C918E
:1013900086FD0EC00FB607FCF5CF808185FFF2CF2A
:1013A000A889B9898C9185FFEDCFCE01C2DFE8CF46
:1013B000DF91CF910895CF92DF92FF920F931F9309
:1013C000CF93DF931F92CDB7DEB76C01DC015B9644
:1013D0009C915B975C968C915C97981307C0509694
:1013E000ED91FC915197808185FD31C0F601038D0F
:1013F00010E00F5F1F4F0F731127F02EF601848D41
:10140000F81210C00FB607FCF9CFD6015096ED9137
:10141000FC915197808185FFF1CFC601698389DFF7
:101420006981ECCF838DE80FF11DE35AFF4F608394
:10143000D6015B960C935B975296ED91FC91539776
:1014400080818062808381E058968C930DC0D601A4
:101450005696ED91FC91579760835096ED91FC91D3
:10146000519780818064808381E090E00F90DF91CC
:10147000CF911F910F91FF90DF90CF900895BF9271
:10148000CF92DF92EF92FF92CF93DF93EC016A014C
:101490007B01B22EE889F98982E08083411581EED3
:1014A000580761057105A1F060E079E08DE390E0F7
:1014B000A70196010E9442162150310941095109A4
:1014C0005695479537952795211580E1380798F06F
:1014D000E889F989108260E874E88EE190E0A7015C
:1014E00096010E9442162150310941095109569531
:1014F000479537952795EC85FD853083EE85FF85EB
:101500002083188EEC89FD89B082EA89FB8980816D
:1015100080618083EA89FB89808188608083EA8991
:10152000FB89808180688083EA89FB8980818F7D47
:101530008083DF91CF91FF90EF90DF90CF90BF90AD
:1015400008951F920F920FB60F9211242F938F932D
:101550009F93EF93FF93E091E805F091E905808177
:10156000E091EE05F091EF0582FD12C0908180912F
:10157000F1058F5F8F732091F205821751F0E09192
:10158000F105F0E0E852FA4F958F8093F10501C024
:101590008081FF91EF919F918F912F910F900FBEBE
:1015A0000F901F9018951F920F920FB60F92112453
:1015B0002F933F934F935F936F937F938F939F935B
:1015C000AF93BF93EF93FF9388ED95E0B2DEFF9169
:1015D000EF91BF91AF919F918F917F916F915F91AB
:1015E0004F913F912F910F900FBE0F901F90189524
:1015F00088ED95E064DE21E0892B09F420E0822F5C
:1016000008951092DB051092DA0588EE93E0A0E0D1
:10161000B0E08093DC059093DD05A093DE05B093E8
:10162000DF0581E695E09093D9058093D80585EC98
:1016300090E09093E5058093E40584EC90E090932E
:10164000E7058093E60580EC90E09093E9058093B0
:10165000E80581EC90E09093EB058093EA0582EC3D
:1016600090E09093ED058093EC0586EC90E09093EC
:10167000EF058093EE051092F1051092F20510929D
:10168000F3051092F4050895CF92DF92EF92FF9246
:101690000F931F93CF93DF936C017A01EB01E60E5A
:1016A000F71E00E010E0CE15DF0561F06991D6016C
:1016B000ED91FC910190F081E02DC6010995080F94
:1016C000191FF1CFC801DF91CF911F910F91FF90AA
:1016D000EF90DF90CF9008956115710581F0DB01E7
:1016E0000D900020E9F7AD0141505109461B570B01
:1016F000DC01ED91FC910280F381E02D099480E002
:1017000090E00895DC01ED91FC91DB0114964D9180
:101710005C9115976D917C910280F381E02D099485
:10172000DBCFDC01ED91FC910190F081E02D09947B
:101730000F931F93CF93DF93EC016DE0F2DF8C01E9
:101740006AE0CE01EEDF800F911FDF91CF911F91F4
:101750000F9108950F931F93CF93DF93EC01D2DF86
:101760008C01CE01E5DF800F911FDF91CF911F919A
:101770000F9108950F931F93CF93DF93EC01ACDF8C
:101780008C01CE01D5DF800F911FDF91CF911F918A
:101790000F9108958F929F92AF92BF92CF92DF9256
:1017A000EF92FF920F931F93CF93DF93CDB7DEB7E6
:1017B000A1970FB6F894DEBF0FBECDBF7C01C42E3B
:1017C000E52FCB01D22E19A221E02D1510F02AE031
:1017D000D22E8E010F5D1F4F8D2C912CA12CB12C80
:1017E0006C2D7E2FA50194010E9442168C2DD29E55
:1017F00080191124015011098A3014F4805D01C050
:10180000895CF8018083211531054105510521F0DE
:10181000C22EE32FCA01E4CFB801C7015DDFA19654
:101820000FB6F894DEBF0FBECDBFDF91CF911F91F1
:101830000F91FF90EF90DF90CF90BF90AF909F906F
:101840008F900895CF92DF92EF92FF920F931F93A4
:10185000CF93DF93EC016A017B012115310579F407
:10186000E881F9810190F081E02D642FDF91CF9123
:101870001F910F91FF90EF90DF90CF9009942A3045
:101880003105D9F477FF18C06DE24BDF8C01442796
:101890005527BA014C195D096E097F092AE0CE016E
:1018A00079DF800F911FDF91CF911F910F91FF90F2
:1018B000EF90DF90CF9008952AE0B701A601CE0106
:1018C000DF91CF911F910F91FF90EF90DF90CF901C
:1018D00061CF9A01AB01662757FD6095762FB2CF95
:1018E0000F931F93CF93DF93EC019A01AB0166270F
:1018F00057FD6095762FA6DF8C01CE0119DF800F92
:10190000911FDF91CF911F910F91089521153105FE
:1019100041F4DC01ED91FC910190F081E02D642F08
:10192000099438CF0F931F93CF93DF93EC01EEDF31
:101930008C01CE01FDDE800F911FDF91CF911F91B1
:101940000F910895FC01808191810C940D19CF9322
:10195000DF93EC0188819981009711F00E940D19A5
:10196000198218821D821C821B821A82DF91CF91FC
:1019700008950F931F93CF93DF93EC018B016F5F5B
:101980007F4F888199810E949C19009731F099833B
:1019900088831B830A8381E001C080E0DF91CF91BF
:1019A0001F910F910895CF93DF93EC018881998166
:1019B000892B29F08A819B818617970758F4CE01DD
:1019C000D8DF882341F08C819D81892B19F4E8812F
:1019D000F981108281E0DF91CF910895EF92FF921B
:1019E0000F931F93CF93DF93EC017B018A01BA0120
:1019F000DADF811103C0CE01AADF07C01D830C838B
:101A0000B701888199810E94711ACE01DF91CF912F
:101A10001F910F91FF90EF900895FC0111821082A9
:101A200013821282158214826115710551F0FB0137
:101A300001900020E9F7AF0141505109461B570BB7
:101A4000CDCF0895CF93DF93EC01FB018617970765
:101A500051F0608171816115710521F044815581DA
:101A6000BDDF01C074DFCE01DF91CF910895FC018D
:101A7000118210821382128215821482E3CFCF93D7
:101A8000DF93EC016115710559F0FB010190002015
:101A9000E9F7AF0141505109461B570B9FDF01C0C9
:101AA00056DFCE01DF91CF9108950F931F93CF930F
:101AB000DF93CDB7DEB762970FB6F894DEBF0FBEE7
:101AC000CDBF8C01CB01F8011182108213821282EA
:101AD0001582148250E0BE016F5F7F4F0E94781A1A
:101AE000BE016F5F7F4FC801CADF62960FB6F894E0
:101AF000DEBF0FBECDBFDF91CF911F910F91089533
:101B00000F931F93CF93DF93CDB7DEB7A1970FB697
:101B1000F894DEBF0FBECDBF8C01CB01BA01F80136
:101B200011821082138212821582148230E0AE017B
:101B30004F5F5F4F0E948C1ABE016F5F7F4FC801DD
:101B40009EDFA1960FB6F894DEBF0FBECDBFDF912A
:101B5000CF911F910F910895EF92FF920F931F93D2
:101B6000CF93DF93EC017B010C811D816115710521
:101B700011F480E015C04115510589F0040F151FBF
:101B8000B80111DF8823A9F3288139818C819D81D7
:101B9000B701820F931F0E94711A1D830C8381E08D
:101BA000DF91CF911F910F91FF90EF900895CF9308
:101BB000DF93EC01FB014481558160817181CCDFB1
:101BC000811102C0CE01C3DECE01DF91CF91089515
:101BD000FC0124813581232B31F421E0611571054D
:101BE000A1F0FB0108C0FC018081918161157105A4
:101BF00031F421E0FC018081882339F005C00E9486
:101C0000681A21E0892B09F020E0822F08950895B9
:101C1000A6D0FDDF0E949900CCE8D9E0F9DA209740
:101C2000E9F37ADBFBCF1F920F920FB60F921124CC
:101C30002F933F938F939F93AF93BF93809176069B
:101C400090917706A0917806B0917906309175064B
:101C500023E0230F2D3720F40196A11DB11D05C0EF
:101C600026E8230F0296A11DB11D209375068093CF
:101C7000760690937706A0937806B09379068091C4
:101C80007A0690917B06A0917C06B0917D06019624
:101C9000A11DB11D80937A0690937B06A0937C06CC
:101CA000B0937D06BF91AF919F918F913F912F91FE
:101CB0000F900FBE0F901F9018953FB7F89480912A
:101CC0007A0690917B06A0917C06B0917D0626B5A0
:101CD000A89B05C02F3F19F00196A11DB11D3FBF64
:101CE0006627782F892F9A2F620F711D811D911DF4
:101CF00042E0660F771F881F991F4A95D1F7089514
:101D0000CF92DF92EF92FF92CF93DF936B017C0132
:101D1000D4DFEB01C114D104E104F10479F019D14D
:101D2000CCDF6C1B7D0B683E7340A0F381E0C81ACA
:101D3000D108E108F108C851DC4FECCFDF91CF9119
:101D4000FF90EF90DF90CF900895019739F0880FC2
:101D5000991F880F991F02970197F1F708957894BA
:101D600084B5826084BD84B5816084BD85B58260A0
:101D700085BD85B5816085BDEEE6F0E0808181603E
:101D80008083E1E8F0E0108280818260808380813E
:101D900081608083E0E8F0E0808181608083E1EB16
:101DA000F0E0808184608083E0EBF0E080818160FE
:101DB0008083EAE7F0E080818460808380818260B4
:101DC000808380818160808380818068808310929D
:101DD000C1000895833081F028F4813099F0823079
:101DE000A1F008958730A9F08830B9F08430D1F49B
:101DF000809180008F7D03C0809180008F778093D9
:101E00008000089584B58F7702C084B58F7D84BD2E
:101E100008958091B0008F7703C08091B0008F7DCE
:101E20008093B0000895CF93DF9390E0FC01E458D5
:101E3000FF4F2491FC01E057FF4F8491882349F123
:101E400090E0880F991FFC01E854FF4FA591B491D1
:101E500082559F4FFC01C591D4919FB7611108C075
:101E6000F8948C91209582238C93888182230AC0D8
:101E7000623051F4F8948C91322F309583238C93F7
:101E80008881822B888304C0F8948C91822B8C9358
:101E90009FBFDF91CF9108950F931F93CF93DF934F
:101EA0001F92CDB7DEB7282F30E0F901E859FF4F78
:101EB0008491F901E458FF4F1491F901E057FF4F65
:101EC00004910023C1F0882319F0698383DF6981BD
:101ED000E02FF0E0EE0FFF1FE255FF4FA591B49108
:101EE0009FB7F8948C91611103C01095812301C0B4
:101EF000812B8C939FBF0F90DF91CF911F910F91FA
:101F00000895CF93DF93282F30E0F901E859FF4F70
:101F10008491F901E458FF4FD491F901E057FF4F44
:101F2000C491CC2389F0811155DFEC2FF0E0EE0F46
:101F3000FF1FEC55FF4FA591B4912C912D2381E00B
:101F400090E021F480E002C080E090E0DF91CF914A
:101F5000089508950F93FC016083418322830383D6
:101F600080E090E0DF01A80FB91F14961C92019643
:101F700080359105B9F70F910895EF92FF920F9375
:101F80001F93CF93DF93EC01F62EE42E60E089815E
:101F900083DF00E010E08B8190E0081719076CF4F4
:101FA0002F2D41E06A81888131D62E2D41E06A8152
:101FB00088812CD60F5F1F4FEECF60E089816CDFE8
:101FC00061E08981DF91CF911F910F91FF90EF9098
:101FD00063CF462F6AE0D1CF8F929F92AF92BF928C
:101FE000CF92DF92EF92FF920F931F93CF93DF93E5
:101FF000EC01B62E942E60E089814EDFCB2CD12CE3
:10200000E12CF12C00E010E0882483948B0C5E011D
:10201000AC18BD08EC0CFD1C8B8190E0081719076B
:102020008CF4282D41E06A818881F0D5292D41E08A
:102030006A818881EBD5F501EE0DFF1D94820F5F5B
:102040001F4FE8CF60E0898127DF61E08981DF9160
:10205000CF911F910F91FF90EF90DF90CF90BF90A5
:10206000AF909F908F9018CF1F93CF93DF93EC0189
:1020700010E040E0612FCE01AFDF1F5F1830C9F7DD
:1020800020E030E0FE01E20FF31F14822F5F3F4F8C
:1020900020353105B9F7DF91CF911F910895CF9386
:1020A000DF93EC0161E08881BEDE61E08A81BBDE06
:1020B00061E08981B8DE61E08A81EEDE47E06BE0B5
:1020C000CE015BDF40E069E0CE0157DF41E06CE02C
:1020D000CE0153DF40E06FE0CE014FDFCE01C4DF21
:1020E0006FE0CE01DF91CF9174CFBF92CF92DF929C
:1020F000EF92FF920F931F93CF93DF93EC01E62EA5
:10210000F12C222389F001E010E020E030E004C04F
:10211000000F111F221F331F4A95D2F7FC01EE0D4D
:10212000FF1D8481802B11C001E010E020E030E031
:1021300004C0000F111F221F331F4A95D2F70095CC
:10214000FC01EE0DFF1D848180238483C62EC6947E
:10215000C694C694D12C6770B62E60E089819CDE4F
:1021600000E010E0B394EC0EFD1E84E0E80EF11CDC
:102170008B8190E008171907C4F40C151D0541F474
:102180002B2D41E06A81888141D5F701208106C06D
:1021900020E041E06A81888139D520E041E06A8110
:1021A000888134D50F5F1F4FE3CF60E0898174DEF3
:1021B00061E08981DF91CF911F910F91FF90EF90A6
:1021C000DF90CF90BF9068CECB01E0EBF0E02081B4
:1021D00020622083BACDCB01E0EBF0E020812F7D9F
:1021E0002083B3CDCF93DF93EB018091700061E04A
:1021F00083E019DE60E083E04FDE9E01442737FD77
:102200004095542F60E47FE180E090E05DD581E06F
:102210008093B00089E08093B1002093B3008BEAF3
:10222000289F212D112426952093B400DF91CF9172
:102230000895AF92BF92CF92DF92EF92FF920F93E9
:102240001F93CF93DF93EC016A017B01590168E290
:1022500070E0C8DF60E679E0CE01B6DF68E572E0E5
:10226000CE01B9DF80E290E08A199B0904C0CC0C52
:10227000DD1CEE1CFF1C8A95D2F700E010E00A1569
:102280001B05A4F4F7FE03C060EB74E002C068E530
:1022900072E0CE0199DF68E572E0CE019CDFCC0CE4
:1022A000DD1CEE1CFF1C0F5F1F4FE9CFDF91CF91AC
:1022B0001F910F91FF90EF90DF90CF90BF90AF9064
:1022C000089560937E06109280060895F89482E047
:1022D0008093B0008093B10094E69093B300109285
:1022E000B20080937000789480937F0610921B0751
:1022F00080917E0660E097CD1F920F920FB60F92ED
:1023000011242F933F934F935F936F937F938F93FA
:102310009F93AF93BF93EF93FF9380917E06F1DD80
:1023200020918106309182062F5F3F4F30938206C5
:102330002093810690911B079C3418F095E09093B0
:102340007F0690917F069330B9F018F4923039F0FF
:1023500057C0943059F1953009F44CC051C08111E7
:102360004FC020918106309182062436310508F451
:1023700043C010921B071CC0813009F041C0E0919E
:102380001B0791E09E0F90931B07F0E020918106C0
:1023900030918206EE0FFF1FE258F94F36832583F6
:1023A000109282061092810694E021C0811117C01C
:1023B000E0911B0791E09E0F90931B07F0E02091A6
:1023C000810630918206EE0FFF1FE258F94F3683E7
:1023D0002583109282061092810693E008C0209116
:1023E0008106309182062536310550F095E09093B4
:1023F0007F0606C0811104C01092820610928106E9
:1024000090918006992329F0811102C02D9A01C074
:102410002D98FF91EF91BF91AF919F918F917F91F7
:102420006F915F914F913F912F910F900FBE0F9041
:102430001F90189582E080937F0610921B070895E5
:102440000F931F93CF93DF93EB01E885F98582818A
:1024500093818838910508F46CC082819381853E10
:10246000910508F066C080911B07843081F4848157
:102470009581809760F084819581C79740F486812B
:102480009781099720F086819781429728F1809162
:102490001B07843408F44DC08481958182349105F2
:1024A00008F447C0848195818037910508F041C0C8
:1024B0008F010A5F1F4F23E030E080E090E0DC01F5
:1024C000F801408151814930510598F14081518195
:1024D0004231510598F02DC01F821E828FEF9FEF71
:1024E000DC018A839B83AC83BD8381E090E0998388
:1024F000888361E070E080E090E036C0A8014E5F24
:102500005F4FF801628173816631710530F0F80127
:10251000628173816732710580F0FA016081718197
:102520006630710530F0FA01408151814D3051051E
:10253000B0F060E070E0CB0117C0880F991FAA1FB0
:10254000BB1F81602E5F3F4F0C5F1F4F233431054F
:1025500009F0B6CF20E230E03F832E83C2CF880F50
:10256000991FAA1FBB1FEECFDF91CF911F910F9133
:1025700008950F931F93CF93DF938B0180911B07D7
:102580008A3108F464C0DB011896ED91FC9119972B
:1025900082819381859708F45AC082819381803427
:1025A000910508F054C0369622E030E080E090E0DB
:1025B000DC0140911B0750E0B9016F5F7F4F64174A
:1025C00075073CF4EF0122976881798167307105C6
:1025D00070F42150310935952795F801378326830A
:1025E0002C30310554F4F8011782168230C048812E
:1025F00059814E30510570F0ECCF82839383A483D0
:10260000B58382E090E09183808361E070E080E0B8
:1026100090E026C0408151814331510570F04081E6
:1026200051814232510548F4880F991FAA1FBB1FE0
:1026300081602E5F3F4F3496BCCF408151814A303C
:10264000510528F0408151814331510520F060E06F
:1026500070E0CB0105C0880F991FAA1FBB1FE9CFEF
:10266000DF91CF911F910F9108954F925F926F92DA
:102670007F928F929F92AF92BF92CF92DF92EF9212
:10268000FF920F931F93CF93DF936A015901DA01F1
:10269000CD91DC91FB0182859385C817D9070CF099
:1026A000BAC0CE01880F991F0084F185E02DE80F94
:1026B000F91FE080F180C170DD27F1E0CF2720977E
:1026C00019F484E690E002C08CE99FEF4801880E7F
:1026D000991EB401882777FD8095982F17D42B0178
:1026E0003C0120E030E040E45FE39CD420E030E0B7
:1026F00048E452E470D3D7D3E616F706B4F020E0EE
:1027000030E040EA5FE3C301B2018CD420E030E066
:1027100048E452E460D320E030E040E85FE3F7D2E1
:10272000C2D36E157F050CF05DC0800E911EB40102
:10273000882777FD8095982FE9D32B013C0120E075
:1027400030E040E45FE36ED420E030E048E452E45F
:1027500042D3A9D3E616F706ACF020E030E040EA19
:102760005FE3C301B2015ED420E030E048E452E40C
:1027700032D320E030E040E85FE3C9D294D36E1555
:102780007F059CF5B401600F711F882777FD809548
:10279000982FBCD32B013C0120E030E040E45FE304
:1027A00041D420E030E048E452E415D37CD3E6166F
:1027B000F706A4F120E030E040EA5FE3C301B20194
:1027C00031D420E030E048E452E405D320E030E0AA
:1027D00040E85FE39CD267D36E157F05FCF023E0F1
:1027E00030E005C021E030E002C022E030E0D50159
:1027F0008D919C91119701968217930744F0F501F2
:1028000011821082D6018D919C91119701968D9322
:102810009C93CE0105C081E090E002C08FEF9FEF56
:10282000DF91CF911F910F91FF90EF90DF90CF90AC
:10283000BF90AF909F908F907F906F905F904F90E0
:1028400008954F925F926F927F928F929F92AF9274
:10285000BF92CF92DF92EF92FF920F931F93CF938D
:10286000DF9300D000D0CDB7DEB76C017B01809143
:102870001B078D3020F460E070E0CB0175C081E073
:1028800090E09C838B831A82198209E713E09E01F2
:102890002F5F3F4FAE014D5F5F4FC601E6DE892BD4
:1028A00051F79E012F5F3F4FAE014D5F5F4FB70164
:1028B000C601DBDE0197F9F69E012F5F3F4FAE01A7
:1028C0004D5F5F4FB701C601D0DE892BA1F6A12C69
:1028D000B12C412C512C320180911B0790E02B81AF
:1028E0003C81281739078CF509E713E09E012F5F1B
:1028F0003F4FAE014D5F5F4FB701C601B6DE4C01E1
:102900009E012F5F3F4FAE014D5F5F4FB701C60184
:10291000ACDE21E08216910451F4892B09F0ABCF93
:10292000440C551C661C771C689440F80AC0892822
:1029300009F0A1CF019709F09ECF440C551C661CED
:10294000771C8FEFA81AB80AC7CFF701B782A68203
:10295000428253826482758283E090E09183808317
:1029600061E070E080E090E00F900F900F900F908A
:10297000DF91CF911F910F91FF90EF90DF90CF905B
:10298000BF90AF909F908F907F906F905F904F908F
:1029900008952F923F924F925F926F927F928F9203
:1029A0009F92AF92BF92CF92DF92EF92FF920F93DE
:1029B0001F93CF93DF9300D000D0CDB7DEB76C016B
:1029C0007B01DB011A968D919C911B9718161906B5
:1029D00024F060E070E0CB01B7C081E090E09C8320
:1029E0008B83DB011896ED91FC911997828193817D
:1029F000899778F3828193818734910550F782E03B
:102A000090E09C838B83848195810B9710F3848164
:102A100095814597F0F683E090E09C838B831A8242
:102A200019820CEB11E09E012F5F3F4FAE014D5F0D
:102A30005F4FB701C60119DE892B59F60CEB11E087
:102A40009E012F5F3F4FAE014D5F5F4FB701C60143
:102A50000CDE019709F0BDCFA12CB12C212C312C1B
:102A600021012B813C81F701828593852817390745
:102A70000CF05CC00CEB11E09E012F5F3F4FAE01EC
:102A80004D5F5F4FB701C601F0DD3C01B3E0AB160F
:102A9000B10489F00CEB11E09E012F5F3F4FAE01B6
:102AA0004D5F5F4FB701C601E0DD4C01E3E0AE16BC
:102AB000B104F9F40FC00CEB11E09E012F5F3F4F02
:102AC000AE014D5F5F4FB701C601CFDD68167906D5
:102AD00009F37FCF0CEB11E09E012F5F3F4FAE015A
:102AE0004D5F5F4FB701C601C0DD8816990609F03A
:102AF00070CF6114710459F48A94892809F069CF60
:102B0000220C331C441C551C689420F80BC06A949A
:102B1000672809F05ECF892809F05BCF220C331CAF
:102B2000441C551CAFEFAA1ABA0A9BCFB782A682E3
:102B3000228233824482558284E090E091838083B4
:102B400061E070E080E090E00F900F900F900F90A8
:102B5000DF91CF911F910F91FF90EF90DF90CF9079
:102B6000BF90AF909F908F907F906F905F904F90AD
:102B70003F902F9008950F931F93CF93DF938C0175
:102B8000EB0183E896E09987888780911B0790E0A6
:102B90009B878A8780917F06853089F5C80150DC44
:102BA000672B682B692B19F5BE01C801E2DC672B86
:102BB000682B692BE1F4BE01C80143DE672B682B4B
:102BC000692BA9F4BE01C801E4DE672B682B692BD1
:102BD00071F48A859B8506976CF08FEF9FEF998340
:102BE00088831F821E821A821B821C821D8281E0C2
:102BF00090E007C082E080937F0610921B0780E080
:102C000090E0DF91CF911F910F910895BF92CF92E5
:102C1000DF92EF92FF920F931F93CF93DF93C82E13
:102C2000D62EB42EC7E0D0E0022F10E087E0E82EC9
:102C3000F12CB1100AC0F701EC1BFD0BB80102C06A
:102C400075956795EA95E2F707C0B8010C2E02C0AA
:102C5000759567950A94E2F7617077278C2D1CD9DA
:102C600061E08D2D19D960E08D2D16D9219708F7D7
:102C7000DF91CF911F910F91FF90EF90DF90CF9058
:102C8000BF900895A1E21A2EAA1BBB1BFD010DC027
:102C9000AA1FBB1FEE1FFF1FA217B307E407F5070C
:102CA00020F0A21BB30BE40BF50B661F771F881FE8
:102CB000991F1A9469F760957095809590959B017E
:102CC000AC01BD01CF010895052E97FB16F40094C9
:102CD0000FD057FD05D0D6DF07FC02D046F408C060
:102CE00050954095309521953F4F4F4F5F4F089538
:102CF00090958095709561957F4F8F4F9F4F089568
:102D0000EE0FFF1F0590F491E02D09945058BB275A
:102D1000AA270ED04DC13ED130F043D120F031F47E
:102D20009F3F11F41EF433C10EF4E095E7FB29C177
:102D3000E92F4FD180F3BA1762077307840795070D
:102D400018F071F49EF567C10EF4E0950B2EBA2FC2
:102D5000A02D0B01B90190010C01CA01A0011124A1
:102D6000FF27591B99F0593F50F4503E68F11A164D
:102D7000F040A22F232F342F4427585FF3CF4695DE
:102D800037952795A795F0405395C9F77EF41F1600
:102D9000BA0B620B730B840BBAF09150A1F0FF0FCA
:102DA000BB1F661F771F881FC2F70EC0BA0F621FB6
:102DB000731F841F48F4879577956795B795F795A6
:102DC0009E3F08F0B3CF9395880F08F09927EE0F38
:102DD0009795879508950CD0EBC0E3D040F0DAD0FA
:102DE00030F021F45F3F19F0CCC0511115C1CFC0B4
:102DF000F0D098F39923C9F35523B1F3951B550BE4
:102E0000BB27AA2762177307840738F09F5F5F4FBD
:102E1000220F331F441FAA1FA9F333D00E2E3AF0FE
:102E2000E0E830D091505040E695001CCAF729D018
:102E3000FE2F27D0660F771F881FBB1F2617370767
:102E40004807AB07B0E809F0BB0B802DBF01FF2797
:102E500093585F4F2AF09E3F510568F092C0DCC046
:102E60005F3FECF3983EDCF3869577956795B795D1
:102E7000F7959F5FC9F7880F911D9695879597F9EC
:102E80000895E1E0660F771F881FBB1F6217730765
:102E90008407BA0720F0621B730B840BBA0BEE1F7A
:102EA00088F7E095089504D06894B111B5C00895ED
:102EB00098D088F09F5790F0B92F9927B751A0F07C
:102EC000D1F0660F771F881F991F1AF0BA95C9F7BE
:102ED00012C0B13081F09FD0B1E008959CC0672F3F
:102EE000782F8827B85F39F0B93FCCF3869577956E
:102EF0006795B395D9F73EF4909580957095619557
:102F00007F4F8F4F9F4F0895E89409C097FB3EF481
:102F100090958095709561957F4F8F4F9F4F992326
:102F2000A9F0F92F96E9BB279395F69587957795A4
:102F30006795B795F111F8CFFAF4BB0F11F460FF64
:102F40001BC06F5F7F4F8F4F9F4F16C0882311F0BC
:102F500096E911C0772321F09EE8872F762F05C0D0
:102F6000662371F096E8862F70E060E02AF09A956B
:102F7000660F771F881FDAF7880F9695879597F960
:102F8000089597F99F6780E870E060E008959FEFEB
:102F900080EC089500240A941616170618060906F0
:102FA000089500240A9412161306140605060895BF
:102FB000092E0394000C11F4882352F0BB0F40F447
:102FC000BF2B11F460FF04C06F5F7F4F8F4F9F4F87
:102FD000089557FD9058440F551F59F05F3F71F009
:102FE0004795880F97FB991F61F09F3F79F0879570
:102FF0000895121613061406551FF2CF4695F1DFF9
:1030000008C0161617061806991FF1CF8695710588
:10301000610508940895E894BB2766277727CB01BC
:1030200097F908950BD0C4CFB5DF28F0BADF18F0B8
:10303000952309F0A6CFABCF1124EECFCADFA0F3C2
:10304000959FD1F3950F50E0551F629FF001729F3D
:10305000BB27F00DB11D639FAA27F00DB11DAA1F5C
:10306000649F6627B00DA11D661F829F2227B00DA9
:10307000A11D621F739FB00DA11D621F839FA00D34
:10308000611D221F749F3327A00D611D231F849F84
:10309000600D211D822F762F6A2F11249F575040DB
:1030A0008AF0E1F088234AF0EE0FFF1FBB1F661F76
:1030B000771F881F91505040A9F79E3F510570F02F
:1030C00060CFAACF5F3FECF3983EDCF3869577950F
:1030D0006795B795F795E7959F5FC1F7FE2B880F2A
:1030E000911D9695879597F90895CF93DF93823038
:1030F000910510F482E090E0E0911E07F0911F0727
:1031000020E030E0A0E0B0E0309739F1408151811B
:1031100048175907B8F04817590771F4828193810D
:10312000109729F013969C938E9312972CC090932E
:103130001F0780931E0727C02115310531F0421764
:10314000530718F0A901DB0101C0EF019A01BD018D
:10315000DF010280F381E02DD7CF21153105F9F091
:10316000281B390B2430310580F48A819B8161153D
:10317000710521F0FB019383828304C090931F07A4
:1031800080931E07FE01329644C0FE01E20FF31F3A
:103190008193919322503109398328833AC0209139
:1031A0001C0730911D07232B41F42091020130911F
:1031B000030130931D0720931C07209100013091DB
:1031C00001012115310541F42DB73EB740910401AD
:1031D00050910501241B350BE0911C07F0911D0750
:1031E000E217F307A0F42E1B3F0B2817390778F0DE
:1031F000AC014E5F5F4F2417350748F04E0F5F1F3D
:1032000050931D0740931C078193919302C0E0E007
:10321000F0E0CF01DF91CF910895CF93DF93009736
:1032200009F487C0FC01329713821282C0911E07F5
:10323000D0911F07209781F420813181280F391FF9
:1032400080911C0790911D078217930779F5F093E1
:103250001D07E0931C076DC0DE0120E030E0AE17D3
:10326000BF0750F412964D915C9113979D01411543
:10327000510509F1DA01F3CFB383A2834081518173
:10328000840F951F8A179B0771F48D919C9111975C
:10329000840F951F02969183808312968D919C9145
:1032A0001397938382832115310529F4F0931F0727
:1032B000E0931E073EC0D9011396FC93EE9312973C
:1032C0004D915D91A40FB51FEA17FB0779F480813A
:1032D0009181840F951F0296D90111969C938E932C
:1032E0008281938113969C938E931297E0E0F0E095
:1032F0008A819B81009719F0FE01EC01F9CFCE0184
:10330000029628813981820F931F20911C073091EA
:103310001D072817390769F4309729F410921F0701
:1033200010921E0702C013821282D0931D07C09311
:103330001C07DF91CF910895A0E0B0E0E1EAF9E148
:1033400043C1EC01CB01209711F4CFDEB4C0FE01E4
:10335000E60FF71F9E0122503109E217F30708F428
:10336000A8C0D9010D911C91119706171707B0F04D
:103370000530110508F49BC0A801445051094617B7
:10338000570708F494C002501109061B170B01934C
:1033900011936D937C93CF0140DF89C05B01A01A2C
:1033A000B10A4E01800E911EA0911E07B0911F0719
:1033B000612C712C60E070E0109709F449C0A815E9
:1033C000B905C9F5ED90FC901197670142E0C40E74
:1033D000D11CCA14DB0478F147018A189B086401E8
:1033E00042E0C40ED11C1296BC9012971396AC9179
:1033F000B5E0CB16D10440F0B282A38391828082E3
:10340000D9018D939C9309C00E5F1F4F0E0D1F1D98
:10341000F90111830083EB2DFA2F6115710531F04D
:10342000DB011396FC93EE93129741C0F0931F07B4
:10343000E0931E073CC06D917C911197661677064C
:1034400008F43B01BD0112960D90BC91A02DB4CFA4
:1034500060911C0770911D0768157905E9F46816DD
:103460007906D0F4409100015091010141155105B8
:1034700041F44DB75EB76091040170910501461BA0
:10348000570BE417F507A8F4F0931D07E0931C070A
:10349000F901918380830BC028DE7C01009749F0FD
:1034A000A801BE010CD0CE01B8DEC70104C0CE0118
:1034B00002C080E090E0CDB7DEB7EEE0A1C0FB0136
:1034C000DC0102C001900D9241505040D8F70895A0
:1034D000FB01DC018D91019080190110D9F3990B4A
:1034E0000895FB01DC0101900D920020E1F70895A1
:1034F0004532510518F4423008F004C0FB01108237
:10350000CB010895BB274A3031F4992322F4BDE260
:10351000909581959F4F2CC02532310518F42230AB
:1035200008F004C0FA011082CA010895BB27FA010D
:10353000A62F6217710581059105330B30FB66F0EC
:10354000AA27660F771F881F991FAA1FA21710F0BE
:10355000A21B63953850A9F7A05DAA3308F0A95DB6
:10356000A19336F7B111B1931082CA0119C0BB27DC
:10357000FB015527AA27880F991FAA1FA41710F02F
:10358000A41B83955051B9F7A05DAA3308F0A95D3B
:10359000A193009779F7B111B1931192CB0100C0BB
:1035A000DC01FC01672F71917723E1F7329704C0AA
:1035B0007C916D9370836291AE17BF07C8F3089535
:1035C0002F923F924F925F926F927F928F929F9233
:1035D000AF92BF92CF92DF92EF92FF920F931F9321
:1035E000CF93DF93CDB7DEB7CA1BDB0B0FB6F894D2
:1035F000DEBF0FBECDBF09942A88398848885F8412
:103600006E847D848C849B84AA84B984C884DF8082
:10361000EE80FD800C811B81AA81B981CE0FD11D66
:103620000FB6F894DEBF0FBECDBFED01089510E0D8
:10363000C6ECD0E003C0FE0165DB2296C83CD10792
:06364000D1F7F894FFCF62
:1036460000002007800012000200050004000300AD
:10365600F9039D039D039F039F03A103A303A503F2
:103666009D03F9039D03F9039F03F9039F03F903E0
:10367600F903F903F903F9039F03F9039F03F90318
:10368600A103F903F903F903F903F903F903F903AC
:10369600A103F903F903F903F903F903F903F9039C
:1036A600A103F903F903A303A303A303A303F903E4
:1036B600F903F903F903F903F903F903F903F90324
:1036C600F903F903F903F903F903F903F903F90314
:1036D600A503A503A503A503A503F903F903F903A8
:1036E60001000000010000000100000001000000D0
:1036F60000000000000000000100000001000000C2
:1037060001000000000000000000000000000000B2
:1037160001000000000000000000000000000000A2
:10372600010000000000010001000100010000008E
:103736000000000000000000000000000000000083
:103746000000000000000000000000000000000073
:10375600010001000100010001000000000000005E
:103766000700FB03260451047B04A504CC04F604DD
:103776002005390542050000000000000000000099
:103786000000000000000000000000000000000033
:103796000000000000000000000000000000000023
:1037A6000000000000000000000000000000000013
:1037B6000000000000000000000000000000000003
:1037C60000000000000000000000000000000000F3
:1037D60000000000000000000000000000000000E3
:1037E60000000000000000000000000000000000D3
:1037F60000000000000000000000000000000000C3
:1038060000000000000000000000000000000000B2
:1038160000000000000000000000000000000000A2
:10382600000000000000000001000100020002008C
:103836000300040005002878312C7931292C2878DA
:10384600322C7932293A20002C0054616D616E6861
:103856006F20646F206E6176696F20696E76616C89
:1038660069646F2E00506F736963616F206D7569AF
:10387600746F2070726F78696D612061206F757446
:10388600726120656D6261726361C3A7616F2E000C
:10389600506F736963616F20696E76616C696461EC
:1038A6002E005375626D6172696E6F0048696472AD
:1038B6006F617669616F004372757A61646F720039
:1038C600456E636F7572616361646F00506F7274E9
:1038D600612D617669616F00416775610041004243
:1038E6000043004400450041636572746F75200013
:1038F600456E7669616E646F2070726F746F636F68
:103906006C6F3A2000526563656269646F206F20B0
:103916005469726F2000416775612000456E7669B3
:10392600616E646F204D656E736167656D3A200048
:10393600526563656269646F00460044696769742D
:103946006520617320636F6F7264656E6461646184
:103956007320646F20486964726F617669616F20B5
:103966003120283129004469676974652061732014
:10397600636F6F7264656E646164617320646F2047
:10398600486964726F617669616F20322028312937
:103996000044696769746520617320636F6F7264A0
:1039A600656E646164617320646F205375626D6136
:1039B60072696E6F20312028322900446967697464
:1039C6006520617320636F6F7264656E6461646104
:1039D6007320646F205375626D6172696E6F203259
:1039E6002028322900446967697465206173206361
:1039F6006F6F7264656E646164617320646F2043E7
:103A060072757A61646F7220283329004469676988
:103A1600746520617320636F6F7264656E646164A0
:103A2600617320646F20456E636F757261636164B4
:103A36006F20283429004469676974652061732002
:103A4600636F6F7264656E646164617320646F2076
:103A5600506F7274612D617669616F202835290077
:103A6600416775617264616E646F20416476657248
:103A7600736172696F2E2E2E004174617175652116
:103A8600210046696D206465204A6F676F212056C4
:103A96006F63652050657264657521210000000022
:0E3AA60000DB09440B5F0978096A09BA0900C0
:00000001FF
