:1000000062C0000088C0000086C0000084C00000FC
:1000100082C0000080C000007EC000007CC00000E4
:100020007AC0000078C0000076C000000C94C711B0
:1000300072C0000070C000006EC000006CC0000004
:100040000C94490E68C000000C94E00A0C94120B4A
:1000500062C0000060C000005EC000005CC0000024
:100060005AC0000058C00000000000080002010053
:100070000003040700000000000000000102040863
:100080001020408001020408102001020408102002
:10009000040404040404040402020202020203032E
:1000A00003030303000000002300260029000000D2
:1000B0000000250028002B0000000000240027007D
:1000C0002A008509400B11241FBECFEFD8E0DEBF08
:1000D000CDBF16E0A0E0B1E0EAEAFBE302C0059084
:1000E0000D92AC37B107D9F728E0ACE7B6E001C014
:1000F0001D92A93BB207E1F710E0C6ECD0E004C0C6
:100100002297FE010E94E116C23CD107C9F70E9466
:100110003E0E0C94D31D74CF26E040E855E260E01B
:1001200070E081E797E00E947E0A80E797E00E94F6
:10013000AB1160E088E00E94550F60E087E00E940C
:10014000550F60E08AE00E94550F61E089E00E944F
:10015000550F61E082E00E94550F8CEF96E00E94FF
:10016000911061E08CEF96E00C942B108F929F928F
:10017000AF92BF92CF92DF92EF92FF920F931F93B5
:10018000CF93DF93A0915A07B0915B0780915607F8
:100190009091570740915407509155072091580767
:1001A00030915907A817B90709F08DC0A0905207E0
:1001B000B09053078501000F111FF801E25AF94F63
:1001C0000190F081E02D241735072CF0C90142176A
:1001D000530724F001C0CA01B90101C0BA01861B4E
:1001E000970B0196E817F90719F06EE573E00CC15B
:1001F000C901421753070CF4CA017C0161E0E61AF9
:10020000F108FD013197B701C3E0660F771FCA956A
:10021000E1F7E60FF71FEE0FFF1FE458F94FB901A2
:10022000241735070CF4BA016B01CFEFCC1ADC0AA6
:10023000CE14DF04DCF0608171816130710579F0EA
:10024000628173816130710551F07096BF016C500D
:100250007109EB01688179816130710519F469E7F1
:1002600073E0D2C0DFEFED1AFD0AD9CF9C0143E065
:10027000220F331F4A95E1F72A0F3B1F220F331F2E
:10028000F901E458F94F2A573E4F40E050E0A1E011
:10029000B0E000531D4F681779079CF07F01E40E12
:1002A000F51EE701B983A8837901E40EF51EE80184
:1002B000C880D980E701D982C8820196405F5F4F2C
:1002C000EACFE5018DC02417350709F09BC0809067
:1002D000520790905307BC018A179B070CF4BD018D
:1002E000A817B9070CF4CD018401000F111FF80104
:1002F000E25AF94FAB01481B590B4F5F5F4F01901A
:10030000F081E02DE417F50709F06FCFAC01415003
:100310005109F90131977A01D3E0EE0CFF1CDA950F
:10032000E1F7EE0DFF1DEE0FFF1FE458F94F7B01C3
:10033000DFEFED1AFD0AE416F506DCF0C080D1808F
:10034000CA94CD2809F48BCFC280D380CA94CD281B
:1003500009F485CF70966F01CCE0CC1AD108E60184
:10036000C880D980CA94CD2809F479CF4F5F5F4FF8
:10037000E2CF43E0220F331F4A95E1F7280F391FE0
:10038000220F331F2458394FAC01E3E0440F551FAF
:10039000EA95E1F74A0F5B1F440F551F4A575E4F1E
:1003A000E0E0F0E0A0E0B0E0AA24A394B12C005378
:1003B0001D4F681779079CF07901EA0EFB1EE701D3
:1003C000B982A8827A01EE0EFF1EE801C880D980AA
:1003D000E701D982C882019612967096EACFE401AD
:1003E0002196D0935307C0935207DF91CF911F916D
:1003F0000F91FF90EF90DF90CF90BF90AF909F90C4
:100400008F90089564EA73E081E797E0DF91CF91E0
:100410001F910F91FF90EF90DF90CF90BF90AF9022
:100420009F908F900C94F90BBC0181E797E00C949E
:10043000F90B242F462F682F8CEF96E00C94B71001
:10044000EF92FF920F931F93CF93DF93F82E8B01C0
:10045000E42EC0E0D0E0C017D10739F02E2D4C2F8C
:100460006F2D8CEF96E00E94B71064E170E080E0A1
:1004700090E00E94C20E2196C830D10561F7DF914D
:10048000CF911F910F91FF90EF900895EF92FF92FF
:100490000F931F93CF93DF93F82E8B01E42EC0E0D0
:1004A000D0E0C017D10739F02E2D4F2D6C2F8CEFD7
:1004B00096E00E94B71064E170E080E090E00E9456
:1004C000C20E2196C830D10561F7DF91CF911F91FF
:1004D0000F91FF90EF900895AF92BF92CF92DF926D
:1004E000EF92FF920F931F93CF93DF937C016B01E9
:1004F000EA01890123E0A22EB12C41E050E0B601CF
:10050000C70197DF41E050E0B801CE0192DF62E31E
:1005100070E080E090E00E94C20E40E050E0B60142
:10052000C70187DF40E050E0B801CE0182DF62E31F
:1005300070E080E090E00E94C20E81E0A81AB1084D
:10054000E1F641E050E0B601C70173DF41E050E061
:10055000B801CE016EDF62E370E080E090E0DF91F1
:10056000CF911F910F91FF90EF90DF90CF90BF90B0
:10057000AF900C94C20EEF92FF920F931F93CF9304
:10058000DF93EC018B0133E0E32EF12C41E050E0EE
:10059000B801CE014EDF62E370E080E090E00E949F
:1005A000C20E40E050E0B801CE0143DF62E370E0EC
:1005B00080E090E00E94C20E81E0E81AF10831F775
:1005C00041E050E0B801CE0134DF62E370E080E04A
:1005D00090E0DF91CF911F910F91FF90EF900C94DD
:1005E000C20ECF92DF92EF92FF920F931F93CF93A1
:1005F000DF938C01EB017A016901FC01808191811B
:10060000688179818417950719F46217730719F0C7
:1006100040E050E00EDFF801808191810196883042
:1006200091051CF49183808308C0F8011182108227
:100630008881998101969983888388819981089717
:1006400014F01982188264E670E080E090E00E9465
:10065000C20EF80180819181688179818E159F0594
:1006600019F46C157D0559F041E050E0DF91CF9110
:100670001F910F91FF90EF90DF90CF90DACEDF9136
:10068000CF911F910F91FF90EF90DF90CF90089541
:100690000F931F93CF93DF93EC018B0140E050E069
:1006A00088819981CDDE8881998101968830910574
:1006B0001CF49983888302C01982188241E050E0BB
:1006C000B80188819981DF91CF911F910F91B8CEA8
:1006D0000F931F93CF93DF93EC018B0140E050E029
:1006E00088819981D3DE888199810196883091052E
:1006F0001CF49983888302C01982188241E050E07B
:10070000B80188819981DF91CF911F910F91BECE61
:10071000CF93DF93D0E0C0E020E04D2F6C2F8CEF23
:1007200096E00E94B710CF5FC830B1F7DF5FD830D6
:1007300091F7DF91CF9108952F923F924F925F9260
:100740006F927F928F929F92AF92BF92CF92DF92E1
:10075000EF92FF920F931F93CF93DF93CDB7DEB746
:10076000E1970FB6F894DEBF0FBECDBF63E677E02A
:1007700080E797E00E940616892B09F45DC140913D
:10078000650750916607609167077091680720E1DF
:1007900030E081E797E00E94E50C66E0A62E61E07C
:1007A000B62E00E010E04E018BE2880E911CC12CA9
:1007B000D12CE12CF12C4CEE442E43E0542E58E089
:1007C000252E312C35016C0C7D1CF30140815181AB
:1007D00060E070E08091650790916607A0916707DF
:1007E000B0916807481759076A077B0709F00CC1E1
:1007F00010935B0700935A07F0925907E09258074D
:1008000041E050E0B701C8011BDE60915A077091CA
:100810005B0741E050E0809158079091590736DE20
:1008200062E370E080E090E00E94C20E60915807A1
:100830007091590780915A0790915B079CDEF301F4
:1008400081818F9380818F935F924F929F928F923D
:100850000E94041B0F900F900F900F900F900F901D
:1008600088A9863479F46FEE73E081E797E0C1D709
:1008700087E090E0909353078093520781E0809344
:100880006207C1C06FE376E0CE0185960E94600DDD
:1008900068A9CE0101960E94A00D6AEC74E0CE0119
:1008A00001960E941E0E81113DC068A9CE01499695
:1008B0000E94A00D64EF73E0CE0149960E941E0EC7
:1008C000811137C068A9CE0143960E94A00D66EF42
:1008D00073E0CE0143960E941E0E811132C068A9BA
:1008E000CE010D960E94A00D68EF73E0CE010D962B
:1008F0000E941E0E81112EC068A9CE0107960E948B
:10090000A00D6DEB74E0CE0107960E941E0E31E043
:1009100021E06624639477247394882321F160EEA8
:1009200073E023C030E020E0612C712C60EC73E0B8
:100930001CC030E020E0612C7724739466EB73E0F8
:1009400014C030E020E066246394772473946BEC49
:1009500073E00BC030E021E0662463947724739445
:1009600064ED73E002C06FE376E0CE014F9629ABF1
:1009700038AB0E94600D38A929A9332329F0CE0194
:1009800007960E94F50C29A9222321F0CE010D968D
:100990000E94F50C662021F0CE0143960E94F50CD2
:1009A000772021F0CE0149960E94F50CCE010196E8
:1009B0000E94F50C6AEF73E0CE0101960E94600D73
:1009C000BE01615E7F4FCE0101960E940D0EBC01FB
:1009D000CE0185960E94750DCE0101960E94F50C00
:1009E000BE016B5D7F4F81E797E0F3D630925307EE
:1009F0002092520781E080936207CE014F96F5D78F
:100A0000CE018596F2D784DEFFEFEF1AFF0A80E170
:100A1000C80ED11CE0E8CE16D10409F0D3CE0F5F8A
:100A20001F4FF2E0AF0EB11C0830110509F0BFCE28
:100A300080E797E00E946512E1960FB6F894DEBF5A
:100A40000FBECDBFDF91CF911F910F91FF90EF901F
:100A5000DF90CF90BF90AF909F908F907F906F90DE
:100A60005F904F903F902F900895FF920F931F93A8
:100A7000CF93DF930CE716E0F12CC0E0D0E0FE014D
:100A8000EE0FFF1FE00FF11F6C2F685F20814F2DCD
:100A90008CEF96E00E94B7102196C830D10579F707
:100AA000005F1F4FF39488E0F812E7CFDF91CF91FA
:100AB0001F910F91FF90089580916107882309F499
:100AC00038C063E074E081E797E069D660915A0727
:100AD00070915B074AE050E081E797E039D765E124
:100AE00074E081E797E05BD66091580770915907F1
:100AF0004AE050E081E797E02BD765E174E081E7B9
:100B000097E04DD660915607709157074AE050E044
:100B100081E797E01DD765E174E081E797E03FD674
:100B200060915407709155074AE050E081E797E0E3
:100B300016C7089587E00E94C30F019759F088E017
:100B40000E94C30F019731F08AE00E94C30F019702
:100B500009F03EC087E00E94C30F019771F4209115
:100B6000540730915507409156075091570768E553
:100B700077E08AE597E035DD9FDF88E00E94C30FCC
:100B8000019771F4209158073091590740915A0705
:100B900050915B0764E577E086E597E022DD8CDF26
:100BA0008AE00E94C30F019799F420915407309175
:100BB000550740915607509157076091580770911B
:100BC000590780915A0790915B0786DCCFDA4DCFA9
:100BD000089561E082E00E948E0F68EE73E080E08D
:100BE00090E00E94C20E60E082E00C948E0F61E003
:100BF00082E00E948E0F6CE271E080E090E00E9443
:100C0000C20E60E082E00E948E0F6CE271E080E034
:100C100090E00E94C20E61E082E00E948E0F6CE2C2
:100C200071E080E090E00E94C20E60E082E00C94EF
:100C30008E0FCF92DF92EF92FF920F931F93CF937D
:100C4000DF938C01C3E0D0E06C01E12CF12C2CE0AF
:100C500030E0B701A6018FE697E00E945E1164E6DE
:100C600070E080E090E00E94C20E219781F78091B1
:100C700061078823C1F067E174E081E797E0B9D5A7
:100C80006BE274E081E797E08AD540E150E0B8017B
:100C900081E797E0DF91CF911F910F91FF90EF9047
:100CA000DF90CF907EC6DF91CF911F910F91FF9083
:100CB000EF90DF90CF900895809150079091510769
:100CC000B8DF61E374E081E797E069D56091500790
:100CD000709151074AE050E081E797E062C64F9279
:100CE0005F926F927F928F929F92AF92BF92CF92BC
:100CF000DF92EF92FF920F931F93CF93DF93CDB7C5
:100D0000DEB76E970FB6F894DEBF0FBECDBF6FE3B0
:100D100076E0CE014996D4D6109251071092500732
:100D200060915807709159074AE0CE0101961FD78C
:100D300065E174E0CE010796C3D660915A077091C1
:100D40005B074AE0CE01439612D766E474E0CE0119
:100D50000D96B6D6BE016D5E7F4FCE010D965DD766
:100D6000BE01695F7F4F59D7BE016F5F7F4F55D777
:100D7000BC0181E797E02DD5CE010D9636D6CE0188
:100D8000439633D6CE01079630D6CE0101962DD6A6
:100D90002CE7A22E26E0B22E36E8632E31E0732E29
:100DA000C12CD12C48E0442E512C57E0852E912C9B
:100DB000E12CF12C00E010E080915A0790915B0744
:100DC000C816D90609F0A6C0809158079091590716
:100DD0000817190709F09EC0F501EE0DFF1D80816F
:100DE0009181019709F072C01182108280910802EE
:100DF0009091090201979093090280930802F301F0
:100E0000EE0DFF1D8081918124E08A3C920791F0D4
:100E100023E0843F920789F023E0863F920781F028
:100E200023E0883F920779F08D5B944079F460EE7F
:100E300073E00EC060EC73E00BC066EB73E008C0BB
:100E40006BEC73E005C064ED73E002C06FE376E025
:100E5000CE01079635D66AEF73E0CE01019630D603
:100E6000BE01695F7F4FCE010196D7D6BC01CE018E
:100E700049963BD6CE010196B8D5E0915807F0913E
:100E8000590783E0EE0FFF1F8A95E1F780915A071B
:100E900090915B07E80FF91FEE0FFF1FEA5FFE4F0F
:100EA000808191819093510780935007A0DE04DFE9
:100EB000BE01675E7F4F81E797E08BD49092530726
:100EC00080925207CE01079690D524C082DEE09131
:100ED0005807F0915907A3E0EE0FFF1FAA95E1F71D
:100EE00080915A0790915B07E80FF91FEE0FFF1FE3
:100EF000EA5FFE4F80819181909351078093500764
:100F0000DBDE67E574E081E797E073D45092530726
:100F1000409252070F5F1F4F80E1E80EF11C08302E
:100F2000110509F049CF2FEFC21AD20A82E0A80EAC
:100F3000B11C22E0620E711C88E0C816D10409F0D1
:100F400037CFCE01499651D56E960FB6F894DEBFD5
:100F50000FBECDBFDF91CF911F910F91FF90EF900A
:100F6000DF90CF90BF90AF909F908F907F906F90C9
:100F70005F904F90089587E00E94C30F019751F052
:100F800088E00E94C30F019729F08AE0FCD70197FF
:100F900009F048C087E0F7D7019741F460915807FE
:100FA000709159078AE597E073DB86DD88E0EBD71F
:100FB000019741F460915A0770915B0788E597E0CB
:100FC00087DB7ADD8AE0DFD7019761F5609158070A
:100FD0007091590780915A0790915B07CCDAE091A4
:100FE0005807F091590763E0EE0FFF1F6A95E1F78C
:100FF00080915A0790915B07E80FF91FEE0FFF1FD2
:10100000E252FD4F80819181909351078093500768
:101010001092620780916207811103C04DDE8CDB64
:10102000F9CF0895089587E0AED7892B41F488E081
:10103000AAD7892B21F48AE0A6D7892BA1F308959A
:101040008091080290910902892B31F489E090E0A7
:101050009093530780935207809106029091070264
:10106000892B31F48AE090E09093530780935207E4
:101070000895E0915207F0915307EE0FFF1FE65FCE
:10108000FD4F80819181D0C90F931F934CD66093FF
:101090005C0770935D0780935E0790935F0763E63C
:1010A00077E080E797E00E940616892B21F080E721
:1010B00097E00E9465128091650790916607A09164
:1010C0006707B0916807892B8A2B8B2B41F32BD6AE
:1010D00000915C0710915D0720915E0730915F07DA
:1010E000601B710B820B930B603D7740810591056E
:1010F000B0F280916107882329F180916507909172
:101100006607A0916707B0916807892B8A2B8B2B04
:10111000C9F064E974E081E797E06BD36BE274E0B7
:1011200081E797E03CD34091650750916607609155
:1011300067077091680720E130E081E797E01F9131
:101140000F9143C41F910F910895CF92DF92EF92B8
:10115000FF920F931F93CF93DF9387DCD9DA94DF4D
:10116000BEEDCB2EB2E0DB2EC0E0D0E0E12CF12CC6
:1011700000E010E0F601EE0DFF1D80819181A0E0FE
:10118000B0E04091650750916607609167077091E4
:10119000680784179507A607B70749F5D0935B073B
:1011A000C0935A07109359070093580741E050E045
:1011B000B801CE0145D960915A0770915B0741E0B3
:1011C00050E0809158079091590760D962E370E030
:1011D00080E090E0D7D560915807709159078091D1
:1011E0005A0790915B07C7D97ADD3FDC91DA0F5F30
:1011F0001F4F80E1E80EF11C80E8E816F10409F0C9
:10120000B9CF219682E0C80ED11CC830D10509F0B3
:10121000ADCFDF91CF911F910F91FF90EF90DF90B5
:10122000CF9008958091600781113BC02DDF8091A0
:10123000650790916607A0916707B09168078031B4
:101240009940A105B10571F481E08093600788E0C1
:1012500090E0909353078093520762EB74E081E72C
:1012600097E0C7D28091650790916607A0916707C4
:10127000B0916807893E9C45A105B10591F481E0D4
:101280008093600787E090E0909353078093520724
:1012900080916107882329F06FEB74E081E797E084
:1012A000A8C2089580915207909153078730910505
:1012B0005CF4B9DE809152079091530707971CF4B4
:1012C000D8DE38DCF7CF08958730910561F4D1DEA0
:1012D000A9DF8091520790915307079719F435DFE2
:1012E000AFDEF7CF0895089759F4C3DE8091520717
:1012F00090915307089719F43EDEA2DEF7CF0895C8
:101300006CEC74E081E797E074C20F936BE070E0DF
:1013100080E797E00E94A61106D560935C07709362
:101320005D0780935E0790935F0702E026E045E04B
:1013300064E08CEF96E050D60F910895FC01818D0A
:10134000228D90E0805C9F4F821B91098F739927BB
:101350000895FC01918D828D981731F0828DE80FF0
:10136000F11D858D90E008958FEF9FEF0895FC01AA
:10137000918D828D981761F0828DDF01A80FB11DCC
:101380005D968C91928D9F5F9F73928F90E00895F0
:101390008FEF9FEF089587E39BE0892B41F080E07A
:1013A00090E0892B21F063D181110C940000089505
:1013B000FC01848DDF01A80FB11DA35ABF4F2C91F2
:1013C000848D90E001968F739927848FA689B789C1
:1013D0002C93A089B1898C9180648C93938D848D9A
:1013E000981306C00288F389E02D80818F7D808369
:1013F0000895CF93DF93EC01888D8823C1F0EA89AB
:10140000FB89808185FD05C0A889B9898C9186FDFD
:101410000EC00FB607FCF5CF808185FFF2CFA889FB
:10142000B9898C9185FFEDCFCE01C2DFE8CFDF9186
:10143000CF910895CF92DF92FF920F931F93CF9396
:10144000DF931F92CDB7DEB76C01DC015B969C91F8
:101450005B975C968C915C97981307C05096ED91C2
:10146000FC915197808185FD31C0F601038D10E01C
:101470000F5F1F4F0F731127F02EF601848DF812A6
:1014800010C00FB607FCF9CFD6015096ED91FC9134
:101490005197808185FFF1CFC601698389DF69811A
:1014A000ECCF838DE80FF11DE35AFF4F6083D60127
:1014B0005B960C935B975296ED91FC9153978081CC
:1014C0008062808381E058968C930DC0D601569639
:1014D000ED91FC91579760835096ED91FC91519757
:1014E00080818064808381E090E00F90DF91CF91D4
:1014F0001F910F91FF90DF90CF900895BF92CF92F0
:10150000DF92EF92FF92CF93DF93EC016A017B01B0
:10151000B22EE889F98982E08083411581EE58076F
:1015200061057105A1F060E079E08DE390E0A7012D
:1015300096010E94A1162150310941095109569581
:10154000479537952795211580E1380798F0E88968
:10155000F989108260E874E88EE190E0A7019601B5
:101560000E94A1162150310941095109569547950C
:1015700037952795EC85FD853083EE85FF852083A3
:10158000188EEC89FD89B082EA89FB8980818061AF
:101590008083EA89FB89808188608083EA89FB896E
:1015A000808180688083EA89FB8980818F7D808348
:1015B000DF91CF91FF90EF90DF90CF90BF90089593
:1015C0001F920F920FB60F9211242F938F939F9318
:1015D000EF93FF93E0918107F09182078081E09182
:1015E0008707F091880782FD12C0908180918A0759
:1015F0008F5F8F7320918B07821751F0E0918A07DC
:10160000F0E0EF58F84F958F80938A0701C08081F2
:10161000FF91EF919F918F912F910F900FBE0F909F
:101620001F9018951F920F920FB60F9211242F93AF
:101630003F934F935F936F937F938F939F93AF935A
:10164000BF93EF93FF9381E797E0B2DEFF91EF91B5
:10165000BF91AF919F918F917F916F915F914F91CA
:101660003F912F910F900FBE0F901F90189581E71B
:1016700097E064DE21E0892B09F420E0822F0895B1
:10168000109274071092730788EE93E0A0E0B0E028
:101690008093750790937607A0937707B0937807A8
:1016A00080E796E0909372078093710785EC90E055
:1016B00090937E0780937D0784EC90E09093800761
:1016C00080937F0780EC90E090938207809381075E
:1016D00081EC90E0909384078093830782EC90E004
:1016E000909386078093850786EC90E09093880717
:1016F0008093870710928A0710928B0710928C07AD
:1017000010928D070895CF92DF92EF92FF920F9380
:101710001F93CF93DF936C017A01EB01E60EF71E66
:1017200000E010E0CE15DF0561F06991D601ED9182
:10173000FC910190F081E02DC6010995080F191F59
:10174000F1CFC801DF91CF911F910F91FF90EF90E2
:10175000DF90CF9008956115710581F0DB010D9048
:101760000020E9F7AD0141505109461B570BDC0140
:10177000ED91FC910280F381E02D099480E090E0EE
:101780000895DC01ED91FC91DB0114964D915C9183
:1017900015976D917C910280F381E02D0994DBCF48
:1017A000DC01ED91FC910190F081E02D09940F9303
:1017B0001F93CF93DF93EC016DE0F2DF8C016AE0C1
:1017C000CE01EEDF800F911FDF91CF911F910F911E
:1017D00008950F931F93CF93DF93EC01D2DF8C0119
:1017E000CE01E5DF800F911FDF91CF911F910F9107
:1017F00008950F931F93CF93DF93EC01ACDF8C011F
:10180000CE01D5DF800F911FDF91CF911F910F91F6
:1018100008958F929F92AF92BF92CF92DF92EF92F4
:10182000FF920F931F93CF93DF93CDB7DEB7A197AE
:101830000FB6F894DEBF0FBECDBF7C01C42EE52FDE
:10184000CB01D22E19A221E02D1510F02AE0D22EC4
:101850008E010F5D1F4F8D2C912CA12CB12C6C2D66
:101860007E2FA50194010E94A1168C2DD29E801975
:101870001124015011098A3014F4805D01C0895C83
:10188000F8018083211531054105510521F0C22E53
:10189000E32FCA01E4CFB801C7015DDFA1960FB6FF
:1018A000F894DEBF0FBECDBFDF91CF911F910F9196
:1018B000FF90EF90DF90CF90BF90AF909F908F9070
:1018C0000895CF92DF92EF92FF920F931F93CF93E1
:1018D000DF93EC016A017B012115310579F4E88180
:1018E000F9810190F081E02D642FDF91CF911F915C
:1018F0000F91FF90EF90DF90CF9009942A3031053F
:10190000D9F477FF18C06DE24BDF8C0144275527CF
:10191000BA014C195D096E097F092AE0CE0179DF11
:10192000800F911FDF91CF911F910F91FF90EF904A
:10193000DF90CF9008952AE0B701A601CE01DF9194
:10194000CF911F910F91FF90EF90DF90CF9061CFDB
:101950009A01AB01662757FD6095762FB2CF0F93A2
:101960001F93CF93DF93EC019A01AB01662757FDDC
:101970006095762FA6DF8C01CE0119DF800F911FB5
:10198000DF91CF911F910F9108952115310541F4F9
:10199000DC01ED91FC910190F081E02D642F099420
:1019A00038CF0F931F93CF93DF93EC019A01AB01D4
:1019B00060E070E0EADF8C01CE01F9DE800F911F5C
:1019C000DF91CF911F910F9108950F931F93CF93A4
:1019D000DF93EC01DADF8C01CE01E9DE800F911F8D
:1019E000DF91CF911F910F910895FC01808191812A
:1019F0000C946C19CF93DF93EC0188819981009747
:101A000011F00E946C19198218821D821C821B829F
:101A10001A82DF91CF9108950F931F93CF93DF9395
:101A2000EC018B016F5F7F4F888199810E94FB19C8
:101A3000009731F0998388831B830A8381E001C07A
:101A400080E0DF91CF911F910F910895CF93DF93A5
:101A5000EC0188819981892B29F08A819B818617E5
:101A6000970758F4CE01D8DF882341F08C819D81FF
:101A7000892B19F4E881F981108281E0DF91CF91FF
:101A80000895EF92FF920F931F93CF93DF93EC0192
:101A90007B018A01BA01DADF811103C0CE01AADF1E
:101AA00007C01D830C83B701888199810E94D01AD9
:101AB000CE01DF91CF911F910F91FF90EF9008958C
:101AC000FC01118210821382128215821482611528
:101AD000710551F0FB0101900020E9F7AF01415081
:101AE0005109461B570BCDCF0895CF93DF93EC01DF
:101AF000FB018617970751F06081718161157105AF
:101B000021F044815581BDDF01C074DFCE01DF913A
:101B1000CF910895CF93DF93EC016115710559F0D2
:101B2000FB0101900020E9F7AF0141505109461B2C
:101B3000570BA7DF01C05EDFCE01DF91CF91089583
:101B4000CF93DF9300D0CDB7DEB7FC0111821082B6
:101B5000138212821582148269831A82BE016F5F1A
:101B60007F4FD8DF0F900F90DF91CF9108950F93A3
:101B70001F93CF93DF93CDB7DEB762970FB6F8947C
:101B8000DEBF0FBECDBF8C01CB01F80111821082E8
:101B9000138212821582148250E0BE016F5F7F4F64
:101BA0000E94D71ABE016F5F7F4FC801B3DF6296F4
:101BB0000FB6F894DEBF0FBECDBFDF91CF911F915E
:101BC0000F910895EF92FF920F931F93CF93DF939E
:101BD000EC017B010C811D816115710511F480E020
:101BE00015C04115510589F0040F151FB8012EDFEE
:101BF0008823A9F3288139818C819D81B701820FC7
:101C0000931F0E94D01A1D830C8381E0DF91CF9136
:101C10001F910F91FF90EF900895CF93DF93EC0108
:101C2000FB014481558160817181CCDF811102C04B
:101C3000CE01E0DECE01DF91CF910895FC01248139
:101C40003581232B31F421E061157105A1F0FB01F1
:101C500008C0FC01808191816115710531F421E09A
:101C6000FC018081882339F005C00E94C71A21E059
:101C7000892B09F020E0822F08950895B2D0FDDF6E
:101C80000E948C00CBECD9E00DDB2097E9F383DBDD
:101C9000FBCF1F920F920FB60F9211242F933F93F9
:101CA0008F939F93AF93BF9380910F0890911008EB
:101CB000A0911108B091120830910E0823E0230F73
:101CC0002D3720F40196A11DB11D05C026E8230F74
:101CD0000296A11DB11D20930E0880930F089093CA
:101CE0001008A0931108B0931208809113089091E6
:101CF0001408A0911508B09116080196A11DB11DF8
:101D00008093130890931408A0931508B0931608B5
:101D1000BF91AF919F918F913F912F910F900FBEE7
:101D20000F901F9018952FB7F89460910F0870913D
:101D3000100880911108909112082FBF08953FB7A5
:101D4000F8948091130890911408A0911508B0910F
:101D5000160826B5A89B05C02F3F19F00196A11DB6
:101D6000B11D3FBF6627782F892F9A2F620F711DF3
:101D7000811D911D42E0660F771F881F991F4A95AC
:101D8000D1F70895CF92DF92EF92FF92CF93DF9336
:101D90006B017C01D4DFEB01C114D104E104F10437
:101DA00079F019D1CCDF6C1B7D0B683E7340A0F33A
:101DB00081E0C81AD108E108F108C851DC4FECCF26
:101DC000DF91CF91FF90EF90DF90CF900895019732
:101DD00039F0880F991F880F991F02970197F1F723
:101DE0000895789484B5826084BD84B5816084BD93
:101DF00085B5826085BD85B5816085BDEEE6F0E084
:101E0000808181608083E1E8F0E0108280818260DF
:101E10008083808181608083E0E8F0E08081816060
:101E20008083E1EBF0E0808184608083E0EBF0E090
:101E3000808181608083EAE7F0E080818460808334
:101E400080818260808380818160808380818068DE
:101E500080831092C1000895833081F028F481308E
:101E600099F08230A1F008958730A9F08830B9F058
:101E70008430D1F4809180008F7D03C080918000F8
:101E80008F7780938000089584B58F7702C084B5E2
:101E90008F7D84BD08958091B0008F7703C08091BD
:101EA000B0008F7D8093B0000895CF93DF9390E0D2
:101EB000FC01E458FF4F2491FC01E057FF4F84914F
:101EC000882349F190E0880F991FFC01E854FF4FE7
:101ED000A591B49182559F4FFC01C591D4919FB7B4
:101EE000611108C0F8948C91209582238C9388818D
:101EF00082230AC0623051F4F8948C91322F3095CD
:101F000083238C938881822B888304C0F8948C91DE
:101F1000822B8C939FBFDF91CF9108950F931F93D6
:101F2000CF93DF931F92CDB7DEB7282F30E0F901B2
:101F3000E859FF4F8491F901E458FF4F1491F901DA
:101F4000E057FF4F04910023C1F0882319F0698303
:101F500083DF6981E02FF0E0EE0FFF1FE255FF4FB6
:101F6000A591B4919FB7F8948C91611103C010951D
:101F7000812301C0812B8C939FBF0F90DF91CF9164
:101F80001F910F910895CF93DF93282F30E0F9012F
:101F9000E859FF4F8491F901E458FF4FD491F901BA
:101FA000E057FF4FC491CC2389F0811155DFEC2F0E
:101FB000F0E0EE0FFF1FEC55FF4FA591B4912C916F
:101FC0002D2381E090E021F480E002C080E090E0E9
:101FD000DF91CF91089508950F93FC0160834183B1
:101FE0002283038380E090E0DF01A80FB91F1496DD
:101FF0001C92019680359105B9F70F910895EF92E3
:10200000FF920F931F93CF93DF93EC01F62EE42EF4
:1020100060E0898183DF00E010E08B8190E00817A9
:1020200019076CF42F2D41E06A8188813AD62E2D54
:1020300041E06A81888135D60F5F1F4FEECF60E0A7
:1020400089816CDF61E08981DF91CF911F910F91D0
:10205000FF90EF9063CF462F6AE0D1CF8F929F928F
:10206000AF92BF92CF92DF92EF92FF920F931F93A6
:10207000CF93DF93EC01B62E942E60E089814EDF82
:10208000CB2CD12CE12CF12C00E010E0882483949F
:102090008B0C5E01AC18BD08EC0CFD1C8B8190E034
:1020A000081719078CF4282D41E06A818881F9D539
:1020B000292D41E06A818881F4D5F501EE0DFF1DDF
:1020C00094820F5F1F4FE8CF60E0898127DF61E0D6
:1020D0008981DF91CF911F910F91FF90EF90DF9059
:1020E000CF90BF90AF909F908F9018CF1F93CF93BA
:1020F000DF93EC0110E040E0612FCE01AFDF1F5F06
:102100001830C9F720E030E0FE01E20FF31F14821F
:102110002F5F3F4F20353105B9F7DF91CF911F91E8
:102120000895CF93DF93EC0161E08881BEDE61E02A
:102130008A81BBDE61E08981B8DE61E08A81EEDE02
:1021400047E06BE0CE015BDF40E069E0CE0157DFA6
:1021500041E06CE0CE0153DF40E06FE0CE014FDFA5
:10216000CE01C4DF6FE0CE01DF91CF9174CFBF927B
:10217000CF92DF92EF92FF920F931F93CF93DF9353
:10218000EC01E62EF12C222389F001E010E020E0A2
:1021900030E004C0000F111F221F331F4A95D2F7F1
:1021A000FC01EE0DFF1D8481802B11C001E010E0C9
:1021B00020E030E004C0000F111F221F331F4A959A
:1021C000D2F70095FC01EE0DFF1D848180238483EE
:1021D000C62EC694C694C694D12C6770B62E60E005
:1021E00089819CDE00E010E0B394EC0EFD1E84E0DB
:1021F000E80EF11C8B8190E008171907C4F40C1548
:102200001D0541F42B2D41E06A8188814AD5F701F3
:10221000208106C020E041E06A81888142D520E02B
:1022200041E06A8188813DD50F5F1F4FE3CF60E0B9
:10223000898174DE61E08981DF91CF911F910F91D7
:10224000FF90EF90DF90CF90BF9068CECB01E0E899
:10225000F0E0208120682083BACDCB01E0E8F0E0F7
:1022600020812F772083B3CDCF93DF93EB011092A2
:102270006F0061E089E019DE60E089E04FDE9E01D9
:10228000442737FD4095542F60E47FE180E090E0E3
:102290007AD582E08093800081E180938100309341
:1022A000870020938600C90163E070E036D5709303
:1022B000890060938800DF91CF910895AF92BF921B
:1022C000CF92DF92EF92FF920F931F93CF93DF9302
:1022D000EC016A017B01590168E270E0C5DF60E64C
:1022E00079E0CE01B3DF68E572E0CE01B6DF80E2CF
:1022F00090E08A199B0904C0CC0CDD1CEE1CFF1C6D
:102300008A95D2F700E010E00A151B05A4F4F7FE49
:1023100003C060EB74E002C068E572E0CE0196DFB6
:1023200068E572E0CE0199DFCC0CDD1CEE1CFF1CD1
:102330000F5F1F4FE9CFDF91CF911F910F91FF905A
:10234000EF90DF90CF90BF90AF9008956093170803
:10235000109219080895F8941092800089E08093F3
:10236000810080E293E0909389008093880010922E
:1023700085001092840082E080936F0078948093AF
:1023800018081092B4088091170860E08ECD1F9253
:102390000F920FB60F9211242F933F934F935F9399
:1023A0006F937F938F939F93AF93BF93EF93FF931D
:1023B00080911708E8DD20911A0830911B082F5FE3
:1023C0003F4F30931B0820931A089091B4089C3417
:1023D00018F095E090931808909118089330B9F090
:1023E00018F4923039F057C0943059F1953009F40F
:1023F0004CC051C081114FC020911A0830911B0868
:102400002436310508F443C01092B4081CC0813052
:1024100009F041C0E091B40891E09E0F9093B40898
:10242000F0E020911A0830911B08EE0FFF1FE95EC3
:10243000F74F3683258310921B0810921A0894E0F8
:1024400021C0811117C0E091B40891E09E0F9093D4
:10245000B408F0E020911A0830911B08EE0FFF1F1E
:10246000E95EF74F3683258310921B0810921A08F5
:1024700093E008C020911A0830911B0825363105D9
:1024800050F095E09093180806C0811104C0109296
:102490001B0810921A0890911908992329F08111AC
:1024A00002C02D9A01C02D98FF91EF91BF91AF917D
:1024B0009F918F917F916F915F914F913F912F915C
:1024C0000F900FBE0F901F90189582E08093180810
:1024D0001092B40808950F931F93CF93DF93EB01ED
:1024E000E885F985828193818838910508F46CC06C
:1024F00082819381853E910508F066C08091B40881
:10250000843081F484819581809760F08481958105
:10251000C79740F486819781099720F0868197813B
:10252000429728F18091B408843408F44DC0848126
:1025300095818234910508F447C084819581803764
:10254000910508F041C08F010A5F1F4F23E030E082
:1025500080E090E0DC01F801408151814930510573
:1025600098F1408151814231510598F02DC01F8270
:102570001E828FEF9FEFDC018A839B83AC83BD8338
:1025800081E090E09983888361E070E080E090E0F2
:1025900036C0A8014E5F5F4FF801628173816631DA
:1025A000710530F0F801628173816732710580F046
:1025B000FA01608171816630710530F0FA01408165
:1025C00051814D305105B0F060E070E0CB0117C093
:1025D000880F991FAA1FBB1F81602E5F3F4F0C5FA2
:1025E0001F4F2334310509F0B6CF20E230E03F839E
:1025F0002E83C2CF880F991FAA1FBB1FEECFDF917A
:10260000CF911F910F9108950F931F93CF93DF9355
:102610008B018091B4088A3108F464C0DB011896FC
:10262000ED91FC91199782819381859708F45AC0A6
:10263000828193818034910508F054C0369622E05F
:1026400030E080E090E0DC014091B40850E0B90156
:102650006F5F7F4F641775073CF4EF012297688125
:1026600079816730710570F42150310935952795CE
:10267000F801378326832C30310554F4F801178292
:10268000168230C0488159814E30510570F0ECCF30
:1026900082839383A483B58382E090E091838083D7
:1026A00061E070E080E090E026C0408151814331DC
:1026B000510570F0408151814232510548F4880F34
:1026C000991FAA1FBB1F81602E5F3F4F3496BCCF5E
:1026D000408151814A30510528F040815181433178
:1026E000510520F060E070E0CB0105C0880F991F14
:1026F000AA1FBB1FE9CFDF91CF911F910F910895C2
:102700004F925F926F927F928F929F92AF92BF9201
:10271000CF92DF92EF92FF920F931F93CF93DF93AD
:102720006A015901DA01CD91DC91FB018285938523
:10273000C817D9070CF0BAC0CE01880F991F0084C2
:10274000F185E02DE80FF91FE080F180C170DD27F1
:10275000F1E0CF27209719F484E690E002C08CE9DD
:102760009FEF4801880E991EB401882777FD809558
:10277000982F2BD42B013C0120E030E040E45FE3B4
:10278000B0D420E030E048E452E484D3EBD3E61642
:10279000F706B4F020E030E040EA5FE3C301B201A5
:1027A000A0D420E030E048E452E474D320E030E0EC
:1027B00040E85FE30BD3D6D36E157F050CF05DC008
:1027C000800E911EB401882777FD8095982FFDD348
:1027D0002B013C0120E030E040E45FE382D420E0C4
:1027E00030E048E452E456D3BDD3E616F706ACF029
:1027F00020E030E040EA5FE3C301B20172D420E0A0
:1028000030E048E452E446D320E030E040E85FE3C3
:10281000DDD2A8D36E157F059CF5B401600F711F42
:10282000882777FD8095982FD0D32B013C0120E09D
:1028300030E040E45FE355D420E030E048E452E487
:1028400029D390D3E616F706A4F120E030E040EA61
:102850005FE3C301B20145D420E030E048E452E434
:1028600019D320E030E040E85FE3B0D27BD36E15AF
:102870007F05FCF023E030E005C021E030E002C03D
:1028800022E030E0D5018D919C911197019682173D
:10289000930744F0F50111821082D6018D919C912D
:1028A000119701968D939C93CE0105C081E090E035
:1028B00002C08FEF9FEFDF91CF911F910F91FF909B
:1028C000EF90DF90CF90BF90AF909F908F907F90D0
:1028D0006F905F904F9008954F925F926F927F92AA
:1028E0008F929F92AF92BF92CF92DF92EF92FF9220
:1028F0000F931F93CF93DF9300D000D0CDB7DEB7F7
:102900006C017B018091B4088D3020F460E070E0B0
:10291000CB0175C081E090E09C838B831A82198281
:1029200009E713E09E012F5F3F4FAE014D5F5F4F00
:10293000C601E6DE892B51F79E012F5F3F4FAE01A6
:102940004D5F5F4FB701C601DBDE0197F9F69E01CF
:102950002F5F3F4FAE014D5F5F4FB701C601D0DE25
:10296000892BA1F6A12CB12C412C512C3201809144
:10297000B40890E02B813C81281739078CF509E7D2
:1029800013E09E012F5F3F4FAE014D5F5F4FB701D8
:10299000C601B6DE4C019E012F5F3F4FAE014D5F79
:1029A0005F4FB701C601ACDE21E08216910451F4FD
:1029B000892B09F0ABCF440C551C661C771C68941E
:1029C00040F80AC0892809F0A1CF019709F09ECFED
:1029D000440C551C661C771C8FEFA81AB80AC7CF89
:1029E000F701B782A682428253826482758283E0B5
:1029F00090E09183808361E070E080E090E00F9050
:102A00000F900F900F90DF91CF911F910F91FF903A
:102A1000EF90DF90CF90BF90AF909F908F907F907E
:102A20006F905F904F9008952F923F924F925F92D8
:102A30006F927F928F929F92AF92BF92CF92DF92CE
:102A4000EF92FF920F931F93CF93DF9300D000D0AC
:102A5000CDB7DEB76C017B01DB011A968D919C919D
:102A60001B971816190624F060E070E0CB01B7C080
:102A700081E090E09C838B83DB011896ED91FC91C3
:102A8000199782819381899778F382819381873422
:102A9000910550F782E090E09C838B83848195813F
:102AA0000B9710F3848195814597F0F683E090E0D1
:102AB0009C838B831A8219820CEB11E09E012F5F9D
:102AC0003F4FAE014D5F5F4FB701C60119DE892B45
:102AD00059F60CEB11E09E012F5F3F4FAE014D5FA9
:102AE0005F4FB701C6010CDE019709F0BDCFA12CE5
:102AF000B12C212C312C21012B813C81F7018285C5
:102B00009385281739070CF05CC00CEB11E09E018F
:102B10002F5F3F4FAE014D5F5F4FB701C601F0DD44
:102B20003C01B3E0AB16B10489F00CEB11E09E015F
:102B30002F5F3F4FAE014D5F5F4FB701C601E0DD34
:102B40004C01E3E0AE16B104F9F40FC00CEB11E058
:102B50009E012F5F3F4FAE014D5F5F4FB701C60132
:102B6000CFDD6816790609F37FCF0CEB11E09E01EB
:102B70002F5F3F4FAE014D5F5F4FB701C601C0DD14
:102B80008816990609F070CF6114710459F48A947B
:102B9000892809F069CF220C331C441C551C689409
:102BA00020F80BC06A94672809F05ECF892809F0E5
:102BB0005BCF220C331C441C551CAFEFAA1ABA0A77
:102BC0009BCFB782A682228233824482558284E0E0
:102BD00090E09183808361E070E080E090E00F906E
:102BE0000F900F900F90DF91CF911F910F91FF9059
:102BF000EF90DF90CF90BF90AF909F908F907F909D
:102C00006F905F904F903F902F9008950F931F9378
:102C1000CF93DF938C01EB018CE198E09987888753
:102C20008091B40890E09B878A878091180885304E
:102C300089F5C80150DC672B682B692B19F5BE019B
:102C4000C801E2DC672B682B692BE1F4BE01C801E7
:102C500043DE672B682B692BA9F4BE01C801E4DEB3
:102C6000672B682B692B71F48A859B8506976CF01E
:102C70008FEF9FEF998388831F821E821A821B82A7
:102C80001C821D8281E090E007C082E080931808DA
:102C90001092B40880E090E0DF91CF911F910F91E6
:102CA0000895BF92CF92DF92EF92FF920F931F93FE
:102CB000CF93DF93C82ED62EB42EC7E0D0E0022FDC
:102CC00010E087E0E82EF12CB1100AC0F701EC1BF0
:102CD000FD0BB80102C075956795EA95E2F707C04C
:102CE000B8010C2E02C0759567950A94E2F76170E1
:102CF00077278C2D13D961E08D2D10D960E08D2DB3
:102D00000DD9219708F7DF91CF911F910F91FF9077
:102D1000EF90DF90CF90BF900895AA1BBB1B51E1AD
:102D200007C0AA1FBB1FA617B70710F0A61BB70B3B
:102D3000881F991F5A95A9F780959095BC01CD01E0
:102D40000895A1E21A2EAA1BBB1BFD010DC0AA1FEC
:102D5000BB1FEE1FFF1FA217B307E407F50720F004
:102D6000A21BB30BE40BF50B661F771F881F991F7F
:102D70001A9469F760957095809590959B01AC01C8
:102D8000BD01CF010895052E97FB16F400940FD0D6
:102D900057FD05D0D6DF07FC02D046F408C0509599
:102DA0004095309521953F4F4F4F5F4F0895909537
:102DB0008095709561957F4F8F4F9F4F0895EE0FCF
:102DC000FF1F0590F491E02D09945058BB27AA27C6
:102DD0000ED04DC13ED130F043D120F031F49F3FB1
:102DE00011F41EF433C10EF4E095E7FB29C1E92F7D
:102DF0004FD180F3BA17620773078407950718F05D
:102E000071F49EF567C10EF4E0950B2EBA2FA02D3C
:102E10000B01B90190010C01CA01A0011124FF2787
:102E2000591B99F0593F50F4503E68F11A16F04082
:102E3000A22F232F342F4427585FF3CF4695379581
:102E40002795A795F0405395C9F77EF41F16BA0B46
:102E5000620B730B840BBAF09150A1F0FF0FBB1FF4
:102E6000661F771F881FC2F70EC0BA0F621F731F3D
:102E7000841F48F4879577956795B795F7959E3F9A
:102E800008F0B3CF9395880F08F09927EE0F979528
:102E9000879508950CD0EBC0E3D040F0DAD030F045
:102EA00021F45F3F19F0CCC0511115C1CFC0F0D053
:102EB00098F39923C9F35523B1F3951B550BBB2701
:102EC000AA2762177307840738F09F5F5F4F220FAE
:102ED000331F441FAA1FA9F333D00E2E3AF0E0E8A7
:102EE00030D091505040E695001CCAF729D0FE2FF3
:102EF00027D0660F771F881FBB1F26173707480785
:102F0000AB07B0E809F0BB0B802DBF01FF2793583A
:102F10005F4F2AF09E3F510568F092C0DCC05F3FD2
:102F2000ECF3983EDCF3869577956795B795F79522
:102F30009F5FC9F7880F911D9695879597F908951A
:102F4000E1E0660F771F881FBB1F621773078407B6
:102F5000BA0720F0621B730B840BBA0BEE1F88F7C5
:102F6000E095089504D06894B111B5C0089598D043
:102F700088F09F5790F0B92F9927B751A0F0D1F062
:102F8000660F771F881F991F1AF0BA95C9F712C0EC
:102F9000B13081F09FD0B1E008959CC0672F782FA9
:102FA0008827B85F39F0B93FCCF386957795679558
:102FB000B395D9F73EF490958095709561957F4FC4
:102FC0008F4F9F4F0895E89409C097FB3EF490956A
:102FD0008095709561957F4F8F4F9F4F9923A9F0F2
:102FE000F92F96E9BB279395F69587957795679581
:102FF000B795F111F8CFFAF4BB0F11F460FF1BC0C5
:103000006F5F7F4F8F4F9F4F16C0882311F096E957
:1030100011C0772321F09EE8872F762F05C0662305
:1030200071F096E8862F70E060E02AF09A95660FBE
:10303000771F881FDAF7880F9695879597F9089577
:1030400097F99F6780E870E060E008959FEF80EC5B
:10305000089500240A9416161706180609060895FE
:1030600000240A9412161306140605060895092E64
:103070000394000C11F4882352F0BB0F40F4BF2BD3
:1030800011F460FF04C06F5F7F4F8F4F9F4F089513
:1030900057FD9058440F551F59F05F3F71F0479509
:1030A000880F97FB991F61F09F3F79F087950895EE
:1030B000121613061406551FF2CF4695F1DF08C00D
:1030C000161617061806991FF1CF8695710561052A
:1030D00008940895E894BB2766277727CB0197F9D2
:1030E00008950BD0C4CFB5DF28F0BADF18F09523D0
:1030F00009F0A6CFABCF1124EECFCADFA0F3959F86
:10310000D1F3950F50E0551F629FF001729FBB27CE
:10311000F00DB11D639FAA27F00DB11DAA1F649F7A
:103120006627B00DA11D661F829F2227B00DA11D2D
:10313000621F739FB00DA11D621F839FA00D611DB3
:10314000221F749F3327A00D611D231F849F600DD4
:10315000211D822F762F6A2F11249F5750408AF00D
:10316000E1F088234AF0EE0FFF1FBB1F661F771F99
:10317000881F91505040A9F79E3F510570F060CFD5
:10318000AACF5F3FECF3983EDCF386957795679581
:10319000B795F795E7959F5FC1F7FE2B880F911DB7
:1031A0009695879597F90895CF93DF93823091058F
:1031B00010F482E090E0E091B708F091B80820E0C8
:1031C00030E0A0E0B0E0309739F1408151814817FC
:1031D0005907B8F04817590771F482819381109705
:1031E00029F013969C938E9312972CC09093B80855
:1031F0008093B70827C02115310531F042175307D6
:1032000018F0A901DB0101C0EF019A01BD01DF0146
:103210000280F381E02DD7CF21153105F9F0281B6D
:10322000390B2430310580F48A819B816115710549
:1032300021F0FB019383828304C09093B8088093AC
:10324000B708FE01329644C0FE01E20FF31F8193DE
:10325000919322503109398328833AC02091B508CF
:103260003091B608232B41F42091020130910301E3
:103270003093B6082093B5082091000130910101E8
:103280002115310541F42DB73EB74091040150910D
:103290000501241B350BE091B508F091B608E21743
:1032A000F307A0F42E1B3F0B2817390778F0AC0169
:1032B0004E5F5F4F2417350748F04E0F5F1F509346
:1032C000B6084093B5088193919302C0E0E0F0E026
:1032D000CF01DF91CF910895CF93DF93009709F449
:1032E00087C0FC01329713821282C091B708D09137
:1032F000B808209781F420813181280F391F8091EF
:10330000B5089091B6088217930779F5F093B6083F
:10331000E093B5086DC0DE0120E030E0AE17BF07D6
:1033200050F412964D915C9113979D0141155105F2
:1033300009F1DA01F3CFB383A28340815181840F75
:10334000951F8A179B0771F48D919C911197840F9B
:10335000951F02969183808312968D919C9113976D
:10336000938382832115310529F4F093B808E09303
:10337000B7083EC0D9011396FC93EE9312974D9176
:103380005D91A40FB51FEA17FB0779F48081918145
:10339000840F951F0296D90111969C938E9382817A
:1033A000938113969C938E931297E0E0F0E08A81CC
:1033B0009B81009719F0FE01EC01F9CFCE01029636
:1033C00028813981820F931F2091B5083091B6086A
:1033D0002817390769F4309729F41092B808109229
:1033E000B70802C013821282D093B608C093B50802
:1033F000DF91CF910895A0E0B0E0E0E0FAE1A0C352
:10340000EC01CB01209711F4CFDEB4C0FE01E60F32
:10341000F71F9E0122503109E217F30708F4A8C0F4
:10342000D9010D911C91119706171707B0F00530BF
:10343000110508F49BC0A8014450510946175707CD
:1034400008F494C002501109061B170B0193119345
:103450006D937C93CF0140DF89C05B01A01AB10A54
:103460004E01800E911EA091B708B091B808612C52
:10347000712C60E070E0109709F449C0A815B905F7
:10348000C9F5ED90FC901197670142E0C40ED11C84
:10349000CA14DB0478F147018A189B08640142E0F2
:1034A000C40ED11C1296BC9012971396AC91B5E045
:1034B000CB16D10440F0B282A38391828082D901DD
:1034C0008D939C9309C00E5F1F4F0E0D1F1DF901B8
:1034D00011830083EB2DFA2F6115710531F0DB01AB
:1034E0001396FC93EE93129741C0F093B808E093C3
:1034F000B7083CC06D917C9111976616770608F469
:103500003B01BD0112960D90BC91A02DB4CF6091EE
:10351000B5087091B60868157905E9F4681679065A
:10352000D0F440910001509101014115510541F441
:103530004DB75EB76091040170910501461B570BB2
:10354000E417F507A8F4F093B608E093B508F9017D
:10355000918380830BC028DE7C01009749F0A8018D
:10356000BE010CD0CE01B8DEC70104C0CE0102C03E
:1035700080E090E0CDB7DEB7EEE0FEC2FB01DC01FB
:1035800002C001900D9241505040D8F70895FB01C0
:10359000DC018D91019080190110D9F3990B0895E8
:1035A000FB01DC0101900D920020E1F70895453206
:1035B000510518F4423008F004C0FB011082CB0121
:1035C0000895BB274A3031F4992322F4BDE2909547
:1035D00081959F4F01C0BB27FB015527AA27880F64
:1035E000991FAA1FA41710F0A41B83955051B9F777
:1035F000A05DAA3308F0A95DA193009779F7B111F6
:10360000B1931192CB01F8C1AEE0B0E0E9E0FBE18B
:10361000A1C20D891E8986E08C831A8309838FEFEE
:103620009FE79E838D83AE01475E5F4F6F89788DE4
:10363000CE01019608D0EF81F885E00FF11F1082CE
:103640002E96E4E0A3C2ACE0B0E0E8E2FBE174C295
:103650007C016B018A01FC0117821682838181FF44
:10366000B0C1CE0101964C01F7019381F60193FDA3
:10367000859193FF81916F01882309F49EC1853262
:1036800039F493FD859193FF81916F01853221F487
:10369000B70190E0C1D1E8CF512C312C20E020328D
:1036A000A0F48B3269F030F4803259F0833269F43F
:1036B00020612CC08D3239F0803339F4216026C06E
:1036C0002260246023C0286021C027FD27C030ED80
:1036D000380F3A3078F426FF06C0FAE05F9E300DCE
:1036E0001124532E13C08AE0389E300D1124332E3E
:1036F00020620CC08E3221F426FD5FC1206406C01A
:103700008C3611F4206802C0883641F4F60193FD2E
:10371000859193FF81916F018111C1CF982F9F7D7A
:103720009554933028F40C5F1F4FFFE3F9830DC0CD
:10373000833631F0833771F0833509F057C021C0EB
:10374000F801808189830E5F1F4F44244394512CDC
:10375000540114C03801F2E06F0E711CF801A08012
:10376000B18026FF03C0652D70E002C06FEF7FEFD0
:10377000C5012C8736D12C0183012C852F77222E71
:1037800016C03801F2E06F0E711CF801A080B18004
:1037900026FF03C0652D70E002C06FEF7FEFC5010B
:1037A0002C8714D12C012C852068222E830123FC28
:1037B00019C0832D90E048165906A0F4B70180E2A5
:1037C00090E02AD13A94F5CFF50127FC859127FEA8
:1037D00081915F01B70190E01FD131103A94F1E07F
:1037E0004F1A51084114510479F7DEC0843611F0A4
:1037F000893631F5F80127FF07C060817181828128
:1038000093810C5F1F4F08C060817181882777FD0D
:103810008095982F0E5F1F4F2F76B22E97FF09C00D
:1038200090958095709561957F4F8F4F9F4F206841
:10383000B22E2AE030E0A40121D1A82EA81843C05E
:10384000853729F42F7EB22E2AE030E025C0F22FF2
:10385000F97FBF2E8F36C1F018F4883579F0ADC0EE
:10386000803719F0883721F0A8C02F2F2061B22EA1
:10387000B4FE0DC08B2D8460B82E09C024FF0AC091
:103880009F2F9660B92E06C028E030E005C020E1E9
:1038900030E002C020E132E0F801B7FE07C06081ED
:1038A0007181828193810C5F1F4F06C0608171819D
:1038B00080E090E00E5F1F4FA401E0D0A82EA81872
:1038C000FB2DFF77BF2EB6FE0BC02B2D2E7FA51430
:1038D00050F4B4FE0AC0B2FC08C02B2D2E7E05C0E9
:1038E0007A2C2B2D03C07A2C01C0752C24FF0DC01F
:1038F000FE01EA0DF11D8081803311F4297E09C09B
:1039000022FF06C07394739404C0822F867809F056
:10391000739423FD12C020FF06C05A2C731418F4B0
:10392000530C5718732C731460F4B70180E290E0C5
:103930002C8772D073942C85F6CF731410F437183B
:1039400001C0312C24FF11C0B70180E390E02C8727
:1039500063D02C8522FF16C021FF03C088E590E0CC
:1039600002C088E790E0B7010CC0822F867851F042
:1039700021FD02C080E201C08BE227FD8DE2B7018C
:1039800090E04AD0A51430F4B70180E390E044D031
:103990005A94F8CFAA94F401EA0DF11D8081B70181
:1039A00090E03AD0A110F6CF332009F45DCEB701F4
:1039B00080E290E031D03A94F7CFF7018681978189
:1039C00002C08FEF9FEF2C96E2E1D2C0FC01059080
:1039D000615070400110D8F7809590958E0F9F1F11
:1039E0000895FC016150704001900110D8F7809556
:1039F00090958E0F9F1F0895DC01FC01672F719138
:103A00007723E1F7329704C07C916D9370836291C4
:103A1000AE17BF07C8F308950F931F93CF93DF939B
:103A2000182F092FEB018B8181FD03C08FEF9FEFD2
:103A300020C082FF10C04E815F812C813D814217E2
:103A400053077CF4E881F9819F012F5F3F4F398351
:103A50002883108306C0E885F985812F0995892B75
:103A600029F72E813F812F5F3F4F3F832E83812F88
:103A7000902FDF91CF911F910F910895FA01AA27FE
:103A8000283051F1203181F1E8946F936E7F6E5FA1
:103A90007F4F8F4F9F4FAF4FB1E03ED0B4E03CD04F
:103AA000670F781F891F9A1FA11D680F791F8A1F32
:103AB000911DA11D6A0F711D811D911DA11D20D099
:103AC00009F468943F912AE0269F11243019305D53
:103AD0003193DEF6CF010895462F4770405D419344
:103AE000B3E00FD0C9F7F6CF462F4F70405D4A3391
:103AF00018F0495D31FD4052419302D0A9F7EACF59
:103B0000B4E0A6959795879577956795BA95C9F787
:103B100000976105710508959B01AC010A2E06947A
:103B20005795479537952795BA95C9F7620F731F33
:103B3000841F951FA01D08952F923F924F925F9270
:103B40006F927F928F929F92AF92BF92CF92DF92AD
:103B5000EF92FF920F931F93CF93DF93CDB7DEB712
:103B6000CA1BDB0B0FB6F894DEBF0FBECDBF0994A6
:103B70002A88398848885F846E847D848C849B84FD
:103B8000AA84B984C884DF80EE80FD800C811B810B
:103B9000AA81B981CE0FD11D0FB6F894DEBF0FBE3A
:0A3BA000CDBFED010895F894FFCFAA
:103BAA000000B90880000AA00FA10AA20FA30BA463
:103BBA000FA50BA60FA71FA01FA11FA21FA31BA41F
:103BCA001FA51BA61FA72CA02FA12FA22FA32FA48E
:103BDA002FA52FA62FA73CA03FA13FA23FA33FA4FA
:103BEA003FA53FA63FA74CA04FA14FA24DA34DA46E
:103BFA004DA54DA64FA75FA05FA15FA25FA35FA4DB
:103C0A005FA55FA65FA76FA06FA16FA26FA36FA446
:103C1A006FA56FA66FA77EA07EA17EA27EA37EA4BB
:103C2A007FA57FA67FA7D804D804D804D804D804CF
:103C3A00D804D804D804D804D804D804D804D8049A
:103C4A00D804D804D804D804D804D804D804D8048A
:103C5A00D804D804D804D804D804D804D804D8047A
:103C6A00D804D804D804D804D804D804D804D8046A
:103C7A00D804D804D804D804D804D804D804D8045A
:103C8A00D804D804D804D804D804D804D804D8044A
:103C9A00D804D804D804D804D804D804D804D8043A
:103CAA00D804D804D80412001200DA040505300535
:103CBA005A058405AB05D505FF05180621064006F9
:103CCA0000000000000000000000000000000000EA
:103CDA0000000000000000000000000000000000DA
:103CEA0000000000000000000000000000000000CA
:103CFA0000000000000000000000000000000000BA
:103D0A0000000000000000000000000000000000A9
:103D1A000000000000000000000000000000000099
:103D2A000000000000000000000000000000000089
:103D3A000000000000000000000000000000000079
:103D4A000000000000000000000000000000000069
:103D5A000000000000000000000000000000000059
:103D6A000000000000000000000000000000000049
:103D7A00CA04CA04F403F403F603F803BD04000AF0
:103D8A00100A200A300A400A500A600A700A010A18
:103D9A00110A210A310A410A510A610A710A020A00
:103DAA00120A220A320A420A520A620A720A030AE8
:103DBA00130A230A330A430A530A630A730A040AD0
:103DCA00140A240A340A440A540A640A740A050AB8
:103DDA00150A250A350A450A550A650A750A060AA0
:103DEA00160A260A360A460A560A660A760A070A88
:103DFA00170A270A370A470A570A670A770A5461CD
:103E0A006D616E686F20646F206E6176696F2069DC
:103E1A006E76616C69646F2E00506F736963616FAF
:103E2A00206D7569746F2070726F78696D61206199
:103E3A00206F7574726120656D6261726361C3A7D8
:103E4A00616F2E00506F736963616F20696E7661CE
:103E5A006C6964612E005375626D6172696E6F00E0
:103E6A00486964726F617669616F004372757A613D
:103E7A00646F7200456E636F7572616361646F008F
:103E8A00506F7274612D617669616F002578004107
:103E9A006775610042004300440041636572746FB4
:103EAA007520002878312C7931292C2878322C7900
:103EBA0032293A20002C00456E7669616E646F20C3
:103ECA004D656E736167656D3A20004845583A2022
:103EDA0000456E7669616E646F2070726F746F63ED
:103EEA006F6C6F3A2000526563656269646F206F78
:103EFA00205469726F20004167756120004167751F
:103F0A00617264616E646F204D656E736167656D81
:103F1A003A20005265636562656E646F2028736596
:103F2A006E6452656C617929204D656E73616765AF
:103F3A006D3A20005265636562656E646F2028657C
:103F4A00736375746129204D656E736167656D3A97
:103F5A002000504153534F5F415441515545005041
:103F6A004153534F5F4445464553410046696D20CE
:103F7A006465206A6F676F00460044696769746503
:103F8A0020617320636F6F7264656E64616461732C
:103F9A0020646F20486964726F617669616F2031AD
:103FAA002028312900446967697465206173206398
:103FBA006F6F7264656E646164617320646F204818
:103FCA006964726F617669616F2032202831290035
:103FDA0044696769746520617320636F6F726465F1
:103FEA006E646164617320646F205375626D6172DF
:103FFA00696E6F2031202832290044696769746527
:10400A0020617320636F6F7264656E6461646173AB
:10401A0020646F205375626D6172696E6F20322061
:10402A002832290044696769746520617320636FC7
:10403A006F7264656E646164617320646F20437299
:10404A00757A61646F72202833290044696769743C
:10405A006520617320636F6F7264656E6461646169
:10406A007320646F20456E636F7572616361646F5C
:10407A0020283429004469676974652061732063C4
:10408A006F6F7264656E646164617320646F20503F
:10409A006F7274612D617669616F2028352900413C
:1040AA006775617264616E646F20416476657273CC
:1040BA006172696F2E2E2E0041746171756521211E
:1040CA000046696D206465204A6F676F2120566F2C
:1040DA006365205065726465752121203A282000A5
:1040EA0046696D206465204A6F676F2120566F63A9
:1040FA00652047616E686F752121203A2900010009
:10410A000100020002000300040005000000000094
:0C411A001A0A830B9E09B709A909F909CC
:00000001FF
