:1000000063C0000089C0000087C0000085C00000F8
:1000100083C0000081C000007FC000007DC00000E0
:100020007BC0000079C0000077C0000075C00000F0
:1000300073C0000071C000006FC000006DC0000000
:100040000C94640C69C000000C9460090C94920933
:1000500063C0000061C000005FC000005DC0000020
:100060005BC0000059C00000000000080002010051
:100070000003040700000000000000000102040863
:100080001020408001020408102001020408102002
:10009000040404040404040402020202020203032E
:1000A00003030303000000002300260029000000D2
:1000B0000000250028002B0000000000240027007D
:1000C0002A000F08C0091D0811241FBECFEFD8E079
:1000D000DEBFCDBF14E0A0E0B1E0E2E1F4E202C097
:1000E00005900D92A43EB107D9F726E0A4EEB4E046
:1000F00001C01D92AB36B207E1F710E0C6ECD0E0CC
:1001000004C02297FE010E948B0FC23CD107C9F7A1
:100110000E94590C0C94FD1173CFBC0181EC95E049
:100120000C94790A242F462F682F8DE695E00C94C5
:10013000BC0E26E040E855E260E070E081EC95E01E
:100140000E94000960E088E00E945A0D60E087E0AC
:100150000E945A0D60E08AE00E945A0D61E08CE036
:100160000E945A0D61E082E00E945A0D60E08BE02F
:100170000E945A0D8DE695E00E94960E61E08DE694
:1001800095E00E94300E60910C0170910D0141E0EC
:1001900050E080910E0190910F01C4DF6091080141
:1001A0007091090141E050E080910A0190910B01AA
:1001B000B9CFEF92FF920F931F93CF93DF93F82E57
:1001C0008B01E42EC0E0D0E0C017D10739F02E2D0E
:1001D0004C2F6F2D8DE695E00E94BC0E64E170E01F
:1001E00080E090E00E94D10C2196C830D10561F7E3
:1001F000DF91CF911F910F91FF90EF900895EF92B3
:10020000FF920F931F93CF93DF93F82E8B01E42E71
:10021000C0E0D0E0C017D10739F02E2D4F2D6C2F44
:100220008DE695E00E94BC0E64E170E080E090E015
:100230000E94D10C2196C830D10561F7DF91CF9192
:100240001F910F91FF90EF900895AF92BF92CF92C0
:10025000DF92EF92FF920F931F93CF93DF937C0176
:100260006B01EA01890193E0A92EB12C41E050E035
:10027000B601C70157DF41E050E0B801CE0152DFBF
:1002800062E370E080E090E00E94D10C40E050E03A
:10029000B601C70147DF40E050E0B801CE0142DFC0
:1002A00062E370E080E090E00E94D10C81E0A81A47
:1002B000B108E1F641E050E0B601C70133DF41E0AB
:1002C00050E0B801CE012EDF62E370E080E090E004
:1002D000DF91CF911F910F91FF90EF90DF90CF9022
:1002E000BF90AF900C94D10CEF92FF920F931F939D
:1002F000CF93DF93EC018B0123E0E22EF12C41E060
:1003000050E0B801CE010EDF62E370E080E090E0E3
:100310000E94D10C40E050E0B801CE0103DF62E35F
:1003200070E080E090E00E94D10C81E0E81AF108D2
:1003300031F741E050E0B801CE01F4DE62E370E055
:1003400080E090E0DF91CF911F910F91FF90EF90AF
:100350000C94D10CCF92DF92EF92FF920F931F93E8
:10036000CF93DF938C01EB017A016901FC0180815D
:100370009181688179818417950719F46217730751
:1003800019F040E050E0CEDEF801808191810196C5
:10039000883091051CF49183808308C0F801118294
:1003A00010828881998101969983888388819981B7
:1003B000089714F01982188264E670E080E090E0FB
:1003C0000E94D10CF80180819181688179818E151C
:1003D0009F0519F46C157D0559F041E050E0DF915F
:1003E000CF911F910F91FF90EF90DF90CF909ACE19
:1003F000DF91CF911F910F91FF90EF90DF90CF9001
:1004000008950F931F93CF93DF93EC018B0140E08E
:1004100050E088819981CDDE88819981019688306C
:1004200091051CF49983888302C01982188241E0E7
:1004300050E0B80188819981DF91CF911F910F9190
:10044000B8CE0F931F93CF93DF93EC018B0140E065
:1004500050E088819981D3DE888199810196883026
:1004600091051CF49983888302C01982188241E0A7
:1004700050E0B80188819981DF91CF911F910F9150
:10048000BECEAF92BF92CF92DF92EF92FF920F93C8
:100490001F93CF93DF930BEE14E040E2E42E41E094
:1004A000F42EB12C38E0A32EC0E0D0E06801CC0ED1
:1004B000DD1EF60120814B2D6A2D8DE695E00E9410
:1004C000BC0E8091E404882389F0F601608171817B
:1004D0004AE050E081EC95E00E94270BF701EC0F19
:1004E000FD1F6081718181EC95E0D9D72296A3949C
:1004F000F0E1AF12DBCF8091E404882329F065E8B6
:1005000072E081EC95E0F5D7005F1F4FB39480E176
:10051000E80EF11CE8E0BE12C5CFDF91CF911F912C
:100520000F91FF90EF90DF90CF90BF90AF90089524
:100530008091E404882309F43CC064E772E081EC14
:1005400095E0ADD760910E0170910F014AE050E047
:1005500081EC95E00E94270B66E872E081EC95E063
:100560009ED760910C0170910D014AE050E081EC42
:1005700095E00E94270B66E872E081EC95E08FD74A
:1005800060910A0170910B014AE050E081EC95E026
:100590000E94270B66E872E081EC95E080D76091BD
:1005A0000801709109014AE050E081EC95E00C945B
:1005B0002E0B08952F923F924F925F926F927F92EF
:1005C0008F929F92AF92BF92CF92DF92EF92FF9263
:1005D0000F931F93CF93DF9300D000D000D0CDB7FF
:1005E000DEB760910E0170910F0140910A015091A8
:1005F0000B0180910C0190910D0120910801309127
:1006000009016417750709F049C100916B05109144
:100610006C051C830B838217930709F068C058018F
:10062000AA0CBB1CF501EA59FD4F20813181213014
:10063000310519F068E872E007C2AC014150510978
:100640008C01E3E0000F111FEA95E1F79801260FF6
:10065000371F220F331F25513B4FE0E0F0E06C01C4
:10066000AFEFCA1ADA0AC416D5069CF07096790163
:10067000EE0EFF1EB0E2EB1AF108D701ED90FC90F0
:10068000EA94EF2819F463EA72E0DEC14F5F5F4F2E
:10069000EACFCB01019740E050E07B01EFEFEE1A8B
:1006A000FE0AE816F9066CF04E5F5F4FF901E40FA1
:1006B000F51F34970190F081E02D319721F30196D9
:1006C000F0CFF501EE5EFE4F80819181600F711FCA
:1006D000660F771FFB01E551FB4F21E030E03183CE
:1006E0002083FB01E05EFE4F91838083CDC04B8071
:1006F0005C80440C551CF201EA59FD4FA081B18188
:10070000821793072CF0AC012817390724F001C099
:10071000A901FC0101C0F9014E1B5F0B4F5F5F4F48
:10072000A417B50709F086CFA901821793070CF427
:10073000AC014A01F1E08F1A91088B0101501109B7
:10074000DB011196FA01EE0FFF1FEE0FFF1FEE0FF8
:10075000FF1FE60FF71FEE0FFF1FFE83ED83E5512E
:10076000FB4F1F010830110510F4F80101C0FB0117
:1007700013E0EE0FFF1F1A95E1F7E40FF51FEE0FE0
:10078000FF1FE551FB4FA830B10508F4BD01A3E000
:10079000660F771FAA95E1F7640F751F660F771F25
:1007A00065517B4F9A828982A12CB12CE12CF12CCE
:1007B0006901281739070CF46C013601BFEF6B1A79
:1007C0007B0A09811A8160167106E4F16101CA0C85
:1007D000DB1C00E1C01AD108D601CD90DC90CA9490
:1007E000CD2809F450CF09811A8108151905E9F0BF
:1007F00006151705D1F06F01CE0CDF1C12E0C11AEF
:10080000D108D601CD90DC90CA94CD2809F43BCF15
:100810006B01CE0CDF1C02E0C01AD108D601CD90CE
:10082000DC90CA94CD2809F42ECF09811A810F5F7C
:100830001F4F1A83098312E0E10EF11CA0E1AA0EFA
:10084000B11CB6CFAD81BE81A05EBE4F80E090E00E
:1008500021E030E0B2016E5E7E4F2B01C416D5065A
:100860009CF0B101680F791FFB01318320838D015A
:10087000080F191FF20160817181F8017183608393
:100880004F5F5F4F4096EACF0B811C810F5F1F4F78
:1008900010936C0500936B05F801B5C082179307A0
:1008A00009F0D0C060906B0570906C052A01461766
:1008B00057070CF42B019A01641775070CF49B0180
:1008C0005301AA0CBB1CF501EA59FD4FA201421BC2
:1008D000530B4F5F5F4F608171816417750709F09B
:1008E000A9CE7901F1E0EF1AF108AC0141505109AC
:1008F000FC013196BC0113E0660F771F1A95E1F7F2
:10090000620F731F660F771F8B0105511B4F480144
:100910004830510508F0AC01A3E0440F551FAA95DB
:10092000E1F7420F531F440F551F45515B4FE8300D
:10093000F10508F4CF01E3E0880F991FEA95E1F78C
:10094000820F931F880F991F85519B4F1701A0E0BD
:10095000B0E062011FEFC11AD10AC214D3047CF1C6
:1009600084010A0F1B1F02501109F8010081118137
:100970000130110509F487CE2E143F04D9F02C1450
:100980003D04C1F08A010A0F1B1F02501109F80132
:10099000008111810130110509F475CE8C010A0F17
:1009A0001B1F02501109F80100811181013011054E
:1009B00009F469CEFFEF2F1A3F0A1296CECF605E80
:1009C0007E4F80E090E041E050E0F501EE5EFE4FAA
:1009D0004216530684F0D401A80FB91F4D935C93BF
:1009E000DB01A80FB91F008111810D931C932F5FAC
:1009F0003F4F0296EDCF0FEF601A700A70926C05B0
:100A000060926B05F301EE0FFF1FE056FE4F8081F1
:100A1000918126960FB6F894DEBF0FBECDBFDF9151
:100A2000CF911F910F91FF90EF90DF90CF90BF90EB
:100A3000AF909F908F907F906F905F904F903F907E
:100A40002F906BCB6EEC72E081EC95E026960FB6A2
:100A5000F894DEBF0FBECDBFDF91CF911F910F91F4
:100A6000FF90EF90DF90CF90BF90AF909F908F90CE
:100A70007F906F905F904F903F902F903AC587E0A6
:100A80000E94C80D019759F088E00E94C80D019797
:100A900031F08AE00E94C80D019709F03EC087E05E
:100AA0000E94C80D019771F420910801309109014D
:100AB00040910A0150910B016CE071E08EE091E0F1
:100AC00049DC36DD88E00E94C80D019771F4209161
:100AD0000C0130910D0140910E0150910F0168E021
:100AE00071E08AE091E036DC23DD8AE00E94C80DE7
:100AF000019799F4209108013091090140910A0170
:100B000050910B0160910C0170910D0180910E01CB
:100B100090910F019ADB4EDDB4CC089561E082E044
:100B20000E94930D60ED77E080E090E03AD760E0BE
:100B300082E0F9C761E082E0F6D764EF71E080E01F
:100B400090E02FD760E082E0EED764EF71E080E0C4
:100B500090E027D761E082E0E6D768EE73E080E0BE
:100B600090E01FD760E082E0DED764EF71E080E0C4
:100B700090E017C761E08CE0D6D768EC70E080E0C9
:100B800090E00FD760E08CE0CED768EC70E080E0BA
:100B900090E007D761E08CE0C6D768EC70E080E0B9
:100BA00090E0FFD660E08CE0BED768EC70E080E0BB
:100BB00090E0F7D660EE72E081EC95E070D465EEDF
:100BC00074E081EC95E085C46F927F928F929F9242
:100BD000AF92BF92CF92DF92EF92FF920F931F934B
:100BE000CF93DF93CDB7DEB7A4970FB6F894DEBFEF
:100BF0000FBECDBF65E872E0CE014F96ACD565E87B
:100C000072E085EE94E0D9D560910C0170910D01F0
:100C10004AE0CE010196E7D566E872E0CE0107967C
:100C20009AD560910E0170910F014AE0CE01439672
:100C3000DAD560E373E0CE010D968DD5BE016D5E11
:100C40007F4FCE010D9623D6BE01695F7F4F1FD621
:100C5000BE016F5F7F4F1BD6BC0181EC95E039D49C
:100C6000CE010D9611D5CE0143960ED5CE01079635
:100C70000BD5CE01019608D5B0E2AB2EB1E0BB2E6C
:100C80001BEE812E14E0912EC12CD12CE12CF12CE5
:100C900000E010E080910E0190910F01C816D90676
:100CA00009F0DAC080910C0190910D010817190725
:100CB00009F0D2C0F401EE0DFF1D808191811182F7
:100CC0001082019709F08AC0809106019091070176
:100CD0000197909307018093060135016E0C7F1CEC
:100CE000F30180819181F3E081349F0791F023E04B
:100CF0008334920789F0E3E085349E0781F0F3E0C6
:100D000087349F0779F08954934079F464E273E063
:100D10000EC06FEF72E00BC065EF72E008C06AE0D2
:100D200073E005C063E173E002C06FE173E0CE01E0
:100D3000499611D56BE473E0CE0101960CD5BE0146
:100D4000675E7F4FCE010196A2D5BC01CE014F96C2
:100D500017D5CE01019698D4F30160817181CE013F
:100D60000196F9D460910C0170910D014AE0CE0119
:100D70000D9639D560910E0170910F014AE0CE01B8
:100D8000439631D5BE016D5E7F4FCE0107960DD5DE
:100D9000BE01635F7F4FCE01079679D5BE016F5FBD
:100DA0007F4F75D5BC0185EE94E0EAD4CE0107965D
:100DB0006BD4CE01439668D4CE010D9665D4CE0196
:100DC000019662D4B7DED6DEBE01615E7F4F81EC54
:100DD00095E07FD3CE01499657D43EC09FDE609107
:100DE000100170911101CE010196B5D460910C01F2
:100DF00070910D014AE0CE010D96F5D460910E017F
:100E000070910F014AE0CE014396EDD4BE016D5EB4
:100E10007F4FCE010796C9D4BE01635F7F4FCE01DD
:100E2000079635D5BE016F5F7F4F31D5BC0185EE8A
:100E300094E0A6D4CE01079627D4CE01439624D4BD
:100E4000CE010D9621D4CE0101961ED493DE64E529
:100E500073E081EC95E04DD30F5F1F4FF0E1EF0E93
:100E6000F11C0830110509F015CF2FEFC21AD20A74
:100E700082E0A80EB11CE2E08E0E911CF8E0CF16C5
:100E8000D10409F003CFCE014F96FED3A4960FB63E
:100E9000F894DEBF0FBECDBFDF91CF911F910F91B0
:100EA000FF90EF90DF90CF90BF90AF909F908F908A
:100EB0007F906F90089587E06BD6019741F088E0AE
:100EC00067D6019721F08AE063D6019739F587E06C
:100ED0005FD6019741F460910C0170910D018EE095
:100EE00091E08FDA25DB88E053D6019741F46091D9
:100EF0000E0170910F018CE091E0A3DA19DB8AE01A
:100F000047D6019759F460910C0170910D018091C1
:100F10000E0190910F01E8D957DEB3CA0895CF931F
:100F2000DF9380916B0590916C0587309105B4F447
:100F3000FC01EE0FFF1FE056FE4F80819181EDD83E
:100F400080916B0590916C0507970CF065C097DD5B
:100F500064E670E080E090E024D5F2CF8730910520
:100F6000B1F58091AE019091AF01D7D860910C019D
:100F700070910D0141E050E080910E0190910F01C0
:100F800018D960910E0170910F0141E050E08091FD
:100F90000C0190910D0133D974DACAE0D0E0809150
:100FA0006B0590916C05079709F036C084DF80913E
:100FB000060190910701892B21F4D0936C05C09311
:100FC0006B0564E670E080E090E0EBD4E8CF0A9730
:100FD00091F48091B4019091B5019FD887E0D8D564
:100FE000892BD1F488E0D4D5892BB1F48AE0D0D50F
:100FF000892B91F4F3CF6AE573E081EC95E079D227
:1010000087E0C6D5892B41F488E0C2D5892B21F42D
:101010008AE0BED5892BA1F3DF91CF9108950F937C
:1010200002E026E045E064E08DE695E0DAD565E88B
:1010300072E085EE94E00F918EC385EE94E024C3B8
:10104000FC01818D228D90E0805C9F4F821B910975
:101050008F7399270895FC01918D828D981731F037
:10106000828DE80FF11D858D90E008958FEF9FEF41
:101070000895FC01918D828D981761F0828DDF01BA
:10108000A80FB11D5D968C91928D9F5F9F73928F7B
:1010900090E008958FEF9FEF089587EB99E0892BFB
:1010A00041F080E090E0892B21F061D181110C9416
:1010B00000000895FC01848DDF01A80FB11DA35A23
:1010C000BF4F2C91848D90E001968F739927848F68
:1010D000A689B7892C93A089B1898C9180648C935F
:1010E000938D848D981306C00288F389E02D80814A
:1010F0008F7D80830895CF93DF93EC01888D8823C3
:10110000C1F0EA89FB89808185FD05C0A889B9897C
:101110008C9186FD0EC00FB607FCF5CF808185FF50
:10112000F2CFA889B9898C9185FFEDCFCE01C2DFBE
:10113000E8CFDF91CF910895CF92DF92FF920F9386
:101140001F93CF93DF931F92CDB7DEB76C01DC0105
:101150005B969C915B975C968C915C97981307C00B
:101160005096ED91FC915197808185FD31C0F6013B
:10117000038D10E00F5F1F4F0F731127F02EF60144
:10118000848DF81210C00FB607FCF9CFD601509627
:10119000ED91FC915197808185FFF1CFC601698364
:1011A00089DF6981ECCF838DE80FF11DE35AFF4F92
:1011B0006083D6015B960C935B975296ED91FC9100
:1011C000539780818062808381E058968C930DC014
:1011D000D6015696ED91FC91579760835096ED910C
:1011E000FC91519780818064808381E090E00F9032
:1011F000DF91CF911F910F91FF90DF90CF900895D5
:10120000BF92CF92DF92EF92FF92CF93DF93EC01E8
:101210006A017B01B22EE889F98982E08083411559
:1012200081EE58076105710599F060E079E08DE382
:1012300090E0A70196014BD621503109410951098F
:101240005695479537952795211580E1380790F0F9
:10125000E889F989108260E874E88EE190E0A701DE
:10126000960135D6215031094109510956954795C6
:1012700037952795EC85FD853083EE85FF852083A6
:10128000188EEC89FD89B082EA89FB8980818061B2
:101290008083EA89FB89808188608083EA89FB8971
:1012A000808180688083EA89FB8980818F7D80834B
:1012B000DF91CF91FF90EF90DF90CF90BF90089596
:1012C0001F920F920FB60F9211242F938F939F931B
:1012D000EF93FF93E091D105F091D2058081E091E9
:1012E000D705F091D80582FD12C090818091DA0572
:1012F0008F5F8F732091DB05821751F0E091DA0543
:10130000F0E0EF53FA4F958F8093DA0501C08081AA
:10131000FF91EF919F918F912F910F900FBE0F90A2
:101320001F9018951F920F920FB60F9211242F93B2
:101330003F934F935F936F937F938F939F93AF935D
:10134000BF93EF93FF9381EC95E0B4DEFF91EF91B3
:10135000BF91AF919F918F917F916F915F914F91CD
:101360003F912F910F900FBE0F901F90189581EC19
:1013700095E066DE21E0892B09F420E0822F0895B4
:101380001092C4051092C30588EE93E0A0E0B0E08F
:101390008093C5059093C605A093C705B093C80573
:1013A00088ED94E09093C2058093C10585EC90E0B0
:1013B0009093CE058093CD0584EC90E09093D0057A
:1013C0008093CF0580EC90E09093D2058093D10577
:1013D00081EC90E09093D4058093D30582EC90E06B
:1013E0009093D6058093D50586EC90E09093D80530
:1013F0008093D7051092DA051092DB051092DC0578
:101400001092DD050895CF92DF92EF92FF920F9335
:101410001F93CF93DF936C017A01EB01E60EF71E69
:1014200000E010E0CE15DF0561F06991D601ED9185
:10143000FC910190F081E02DC6010995080F191F5C
:10144000F1CFC801DF91CF911F910F91FF90EF90E5
:10145000DF90CF9008956115710581F0DB010D904B
:101460000020E9F7AD0141505109461B570BDC0143
:10147000ED91FC910280F381E02D099480E090E0F1
:101480000895DC01ED91FC91DB0114964D915C9186
:1014900015976D917C910280F381E02D0994DBCF4B
:1014A000DC01ED91FC910190F081E02D09940F9306
:1014B0001F93CF93DF93EC016DE0F2DF8C016AE0C4
:1014C000CE01EEDF800F911FDF91CF911F910F9121
:1014D00008950F931F93CF93DF93EC01D2DF8C011C
:1014E000CE01E5DF800F911FDF91CF911F910F910A
:1014F00008950F931F93CF93DF93EC01ACDF8C0122
:10150000CE01D5DF800F911FDF91CF911F910F91F9
:1015100008958F929F92AF92BF92CF92DF92EF92F7
:10152000FF920F931F93CF93DF93CDB7DEB7A197B1
:101530000FB6F894DEBF0FBECDBF7C01C42EE52FE1
:10154000CB01D22E19A221E02D1510F02AE0D22EC7
:101550008E010F5D1F4F8D2C912CA12CB12C6C2D69
:101560007E2FA5019401B3D48C2DD29E8019112415
:10157000015011098A3014F4805D01C0895CF801C2
:101580008083211531054105510521F0C22EE32F3D
:10159000CA01E5CFB801C7015EDFA1960FB6F89486
:1015A000DEBF0FBECDBFDF91CF911F910F91FF9096
:1015B000EF90DF90CF90BF90AF909F908F90089565
:1015C000CF92DF92EF92FF920F931F93CF93DF930F
:1015D000EC016A017B012115310579F4E881F9817B
:1015E0000190F081E02D642FDF91CF911F910F9139
:1015F000FF90EF90DF90CF9009942A303105D9F415
:1016000077FF18C06DE24CDF8C0144275527BA01E3
:101610004C195D096E097F092AE0CE017ADF800F3F
:10162000911FDF91CF911F910F91FF90EF90DF906D
:10163000CF9008952AE0B701A601CE01DF91CF91A6
:101640001F910F91FF90EF90DF90CF9062CF9A01A2
:10165000AB01662757FD6095762FB2CF0F931F938E
:10166000CF93DF93EC019A01AB01662757FD60959C
:10167000762FA6DF8C01CE011ADF800F911FDF913C
:10168000CF911F910F910895FC0180819181DFC45A
:10169000CF93DF93EC0188819981009709F0D7D42B
:1016A000198218821D821C821B821A82DF91CF91BF
:1016B00008950F931F93CF93DF93EC018B016F5F1E
:1016C0007F4F8881998152D5009731F09983888323
:1016D0001B830A8381E001C080E0DF91CF911F91DD
:1016E0000F910895CF93DF93EC0188819981892B25
:1016F00029F08A819B818617970758F4CE01D9DF9C
:10170000882341F08C819D81892B19F4E881F9812E
:10171000108281E0DF91CF910895EF92FF920F93B5
:101720001F93CF93DF93EC017B018A01BA01DADFCB
:10173000811103C0CE01ACDF06C01D830C83B7014D
:1017400088819981DFD5CE01DF91CF911F910F91D3
:10175000FF90EF900895FC01118210821382128293
:10176000158214826115710551F0FB010190002072
:10177000E9F7AF0141505109461B570BCECF0895F1
:10178000CF93DF93EC01FB018617970751F060813F
:1017900071816115710521F044815581BEDF01C061
:1017A00077DFCE01DF91CF910895FC011182108285
:1017B0001382128215821482E3CFCF93DF93EC0160
:1017C0006115710559F0FB0101900020E9F7AF01A7
:1017D00041505109461B570BA0DF01C059DFCE0114
:1017E000DF91CF9108950F931F93CF93DF93CDB7E0
:1017F000DEB762970FB6F894DEBF0FBECDBF8C0187
:10180000CB01F80111821082138212821582148298
:1018100050E0BE016F5F7F4F7CD5BE016F5F7F4F91
:10182000C801CBDF62960FB6F894DEBF0FBECDBF06
:10183000DF91CF911F910F910895EF92FF920F9337
:101840001F93CF93DF93EC017B010C811D81611508
:10185000710511F480E014C04115510581F0040FA9
:10186000151FB8013FDF8823A9F3288139818C81B6
:101870009D81B701820F931F45D51D830C8381E0A5
:10188000DF91CF911F910F91FF90EF900895CF932B
:10189000DF93EC01FB014481558160817181CDDFD3
:1018A000811102C0CE01F4DECE01DF91CF91089507
:1018B00008959CD0FDDF0E949900CDE4D8E02FDB95
:1018C0002097E9F3EADBFBCF1F920F920FB60F923E
:1018D00011242F933F938F939F93AF93BF93809146
:1018E0005F0690916006A0916106B091620630910A
:1018F0005E0623E0230F2D3720F40196A11DB11DB4
:1019000005C026E8230F0296A11DB11D20935E0697
:1019100080935F0690936006A0936106B093620681
:101920008091630690916406A0916506B091660669
:101930000196A11DB11D8093630690936406A09348
:101940006506B0936606BF91AF919F918F913F91CD
:101950002F910F900FBE0F901F9018953FB7F894DE
:101960008091630690916406A0916506B091660629
:1019700026B5A89B05C02F3F19F00196A11DB11DEA
:101980003FBF6627782F892F9A2F620F711D811D07
:10199000911D42E0660F771F881F991F4A95D1F766
:1019A0000895CF92DF92EF92FF92CF93DF936B0176
:1019B0007C01D4DFEB01C114D104E104F10479F01E
:1019C0000FD1CCDF6C1B7D0B683E7340A0F381E030
:1019D000C81AD108E108F108C851DC4FECCFDF91FB
:1019E000CF91FF90EF90DF90CF900895789484B5D9
:1019F000826084BD84B5816084BD85B5826085BD0B
:101A000085B5816085BDEEE6F0E0808181608083F0
:101A1000E1E8F0E0108280818260808380818160D3
:101A20008083E0E8F0E0808181608083E1EBF0E09A
:101A3000808184608083E0EBF0E08081816080833E
:101A4000EAE7F0E080818460808380818260808327
:101A50008081816080838081806880831092C10052
:101A60000895833081F028F4813099F08230A1F01C
:101A700008958730A9F08830B9F08430D1F480918E
:101A800080008F7D03C0809180008F7780938000DD
:101A9000089584B58F7702C084B58F7D84BD089585
:101AA0008091B0008F7703C08091B0008F7D8093CC
:101AB000B0000895CF93DF9390E0FC01E458FF4F0E
:101AC0002491FC01E057FF4F8491882349F190E075
:101AD000880F991FFC01E854FF4FA591B4918255DE
:101AE0009F4FFC01C591D4919FB7611108C0F89434
:101AF0008C91209582238C93888182230AC0623046
:101B000051F4F8948C91322F309583238C938881F3
:101B1000822B888304C0F8948C91822B8C939FBF76
:101B2000DF91CF9108950F931F93CF93DF931F926F
:101B3000CDB7DEB7282F30E0F901E859FF4F849187
:101B4000F901E458FF4F1491F901E057FF4F049158
:101B50000023C1F0882319F0698383DF6981E02FB6
:101B6000F0E0EE0FFF1FE255FF4FA591B4919FB734
:101B7000F8948C91611103C01095812301C0812BD1
:101B80008C939FBF0F90DF91CF911F910F9108957C
:101B9000CF93DF93282F30E0F901E859FF4F84916C
:101BA000F901E458FF4FD491F901E057FF4FC49178
:101BB000CC2389F0811155DFEC2FF0E0EE0FFF1FF1
:101BC000EC55FF4FA591B4912C912D2381E090E02D
:101BD00021F480E002C080E090E0DF91CF91089591
:101BE00008950F93FC01608341832283038380E087
:101BF00090E0DF01A80FB91F14961C920196803562
:101C00009105B9F70F910895EF92FF920F931F93EB
:101C1000CF93DF93EC01F62EE42E60E0898183DF21
:101C200000E010E08B8190E0081719076CF42F2D6D
:101C300041E06A8188810FD12E2D41E06A8188813F
:101C40000AD10F5F1F4FEECF60E089816CDF61E04A
:101C50008981DF91CF911F910F91FF90EF9063CF1A
:101C6000462F6AE0D1CF8F929F92AF92BF92CF92D0
:101C7000DF92EF92FF920F931F93CF93DF93EC01CC
:101C8000B62E942E60E089814EDFCB2CD12CE12C36
:101C9000F12C00E010E0882483948B0C5E01AC18DA
:101CA000BD08EC0CFD1C8B8190E0081719078CF423
:101CB000282D41E06A818881CED0292D41E06A81BA
:101CC0008881C9D0F501EE0DFF1D94820F5F1F4F73
:101CD000E8CF60E0898127DF61E08981DF91CF91E2
:101CE0001F910F91FF90EF90DF90CF90BF90AF903A
:101CF0009F908F9018CF1F93CF93DF93EC0110E04C
:101D000040E0612FCE01AFDF1F5F1830C9F720E040
:101D100030E0FE01E20FF31F14822F5F3F4F2035AA
:101D20003105B9F7DF91CF911F910895CF93DF93DC
:101D3000EC0161E08881BEDE61E08A81BBDE61E0AA
:101D40008981B8DE61E08A81EEDE47E06BE0CE019A
:101D50005BDF40E069E0CE0157DF41E06CE0CE019F
:101D600053DF40E06FE0CE014FDFCE01C4DF6FE014
:101D7000CE01DF91CF9174CFBF92CF92DF92EF92DD
:101D8000FF920F931F93CF93DF93EC01E62EF12C7C
:101D9000222389F001E010E020E030E004C0000FD1
:101DA000111F221F331F4A95D2F7FC01EE0DFF1DB4
:101DB0008481802B11C001E010E020E030E004C0FD
:101DC000000F111F221F331F4A95D2F70095FC0107
:101DD000EE0DFF1D848180238483C62EC694C69495
:101DE000C694D12C6770B62E60E089819CDE00E03D
:101DF00010E0B394EC0EFD1E84E0E80EF11C8B8124
:101E000090E008171907C4F40C151D0541F42B2D9B
:101E100041E06A8188811FD0F701208106C020E05F
:101E200041E06A81888117D020E041E06A818881A1
:101E300012D00F5F1F4FE3CF60E0898174DE61E055
:101E40008981DF91CF911F910F91FF90EF90DF90EB
:101E5000CF90BF9068CEBF92CF92DF92EF92FF9269
:101E60000F931F93CF93DF93C82ED62EB42EC7E0C7
:101E7000D0E0022F10E087E0E82EF12CB1100AC06C
:101E8000F701EC1BFD0BB80102C075956795EA954B
:101E9000E2F707C0B8010C2E02C0759567950A9449
:101EA000E2F7617077278C2D3EDE61E08D2D3BDE01
:101EB00060E08D2D38DE219708F7DF91CF911F91DB
:101EC0000F91FF90EF90DF90CF90BF900895A1E227
:101ED0001A2EAA1BBB1BFD010DC0AA1FBB1FEE1FA4
:101EE000FF1FA217B307E407F50720F0A21BB30BEF
:101EF000E40BF50B661F771F881F991F1A9469F76B
:101F000060957095809590959B01AC01BD01CF01C6
:101F10000895EE0FFF1F0590F491E02D0994CF93E3
:101F2000DF938230910510F482E090E0E091690641
:101F3000F0916A0620E030E0A0E0B0E0309739F19F
:101F40004081518148175907B8F04817590771F473
:101F500082819381109729F013969C938E93129708
:101F60002CC090936A068093690627C0211531051D
:101F700031F04217530718F0A901DB0101C0EF014E
:101F80009A01BD01DF010280F381E02DD7CF211539
:101F90003105F9F0281B390B2430310580F48A8192
:101FA0009B816115710521F0FB019383828304C03D
:101FB00090936A0680936906FE01329644C0FE0142
:101FC000E20FF31F819391932250310939832883C3
:101FD0003AC02091670630916806232B41F4209186
:101FE0000201309103013093680620936706209127
:101FF0000001309101012115310541F42DB73EB7A3
:102000004091040150910501241B350BE0916706B6
:10201000F0916806E217F307A0F42E1B3F0B281778
:10202000390778F0AC014E5F5F4F2417350748F051
:102030004E0F5F1F509368064093670681939193FC
:1020400002C0E0E0F0E0CF01DF91CF910895CF939F
:10205000DF93009709F487C0FC0132971382128244
:10206000C0916906D0916A06209781F42081318160
:10207000280F391F80916706909168068217930791
:1020800079F5F0936806E09367066DC0DE0120E005
:1020900030E0AE17BF0750F412964D915C91139744
:1020A0009D014115510509F1DA01F3CFB383A283F4
:1020B00040815181840F951F8A179B0771F48D9180
:1020C0009C911197840F951F02969183808312969D
:1020D0008D919C911397938382832115310529F467
:1020E000F0936A06E09369063EC0D9011396FC930B
:1020F000EE9312974D915D91A40FB51FEA17FB0760
:1021000079F480819181840F951F0296D9011196EF
:102110009C938E938281938113969C938E931297B6
:10212000E0E0F0E08A819B81009719F0FE01EC016C
:10213000F9CFCE01029628813981820F931F209119
:102140006706309168062817390769F4309729F433
:1021500010926A061092690602C013821282D0930E
:102160006806C0936706DF91CF910895A0E0B0E0C4
:10217000EBEBF0E10FC1EC01CB01209711F4CFDEC6
:10218000B4C0FE01E60FF71F9E0122503109E2178D
:10219000F30708F4A8C0D9010D911C9111970617F7
:1021A0001707B0F00530110508F49BC0A801445092
:1021B00051094617570708F494C002501109061B2D
:1021C000170B019311936D937C93CF0140DF89C06E
:1021D0005B01A01AB10A4E01800E911EA091690602
:1021E000B0916A06612C712C60E070E0109709F4E0
:1021F00049C0A815B905C9F5ED90FC901197670184
:1022000042E0C40ED11CCA14DB0478F147018A18DD
:102210009B08640142E0C40ED11C1296BC90129738
:102220001396AC91B5E0CB16D10440F0B282A383F3
:1022300091828082D9018D939C9309C00E5F1F4FBC
:102240000E0D1F1DF90111830083EB2DFA2F61156F
:10225000710531F0DB011396FC93EE93129741C0A8
:10226000F0936A06E09369063CC06D917C911197EA
:102270006616770608F43B01BD0112960D90BC91DD
:10228000A02DB4CF60916706709168066815790536
:10229000E9F468167906D0F44091000150910101EB
:1022A0004115510541F44DB75EB76091040170913D
:1022B0000501461B570BE417F507A8F4F0936806D1
:1022C000E0936706F901918380830BC028DE7C01CF
:1022D000009749F0A801BE010CD0CE01B8DEC701BD
:1022E00004C0CE0102C080E090E0CDB7DEB7EEE0E2
:1022F0006DC0FB01DC0102C001900D9241505040C5
:10230000D8F70895FB01DC0101900D920020E1F760
:1023100008954532510518F4423008F004C0FB011D
:102320001082CB010895BB274A3031F4992322F45F
:10233000BDE2909581959F4F01C0BB27FB015527BA
:10234000AA27880F991FAA1FA41710F0A41B839512
:102350005051B9F7A05DAA3308F0A95DA193009789
:1023600079F7B111B1931192CB0100C0DC01FC01EE
:10237000672F71917723E1F7329704C07C916D93B9
:1023800070836291AE17BF07C8F308952F923F92F2
:102390004F925F926F927F928F929F92AF92BF9275
:1023A000CF92DF92EF92FF920F931F93CF93DF9321
:1023B000CDB7DEB7CA1BDB0B0FB6F894DEBF0FBE7E
:1023C000CDBF09942A88398848885F846E847D84CB
:1023D0008C849B84AA84B984C884DF80EE80FD80CD
:1023E0000C811B81AA81B981CE0FD11D0FB6F89443
:1023F000DEBF0FBECDBFED01089510E0C6ECD0E00A
:1024000003C0FE0188DD2296C83CD107D1F7F894BD
:02241000FFCFFC
:1024120000006B06800012000200050002000500A9
:10242200670341034103430343034503470349034E
:10243200670367036703670367036703670367034A
:10244200670367036703670367036703670367033A
:10245200670367036703670367036703670367032A
:10246200670367036703670367036703670367031A
:10247200670367036703670367036703670367030A
:1024820067036703670367036703670367036703FA
:1024920067036703670367036703670367036703EA
:1024A20067036703670367036703670367036703DA
:1024B20069039403BF03E90313043A0464048E041A
:1024C200A704C7045A030000000000000000000037
:1024D20000000000000000000000000000000000FA
:1024E20000000000000000000000000000000000EA
:1024F20000000000000000000000000000000000DA
:1025020000000000000000000000000000000000C9
:1025120000000000000000000000000000000000B9
:1025220000000000000000000000000000000000A9
:102532000000000000000000000000000000000099
:102542000000000000000000000000000000000089
:102552000000000000000000000000000000000079
:102562000000000000000000000000000000000069
:102572000000000000000100010002000200030050
:10258200040005002878312C7931292C2878322C46
:102592007932293A20002C0054616D616E686F20F7
:1025A200646F206E6176696F20696E76616C696412
:1025B2006F2E00506F736963616F206D7569746F60
:1025C2002070726F78696D612061206F757472611D
:1025D20020656D6261726361C3A7616F2E00506FE7
:1025E200736963616F20696E76616C6964612E0044
:1025F200456E7669616E646F2070726F746F636F7F
:102602006C6F3A20005375626D6172696E6F00489B
:102612006964726F617669616F004372757A616491
:102622006F7200456E636F7572616361646F004122
:1026320067756100506F7274612D617669616F0018
:102642005265636562696461206F205469726F200C
:10265200004100420043004400450041636572743A
:102662006F75200041677561200046696D206465C1
:10267200204A6F676F2100460044696769746520CC
:10268200617320636F6F7264656E6461646173204D
:10269200646F20486964726F617669616F203120CE
:1026A2002831290044696769746520617320636F6A
:1026B2006F7264656E646164617320646F2048693F
:1026C20064726F617669616F20322028312900447B
:1026D200696769746520617320636F6F7264656EE8
:1026E200646164617320646F205375626D61726905
:1026F2006E6F203120283229004469676974652091
:10270200617320636F6F7264656E646164617320CC
:10271200646F205375626D6172696E6F203220287A
:1027220032290044696769746520617320636F6FA1
:102732007264656E646164617320646F20437275B4
:102742007A61646F7220283329004469676974656D
:1027520020617320636F6F7264656E64616461737C
:1027620020646F20456E636F7572616361646F20D0
:102772002834290044696769746520617320636F96
:102782006F7264656E646164617320646F20506F60
:102792007274612D617669616F2028352900416765
:1027A20075617264616E646F2041647665727361F3
:1027B20072696F2E2E2E00416775617264616E64BC
:1027C2006F204A6F6761646120646F20616476657F
:1027D20072736172696F00456E766965206F20744D
:1027E20069726F00000000009C08030A2008390883
:0427F2002B087B082D
:00000001FF
