:1000000063C0000089C0000087C0000085C00000F8
:1000100083C0000081C000007FC000007DC00000E0
:100020007BC0000079C0000077C0000075C00000F0
:1000300073C0000071C000006FC000006DC0000000
:100040000C940F0B69C00000C2C70000F2C700008B
:1000500063C0000061C000005FC000005DC0000020
:100060005BC0000059C00000000000080002010051
:100070000003040700000000000000000102040863
:100080001020408001020408102001020408102002
:10009000040404040404040402020202020203032E
:1000A00003030303000000002300260029000000D2
:1000B0000000250028002B0000000000240027007D
:1000C0002A00390647088D0611241FBECFEFD8E05D
:1000D000DEBFCDBF15E0A0E0B1E0E8E6F1E202C08E
:1000E00005900D92A830B107D9F726E0A8E0B5E059
:1000F00001C01D92AC36B207E1F710E0C6ECD0E0CB
:1001000004C02297FE010E94360EC23CD107C9F7F7
:100110000E94040B0C94A81073CFBC0181EC95E0F5
:100120000C940009242F462F682F8DE695E00C943F
:10013000670D26E040E855E260E070E081EC95E074
:10014000E6D660E088E00E94050C60E089E00E944D
:10015000050C60E08AE00E94050C8DE695E00E94A7
:10016000410D61E08DE695E00E94DB0C60910D058C
:1001700070910E0541E050E080910F0590911005BF
:10018000D1DF6091090570910A0541E050E080914E
:100190000B0590910C05C6CFEF92FF920F931F9322
:1001A000CF93DF93F82E8B01E42EC0E0D0E0C01790
:1001B000D10739F02E2D4C2F6F2D8DE695E00E9442
:1001C000670D64E170E080E090E00E947C0B219676
:1001D000C830D10561F7DF91CF911F910F91FF904A
:1001E000EF900895EF92FF920F931F93CF93DF93B9
:1001F000F82E8B01E42EC0E0D0E0C017D10739F013
:100200002E2D4F2D6C2F8DE695E00E94670D64E139
:1002100070E080E090E00E947C0B2196C830D10510
:1002200061F7DF91CF911F910F91FF90EF900895AB
:10023000AF92BF92CF92DF92EF92FF920F931F93F4
:10024000CF93DF937C016B01EA01890193E0A92E32
:10025000B12C41E050E0B601C70164DF41E050E05D
:10026000B801CE015FDF62E370E080E090E00E94C1
:100270007C0B40E050E0B601C70154DF40E050E0A5
:10028000B801CE014FDF62E370E080E090E00E94B1
:100290007C0B81E0A81AB108E1F641E050E0B6011C
:1002A000C70140DF41E050E0B801CE013BDF62E32F
:1002B00070E080E090E0DF91CF911F910F91FF906F
:1002C000EF90DF90CF90BF90AF900C947C0BEF92AB
:1002D000FF920F931F93CF93DF93EC018B0123E0E9
:1002E000E22EF12C41E050E0B801CE011BDF62E3C9
:1002F00070E080E090E00E947C0B40E050E0B801AC
:10030000CE0110DF62E370E080E090E00E947C0BA1
:1003100081E0E81AF10831F741E050E0B801CE0180
:1003200001DF62E370E080E090E0DF91CF911F9108
:100330000F91FF90EF900C947C0BCF92DF92EF9295
:10034000FF920F931F93CF93DF938C01EB017A0100
:100350006901FC0180819181688179818417950709
:1003600019F46217730719F040E050E0DBDEF80182
:10037000808191810196883091051CF4918380835E
:1003800008C0F801118210828881998101969983B1
:10039000888388819981089714F01982188264E60D
:1003A00070E080E090E00E947C0BF80180819181F8
:1003B000688179818E159F0519F46C157D0559F0BA
:1003C00041E050E0DF91CF911F910F91FF90EF90AE
:1003D000DF90CF90A7CEDF91CF911F910F91FF902B
:1003E000EF90DF90CF9008950F931F93CF93DF93FB
:1003F000EC018B0140E050E088819981CDDE88815D
:1004000099810196883091051CF49983888302C0F4
:100410001982188241E050E0B80188819981DF910A
:10042000CF911F910F91B8CE0F931F93CF93DF936E
:10043000EC018B0140E050E088819981D3DE888116
:1004400099810196883091051CF49983888302C0B4
:100450001982188241E050E0B80188819981DF91CA
:10046000CF911F910F91BECECF92DF92EF92FF926C
:100470000F931F93CF93DF9308E011E0D12C38E066
:10048000C32EC0E0D0E07801EC0EFD1EF701208104
:100490004D2D6C2D8DE695E00E94670D809108052D
:1004A000882341F0F701608171814AE050E081ECDE
:1004B00095E054D72296C394F0E1CF12E4CF809117
:1004C0000805882329F067EA72E081EC95E098D668
:1004D000005F1F4FD39488E0D812D1CFDF91CF9126
:1004E0001F910F91FF90EF90DF90CF900895809132
:1004F0000805882309F438C066E972E081EC95E0CC
:1005000055D660910F05709110054AE050E081ECDE
:1005100095E024D768EA72E081EC95E047D66091D7
:100520000D0570910E054AE050E081EC95E016D77C
:1005300068EA72E081EC95E039D660910B05709124
:100540000C054AE050E081EC95E008D768EA72E0DB
:1005500081EC95E02BD66091090570910A054AE07F
:1005600050E081EC95E001C708958F929F92AF9281
:10057000BF92CF92DF92EF92FF920F931F93CF9390
:10058000DF9320910F0530911005A0910B05B091DC
:100590000C054091090550910A0580910D05909137
:1005A0000E052A173B0709F092C0A0908801B09071
:1005B0008901F501EE0FFF1FE857FD4FA081B181C2
:1005C000841795072CF0BC014817590724F001C087
:1005D000BA01FC0101C0FA016E1B7F0B6F5F7F4FF8
:1005E000A617B70719F06AEA72E015C1DC014817CF
:1005F00059070CF4DA01BD0161507109F901319715
:10060000EB0113E0CC0FDD1F1A95E1F7EC0FFD1F96
:10061000EE0FFF1FE85FFE4FEC01841795070CF407
:10062000EA017E011FEFE11AF10AE616F706B4F0BF
:10063000C081D181219761F0C281D381219741F09E
:100640007096EF012C970990D881C02D219719F44D
:1006500065EC72E0E0C06F5F7F4FDECFBD0113E05D
:10066000660F771F1A95E1F7620F731F660F771FEA
:10067000685F7E4F00E010E0EE24E394F12CCA178F
:10068000DB0754F06B01C00ED11EF601F182E0824F
:100690001196005F1F4FF3CF609111057091120505
:1006A000FB01A3E0EE0FFF1FAA95E1F7E657FE4F0F
:1006B00031832083938382833583248357834683C6
:1006C0006F5F7F4F70931205609311058EC0841782
:1006D000950709F09EC0A0908801B09089014D0156
:1006E000A217B3070CF44901AD012A173B070CF41C
:1006F000A901F501EE0FFF1FE857FD4FB401641B80
:10070000750B6F5F7F4F0190F081E02DE617F707C3
:1007100009F069CFBA0161507109FC0131977B0181
:10072000D3E0EE0CFF1CDA95E1F7EE0DFF1DEE0FA6
:10073000FF1FE85FFE4F74011FEFE11AF10AE61692
:10074000F706DCF0C080D180CA94CD2809F480CFB0
:10075000C280D380CA94CD2809F47ACF70966F01F5
:100760001CE0C11AD108E601C880D980CA94CD28FE
:1007700009F46ECF6F5F7F4FE2CFBC01E3E0660FFD
:10078000771FEA95E1F7640F751F660F771F685FA3
:100790007E4FE0E0F0E0EE24E394F12C8416950621
:1007A00054F06B01CE0EDF1EE601F982E8824F5F46
:1007B0005F4F3296F3CF4091110550911205FA0127
:1007C00063E0EE0FFF1F6A95E1F7E657FE4F3183B6
:1007D000208393838283B583A483978386834F5F2B
:1007E0005F4F509312054093110585010F5F1F4F16
:1007F0001093890100938801DF91CF911F910F9190
:10080000FF90EF90DF90CF90BF90AF909F908F9030
:10081000089560EF72E081EC95E0DF91CF911F9138
:100820000F91FF90EF90DF90CF90BF90AF909F908F
:100830008F90E6C489E00E94730C019759F088E01C
:100840000E94730C019731F08AE00E94730C0197AB
:1008500009F03EC089E00E94730C019771F4209169
:10086000090530910A0540910B0550910C056DE08A
:1008700075E08FE095E061DD3ADE88E00E94730C60
:10088000019771F420910D0530910E0540910F05EF
:100890005091100569E075E08BE095E04EDD27DEB4
:1008A0008AE00E94730C019799F420910905309118
:1008B0000A0540910B0550910C0560910D05709152
:1008C0000E0580910F0590911005B2DC4EDECCCD67
:1008D00008958091880190918901019690938901F2
:1008E00080938801089562E073E081EC95E05ED426
:1008F00063E175E081EC95E073C42F923F924F92D3
:100900005F926F927F928F929F92AF92BF92CF929F
:10091000DF92EF92FF920F931F93CF93DF93CDB7A8
:10092000DEB76C970FB6F894DEBF0FBECDBF67EA97
:1009300072E0CE01439696D567EA72E083E195E0D6
:10094000C3D578E0272E71E0372EA12CB12C812C55
:10095000912CC12CD12CC501815E9C4F9A8F898F1F
:1009600080910F0590911005A816B90609F08BC06B
:1009700080910D0590910E05C816D90609F083C027
:10098000F101E80DF91D808191811182108201979A
:1009900009F06CC080910601909107010197909336
:1009A000070180930601E12CF12C87010D5B1A4FA2
:1009B00060E070E0C80115D6FC016080772467FC18
:1009C000709461E070E0C8010CD6FC01308162E0F7
:1009D00070E0C8013C8F05D6FC014080552447FCDF
:1009E000509463E070E0C801FCD5FC01208167E110
:1009F00073E0CE0143962B8F67D580910F059091C0
:100A00001005A2012B8D3C8D641475040CF4A30118
:100A10008417950714F1461457040CF42301481663
:100A20005906DCF0832F992787FD9095332727FD02
:100A3000309540900D0550900E05A901821793073F
:100A40000CF4AC014416550644F0281739070CF491
:100A50009C01241535050CF048C0F6E0EF0EF11CA2
:100A600080E3E816F10409F0A0CF0DC0698D7A8DFE
:100A70006C0D7D1D83E195E027D535DF61E273E0E4
:100A800081EC95E0BDD39FEFC91AD90AE0E18E0E43
:100A9000911CF8E0CF16D10409F062CF8FEFA81AAD
:100AA000B80A92E0290E311CE8E0AE16B10409F054
:100AB0004ECFCE0143966FD46C960FB6F894DEBF3E
:100AC0000FBECDBFDF91CF911F910F91FF90EF909F
:100AD000DF90CF90BF90AF909F908F907F906F905E
:100AE0005F904F903F902F90089567EA72E0CE019B
:100AF0000196B8D460900F057090100567EA72E017
:100B0000CE010D96AFD4BE01635F7F4FCE01079635
:100B1000D3D4B301CE01079658D5BE016F5F7F4F86
:100B200043D5B20152D5B701675E7A4F3DD5BC01BE
:100B300083E195E0ACD4CE0107962DD4CE010D967D
:100B40002AD4CE01019627D4CEDEBE016D5E7F4F42
:100B5000CE010196B1D4B801CE01019625D5BC01D4
:100B600081EC95E03DD3CE01019615D476CF89E096
:100B7000BAD6019741F088E0B6D6019721F08AE015
:100B8000B2D6019739F589E0AED6019741F460916C
:100B90000D0570910E058FE095E026DCA8DC88E05D
:100BA000A2D6019741F460910F05709110058DE078
:100BB00095E03ADC9CDC8AE096D6019759F4609186
:100BC0000D0570910E0580910F05909110057FDB4A
:100BD00094DE4ACC0895809188019091890107970D
:100BE00009F477DEC4CF8091880190918901873024
:100BF0009105ACF4FC01EE0FFF1FEE53FE4F808118
:100C000091818BDA89E06FD6892B81F588E06BD6EC
:100C1000892B61F58AE067D6892B41F5F3CF0A97D6
:100C200039F18091060190910701892B31F48AE016
:100C300090E09093890180938801E0918801F09180
:100C40008901EE0FFF1FEE53FE4F8081918165DA1F
:100C50000BDC89E048D6892B51F488E044D6892BF7
:100C600031F48AE040D6892B11F4F3CFE3CDB3CF32
:100C700008950F9302E026E045E064E08DE695E0FC
:100C80005BD666E273E083E495E0ECD366E273E062
:100C900089E495E0E7D361E373E08FE495E0E2D384
:100CA0006CE373E085E595E0DDD366E473E08BE506
:100CB00095E0D8D36FE473E081E695E0D3D36BE59C
:100CC00073E087E695E0CED367E673E089E195E0CF
:100CD000C9D367E673E08FE195E0C4D369E673E0BA
:100CE00085E295E0BFD369E673E08BE295E0BAD385
:100CF0006BE673E081E395E0B5D36DE673E087E3DF
:100D000095E0B0D36FE673E08DE395E0ABD367EA8F
:100D100072E083E195E00F91A5C3CF93DF9383E168
:100D200095E039D3C3E4D5E02697CE0134D385E0EE
:100D3000C931D807C9F7CDE6D5E02697CE012BD328
:100D400085E0C334D807C9F7DF91CF910895FC013E
:100D5000818D228D90E0805C9F4F821B91098F7363
:100D600099270895FC01918D828D981731F0828D1D
:100D7000E80FF11D858D90E008958FEF9FEF0895A6
:100D8000FC01918D828D981761F0828DDF01A80F93
:100D9000B11D5D968C91928D9F5F9F73928F90E0B5
:100DA00008958FEF9FEF08958EE398E0892B41F02F
:100DB00080E090E0892B21F061D181110C9400003A
:100DC0000895FC01848DDF01A80FB11DA35ABF4F08
:100DD0002C91848D90E001968F739927848FA6893A
:100DE000B7892C93A089B1898C9180648C93938D61
:100DF000848D981306C00288F389E02D80818F7D51
:100E000080830895CF93DF93EC01888D8823C1F010
:100E1000EA89FB89808185FD05C0A889B9898C9103
:100E200086FD0EC00FB607FCF5CF808185FFF2CF9F
:100E3000A889B9898C9185FFEDCFCE01C2DFE8CFBB
:100E4000DF91CF910895CF92DF92FF920F931F937E
:100E5000CF93DF931F92CDB7DEB76C01DC015B96B9
:100E60009C915B975C968C915C97981307C0509609
:100E7000ED91FC915197808185FD31C0F601038D84
:100E800010E00F5F1F4F0F731127F02EF601848DB6
:100E9000F81210C00FB607FCF9CFD6015096ED91AD
:100EA000FC915197808185FFF1CFC601698389DF6D
:100EB0006981ECCF838DE80FF11DE35AFF4F60830A
:100EC000D6015B960C935B975296ED91FC915397EC
:100ED00080818062808381E058968C930DC0D6011A
:100EE0005696ED91FC91579760835096ED91FC9149
:100EF000519780818064808381E090E00F90DF9142
:100F0000CF911F910F91FF90DF90CF900895BF92E6
:100F1000CF92DF92EF92FF92CF93DF93EC016A01C1
:100F20007B01B22EE889F98982E08083411581EE48
:100F300058076105710599F060E079E08DE390E074
:100F4000A70196016FD621503109410951095695E3
:100F5000479537952795211580E1380790F0E88966
:100F6000F989108260E874E88EE190E0A7019601AB
:100F700059D6215031094109510956954795379560
:100F80002795EC85FD853083EE85FF852083188EBF
:100F9000EC89FD89B082EA89FB8980818061808348
:100FA000EA89FB89808188608083EA89FB89808166
:100FB00080688083EA89FB8980818F7D8083DF91CF
:100FC000CF91FF90EF90DF90CF90BF9008951F9248
:100FD0000F920FB60F9211242F938F939F93EF933D
:100FE000FF93E091D105F091D2058081E091D70582
:100FF000F091D80582FD12C090818091DA058F5F53
:101000008F732091DB05821751F0E091DA05F0E053
:10101000EF53FA4F958F8093DA0501C08081FF91DD
:10102000EF919F918F912F910F900FBE0F901F9076
:1010300018951F920F920FB60F9211242F933F9382
:101040004F935F936F937F938F939F93AF93BF93D0
:10105000EF93FF9381EC95E0B4DEFF91EF91BF91A8
:10106000AF919F918F917F916F915F914F913F9140
:101070002F910F900FBE0F901F90189581EC95E067
:1010800066DE21E0892B09F420E0822F089510927A
:10109000C4051092C30588EE93E0A0E0B0E0809311
:1010A000C5059093C605A093C705B093C8058BEFFF
:1010B00094E09093C2058093C10585EC90E09093F5
:1010C000CE058093CD0584EC90E09093D00580937D
:1010D000CF0580EC90E09093D2058093D10581EC10
:1010E00090E09093D4058093D30582EC90E09093A8
:1010F000D6058093D50586EC90E09093D805809333
:10110000D7051092DA051092DB051092DC051092DB
:10111000DD050895CF92DF92EF92FF920F931F9318
:10112000CF93DF936C017A01EB01E60EF71E00E02E
:1011300010E0CE15DF0561F06991D601ED91FC91CB
:101140000190F081E02DC6010995080F191FF1CF1C
:10115000C801DF91CF911F910F91FF90EF90DF9029
:10116000CF9008956115710581F0DB010D9000208D
:10117000E9F7AD0141505109461B570BDC01ED91D8
:10118000FC910280F381E02D099480E090E00895C5
:10119000DC01ED91FC91DB0114964D915C9115976A
:1011A0006D917C910280F381E02D0994DBCFDC010D
:1011B000ED91FC910190F081E02D09940F931F9324
:1011C000CF93DF93EC016DE0F2DF8C016AE0CE019A
:1011D000EEDF800F911FDF91CF911F910F91089546
:1011E0000F931F93CF93DF93EC01D2DF8C01CE01DD
:1011F000E5DF800F911FDF91CF911F910F9108952F
:101200000F931F93CF93DF93EC01ACDF8C01CE01E2
:10121000D5DF800F911FDF91CF911F910F9108951E
:101220008F929F92AF92BF92CF92DF92EF92FF92F6
:101230000F931F93CF93DF93CDB7DEB7A1970FB670
:10124000F894DEBF0FBECDBF7C01C42EE52FCB01CD
:10125000D22E19A221E02D1510F02AE0D22E8E01F7
:101260000F5D1F4F8D2C912CA12CB12C6C2D7E2F3E
:10127000A5019401D7D48C2DD29E80191124015040
:1012800011098A3014F4805D01C0895CF801808303
:10129000211531054105510521F0C22EE32FCA0168
:1012A000E5CFB801C7015EDFA1960FB6F894DEBFA7
:1012B0000FBECDBFDF91CF911F910F91FF90EF90A7
:1012C000DF90CF90BF90AF909F908F900895CF9276
:1012D000DF92EF92FF920F931F93CF93DF93EC0176
:1012E0006A017B012115310579F4E881F9810190CA
:1012F000F081E02D642FDF91CF911F910F91FF902E
:10130000EF90DF90CF9009942A303105D9F477FF20
:1013100018C06DE24CDF8C0144275527BA014C19E7
:101320005D096E097F092AE0CE017ADF800F911FE7
:10133000DF91CF911F910F91FF90EF90DF90CF90B1
:1013400008952AE0B701A601CE01DF91CF911F9148
:101350000F91FF90EF90DF90CF9062CF9A01AB0199
:10136000662757FD6095762FB2CF0F931F93CF93CB
:10137000DF93EC019A01AB01662757FD6095762F4C
:10138000A6DF8C01CE011ADF800F911FDF91CF9174
:101390001F910F910895FC018081918103C5CF9326
:1013A000DF93EC0188819981009709F0FBD41982C1
:1013B00018821D821C821B821A82DF91CF910895B0
:1013C0000F931F93CF93DF93EC018B016F5F7F4FE0
:1013D0008881998176D5009731F0998388831B8322
:1013E0000A8381E001C080E0DF91CF911F910F91CE
:1013F0000895CF93DF93EC0188819981892B29F09F
:101400008A819B818617970758F4CE01D9DF8823FC
:1014100041F08C819D81892B19F4E881F98110823A
:1014200081E0DF91CF910895EF92FF920F931F9388
:10143000CF93DF93EC017B018A01BA01DADF8111DE
:1014400003C0CE01ACDF06C01D830C83B7018881C9
:10145000998103D6CE01DF91CF911F910F91FF901B
:10146000EF900895FC01118210821382128215827E
:1014700014826115710551F0FB0101900020E9F71C
:10148000AF0141505109461B570BCECF0895CF9362
:10149000DF93EC01FB018617970751F060817181A2
:1014A0006115710521F044815581BEDF01C077DFF0
:1014B000CE01DF91CF910895FC0111821082138239
:1014C000128215821482E3CFCF93DF93EC01611572
:1014D000710559F0FB0101900020E9F7AF0141507F
:1014E0005109461B570BA0DF01C059DFCE01DF9128
:1014F000CF910895EF92FF920F931F93CF93DF93B5
:10150000EC017B010C811D816115710511F480E0F6
:1015100014C04115510581F0040F151FB80169DF92
:101520008823A9F3288139818C819D81B701820F9D
:10153000931F93D51D830C8381E0DF91CF911F9181
:101540000F91FF90EF900895EF92FF920F931F93EA
:10155000CF93DF93CDB7DEB728970FB6F894DEBFF1
:101560000FBECDBF7C01CB014AE050E08E010F5F82
:101570001F4FB80179D5F80101900020E9F7AF01BC
:1015800041505109401B510BB801C701B3DF2896E8
:101590000FB6F894DEBF0FBECDBFDF91CF911F9184
:1015A0000F91FF90EF900895CF93DF93EC01FB0133
:1015B00044815581608171819DDF811102C0CE011E
:1015C000EEDECE01DF91CF910895CF93DF93EC0152
:1015D000BBDF811102C0CE01E2DECE01DF91CF91EF
:1015E0000895FC01848195816817790720F4808132
:1015F0009181009729F410925E068EE596E0089599
:10160000860F971F089508959CD0FDDF0E949900D2
:10161000C4EDD6E0E8DA2097E9F3C6DBFBCF1F92F2
:101620000F920FB60F9211242F933F938F939F9396
:10163000AF93BF938091600690916106A09162067E
:10164000B091630630915F0623E0230F2D3720F41D
:101650000196A11DB11D05C026E8230F0296A11D0C
:10166000B11D20935F068093600690936106A0935E
:101670006206B09363068091640690916506A0911E
:101680006606B09167060196A11DB11D80936406A0
:1016900090936506A0936606B0936706BF91AF91DD
:1016A0009F918F913F912F910F900FBE0F901F90A0
:1016B00018953FB7F8948091640690916506A091C3
:1016C0006606B091670626B5A89B05C02F3F19F0A6
:1016D0000196A11DB11D3FBF6627782F892F9A2F34
:1016E000620F711D811D911D42E0660F771F881FDB
:1016F000991F4A95D1F70895CF92DF92EF92FF920A
:10170000CF93DF936B017C01D4DFEB01C114D104D3
:10171000E104F10479F00FD1CCDF6C1B7D0B683E46
:101720007340A0F381E0C81AD108E108F108C8515C
:10173000DC4FECCFDF91CF91FF90EF90DF90CF9017
:101740000895789484B5826084BD84B5816084BD39
:1017500085B5826085BD85B5816085BDEEE6F0E02A
:10176000808181608083E1E8F0E010828081826086
:101770008083808181608083E0E8F0E08081816007
:101780008083E1EBF0E0808184608083E0EBF0E037
:10179000808181608083EAE7F0E0808184608083DB
:1017A0008081826080838081816080838081806885
:1017B00080831092C1000895833081F028F4813035
:1017C00099F08230A1F008958730A9F08830B9F0FF
:1017D0008430D1F4809180008F7D03C0809180009F
:1017E0008F7780938000089584B58F7702C084B589
:1017F0008F7D84BD08958091B0008F7703C0809164
:10180000B0008F7D8093B0000895CF93DF9390E078
:10181000FC01E458FF4F2491FC01E057FF4F8491F5
:10182000882349F190E0880F991FFC01E854FF4F8D
:10183000A591B49182559F4FFC01C591D4919FB75A
:10184000611108C0F8948C91209582238C93888133
:1018500082230AC0623051F4F8948C91322F309573
:1018600083238C938881822B888304C0F8948C9185
:10187000822B8C939FBFDF91CF9108950F931F937D
:10188000CF93DF931F92CDB7DEB7282F30E0F90159
:10189000E859FF4F8491F901E458FF4F1491F90181
:1018A000E057FF4F04910023C1F0882319F06983AA
:1018B00083DF6981E02FF0E0EE0FFF1FE255FF4F5D
:1018C000A591B4919FB7F8948C91611103C01095C4
:1018D000812301C0812B8C939FBF0F90DF91CF910B
:1018E0001F910F910895CF93DF93282F30E0F901D6
:1018F000E859FF4F8491F901E458FF4FD491F90161
:10190000E057FF4FC491CC2389F0811155DFEC2FB4
:10191000F0E0EE0FFF1FEC55FF4FA591B4912C9115
:101920002D2381E090E021F480E002C080E090E08F
:10193000DF91CF91089508950F93FC016083418357
:101940002283038380E090E0DF01A80FB91F149683
:101950001C92019680359105B9F70F910895EF9289
:10196000FF920F931F93CF93DF93EC01F62EE42E9B
:1019700060E0898183DF00E010E08B8190E0081750
:1019800019076CF42F2D41E06A8188810FD12E2D2B
:1019900041E06A8188810AD10F5F1F4FEECF60E07E
:1019A00089816CDF61E08981DF91CF911F910F9177
:1019B000FF90EF9063CF462F6AE0D1CF8F929F9236
:1019C000AF92BF92CF92DF92EF92FF920F931F934D
:1019D000CF93DF93EC01B62E942E60E089814EDF29
:1019E000CB2CD12CE12CF12C00E010E08824839446
:1019F0008B0C5E01AC18BD08EC0CFD1C8B8190E0DB
:101A0000081719078CF4282D41E06A818881CED00F
:101A1000292D41E06A818881C9D0F501EE0DFF1DB5
:101A200094820F5F1F4FE8CF60E0898127DF61E07C
:101A30008981DF91CF911F910F91FF90EF90DF90FF
:101A4000CF90BF90AF909F908F9018CF1F93CF9360
:101A5000DF93EC0110E040E0612FCE01AFDF1F5FAC
:101A60001830C9F720E030E0FE01E20FF31F1482C6
:101A70002F5F3F4F20353105B9F7DF91CF911F918F
:101A80000895CF93DF93EC0161E08881BEDE61E0D1
:101A90008A81BBDE61E08981B8DE61E08A81EEDEA9
:101AA00047E06BE0CE015BDF40E069E0CE0157DF4D
:101AB00041E06CE0CE0153DF40E06FE0CE014FDF4C
:101AC000CE01C4DF6FE0CE01DF91CF9174CFBF9222
:101AD000CF92DF92EF92FF920F931F93CF93DF93FA
:101AE000EC01E62EF12C222389F001E010E020E049
:101AF00030E004C0000F111F221F331F4A95D2F798
:101B0000FC01EE0DFF1D8481802B11C001E010E06F
:101B100020E030E004C0000F111F221F331F4A9540
:101B2000D2F70095FC01EE0DFF1D84818023848394
:101B3000C62EC694C694C694D12C6770B62E60E0AB
:101B400089819CDE00E010E0B394EC0EFD1E84E081
:101B5000E80EF11C8B8190E008171907C4F40C15EE
:101B60001D0541F42B2D41E06A8188811FD0F701CA
:101B7000208106C020E041E06A81888117D020E002
:101B800041E06A81888112D00F5F1F4FE3CF60E090
:101B9000898174DE61E08981DF91CF911F910F917E
:101BA000FF90EF90DF90CF90BF9068CEBF92CF9222
:101BB000DF92EF92FF920F931F93CF93DF93C82E84
:101BC000D62EB42EC7E0D0E0022F10E087E0E82E3A
:101BD000F12CB1100AC0F701EC1BFD0BB80102C0DB
:101BE00075956795EA95E2F707C0B8010C2E02C01B
:101BF000759567950A94E2F7617077278C2D3EDE24
:101C000061E08D2D3BDE60E08D2D38DE219708F7F9
:101C1000DF91CF911F910F91FF90EF90DF90CF90C8
:101C2000BF900895A1E21A2EAA1BBB1BFD010DC097
:101C3000AA1FBB1FEE1FFF1FA217B307E407F5077C
:101C400020F0A21BB30BE40BF50B661F771F881F58
:101C5000991F1A9469F760957095809590959B01EE
:101C6000AC01BD01CF010895EE0FFF1F0590F49167
:101C7000E02D0994CF93DF938230910510F482E038
:101C800090E0E0916A06F0916B0620E030E0A0E081
:101C9000B0E0309739F14081518148175907B8F0C9
:101CA0004817590771F482819381109729F0139690
:101CB0009C938E9312972CC090936B0680936A0628
:101CC00027C02115310531F04217530718F0A9013B
:101CD000DB0101C0EF019A01BD01DF010280F38148
:101CE000E02DD7CF21153105F9F0281B390B243011
:101CF000310580F48A819B816115710521F0FB011A
:101D00009383828304C090936B0680936A06FE01DE
:101D1000329644C0FE01E20FF31F8193919322504B
:101D20003109398328833AC02091680630916906C9
:101D3000232B41F420910201309103013093690675
:101D40002093680620910001309101012115310591
:101D500041F42DB73EB74091040150910501241B79
:101D6000350BE0916806F0916906E217F307A0F4DD
:101D70002E1B3F0B2817390778F0AC014E5F5F4FE1
:101D80002417350748F04E0F5F1F509369064093A4
:101D900068068193919302C0E0E0F0E0CF01DF910B
:101DA000CF910895CF93DF93009709F487C0FC018A
:101DB000329713821282C0916A06D0916B062097E7
:101DC00081F420813181280F391F8091680690911C
:101DD00069068217930779F5F0936906E093680620
:101DE0006DC0DE0120E030E0AE17BF0750F4129660
:101DF0004D915C9113979D014115510509F1DA014F
:101E0000F3CFB383A28340815181840F951F8A173A
:101E10009B0771F48D919C911197840F951F0296E9
:101E20009183808312968D919C91139793838283E3
:101E30002115310529F4F0936B06E0936A063EC044
:101E4000D9011396FC93EE9312974D915D91A40FD7
:101E5000B51FEA17FB0779F480819181840F951FE4
:101E60000296D90111969C938E9382819381139649
:101E70009C938E931297E0E0F0E08A819B8100971B
:101E800019F0FE01EC01F9CFCE01029628813981CB
:101E9000820F931F20916806309169062817390731
:101EA00069F4309729F410926B0610926A0602C00A
:101EB00013821282D0936906C0936806DF91CF9196
:101EC0000895A0E0B0E0E6E6FFE00FC1EC01CB0131
:101ED000209711F4CFDEB4C0FE01E60FF71F9E017C
:101EE00022503109E217F30708F4A8C0D9010D9177
:101EF0001C91119706171707B0F00530110508F46B
:101F00009BC0A801445051094617570708F494C0D4
:101F100002501109061B170B019311936D937C93CB
:101F2000CF0140DF89C05B01A01AB10A4E01800ECB
:101F3000911EA0916A06B0916B06612C712C60E035
:101F400070E0109709F449C0A815B905C9F5ED90DE
:101F5000FC901197670142E0C40ED11CCA14DB0447
:101F600078F147018A189B08640142E0C40ED11C35
:101F70001296BC9012971396AC91B5E0CB16D10493
:101F800040F0B282A38391828082D9018D939C9389
:101F900009C00E5F1F4F0E0D1F1DF9011183008335
:101FA000EB2DFA2F6115710531F0DB011396FC93CF
:101FB000EE93129741C0F0936B06E0936A063CC023
:101FC0006D917C9111976616770608F43B01BD016F
:101FD00012960D90BC91A02DB4CF609168067091BF
:101FE000690668157905E9F468167906D0F4409118
:101FF0000001509101014115510541F44DB75EB703
:102000006091040170910501461B570BE417F50719
:10201000A8F4F0936906E0936806F9019183808340
:102020000BC028DE7C01009749F0A801BE010CD04E
:10203000CE01B8DEC70104C0CE0102C080E090E04E
:10204000CDB7DEB7EEE06DC0FB01DC0102C0019050
:102050000D9241505040D8F70895FB01DC010190EA
:102060000D920020E1F708954532510518F44230F1
:1020700008F004C0FB011082CB010895BB274A3051
:1020800031F4992322F4BDE2909581959F4F01C0D0
:10209000BB27FB015527AA27880F991FAA1FA41742
:1020A00010F0A41B83955051B9F7A05DAA3308F036
:1020B000A95DA193009779F7B111B1931192CB016A
:1020C00000C0DC01FC01672F71917723E1F73297A3
:1020D00004C07C916D9370836291AE17BF07C8F303
:1020E00008952F923F924F925F926F927F928F92BC
:1020F0009F92AF92BF92CF92DF92EF92FF920F9397
:102100001F93CF93DF93CDB7DEB7CA1BDB0B0FB6A0
:10211000F894DEBF0FBECDBF09942A88398848885D
:102120005F846E847D848C849B84AA84B984C884F3
:10213000DF80EE80FD800C811B81AA81B981CE0FEA
:10214000D11D0FB6F894DEBF0FBECDBFED010895CF
:1021500010E0C6ECD0E003C0FE0188DD2296C83C4A
:08216000D107D1F7F894FFCF7D
:1021680000006C0680001200010000000100000061
:102178000100000001000000000000000000000055
:102188000100000001000000010000000000000044
:102198000000000000000000010000000000000036
:1021A8000000000000000000010000000000010025
:1021B8000100010001000000000000000000000014
:1021C8000000000000000000000000000000000007
:1021D80000000000000000000100010001000100F3
:1021E80001000000000000000700000000000000DF
:1021F80000000200000002000000040000000400CB
:1022080001000600000006000100000002000000B6
:102218000400030004000600040000000700040096
:10222800070071039C03C703F1031B0442046C04F9
:102238009604AF04CF04DC04000000000000000096
:102248000000000000000000000000000000000086
:102258000000000000000000000000000000000076
:102268000000000000000000000000000000000066
:102278000000000000000000000000000000000056
:102288000000000000000000000000000000000046
:102298000000000000000000000000000000000036
:1022A8000000000000000000000000000000000026
:1022B8000000000000000000000000000000000016
:1022C8000000000000000000000000000000000006
:1022D80000000000000000000000000000000000F6
:1022E80000000000000000000100010002000200E0
:1022F8000300040005002878312C7931292C28782E
:10230800322C7932293A20002C0054616D616E68B4
:102318006F20646F206E6176696F20696E76616CDC
:1023280069646F2E00506F736963616F206D756902
:10233800746F2070726F78696D612061206F757499
:10234800726120656D6261726361C3A7616F2E005F
:10235800506F736963616F20696E76616C6964613F
:102368002E00456E7669616E646F2070726F746FAF
:10237800636F6C6F3A200041636572746F75005823
:10238800004167756100486964726F617669616FC1
:10239800005375626D6172696E6F20005375626DCE
:1023A8006172696E6F004372757A61646F7200457D
:1023B8006E636F7572616361646F00506F727461F0
:1023C8002D617669616F0041004200430044004579
:1023D8000044696769746520617320636F6F726474
:1023E800656E646164617320646F20486964726F0C
:1023F800617669616F203120283129004469676955
:10240800746520617320636F6F7264656E646164C4
:10241800617320646F20486964726F617669616FC7
:102428002032202831290044696769746520617366
:1024380020636F6F7264656E646164617320646F9A
:10244800205375626D6172696E6F203120283229C0
:102458000044696769746520617320636F6F7264F3
:10246800656E646164617320646F205375626D6189
:1024780072696E6F203220283229004469676974B6
:102488006520617320636F6F7264656E6461646157
:102498007320646F204372757A61646F72202833E9
:1024A800290044696769746520617320636F6F72DE
:1024B80064656E646164617320646F20456E636F48
:1024C8007572616361646F20283429004469676903
:1024D800746520617320636F6F7264656E646164F4
:1024E800617320646F20506F7274612D6176696129
:1024F8006F2028352900416775617264616E646FC9
:10250800204164766572736172696F2E2E2E0041C8
:102518006775617264616E646F204A6F6761646198
:1025280020646F206164766572736172696F00451B
:102538006E766965206F207469726F0046696D2038
:102548006465204A6F676F2120566F636520506568
:10255800726465752121000000000023078A08A71E
:0825680006C006B206020700DE
:00000001FF
